:020000041FFFDC
:10000000F8FF00201104FF1FFD1DFF1FFD1DFF1F36
:10001000FD1DFF1FFD1DFF1FFD1DFF1FFD1DFF1F00
:10002000FD1DFF1FFD1DFF1FFD1DFF1FFD1DFF1FF0
:10003000FD1DFF1FFD1DFF1FFD1DFF1FFD1DFF1FE0
:10004000FD1DFF1FFD1DFF1FFD1DFF1FFD1DFF1FD0
:10040000FFFFFFFFFFFFFFFFFFFFFFFFFEFFFFFFFD
:1004100062B64FF000004FF000014FF000024FF0C5
:1004200000034FF000044FF000054FF000064FF0BE
:1004300000074FF000084FF000094FF0000A4FF09E
:10044000000B4FF0000C00F0BFFAFEE770B504009F
:100450000D0016003068012802D0022805D00AE0FD
:100460002000C0B27168884705E0B0680470B068C9
:10047000401CB060FFE72868401C286070BD2DE973
:10048000F04704005FF0000A5046A1465FF0000A02
:1004900089F800A019F10109002A1FD0D1F800A0A5
:1004A0005546002D05D15FF0300A89F800A0401CA8
:1004B00038E0002D36D095FBF3FA564603FB165A6A
:1004C0005746002F02D5FF43313700E03037350063
:1004D00089F8007019F10109401CEAE7D1F800A081
:1004E000D446BCF1000F05D15FF0300A89F800A0B6
:1004F000401C17E0BCF1000F14D0BCFBF3FAD64649
:1005000003FB1ECAD046B8F10A0F02D218F1300818
:1005100001E018F13708F44689F8008019F1010963
:10052000401CE7E7BDE8F0872DE9F04104000D002D
:1005300016001F00A046A84507DA3A003100302017
:10054000FFF784FF18F10108F5E7BDE8F0812DE918
:10055000F04104000D0016001F00A046A84507DA70
:100560003A0031002020FFF771FF18F10108F5E78C
:10057000BDE8F0812DE9F24F92B004001500002093
:100580000090129883469BF800000590002800F028
:10059000F2810598252813D005980A2805D0220055
:1005A00000A90598FFF752FF09E0220000A90D20DD
:1005B000FFF74CFF220000A90A20FFF747FFD7E111
:1005C00000208146002003900398002822D11BF1CF
:1005D000010B9BF8000020280ED0232812D02B28D6
:1005E00007D02D2802D0302809D00EE059F001099B
:1005F000EAE759F00209E7E759F00409E4E759F09E
:100600000809E1E759F01009DEE7BBF1010B012011
:100610000390D9E700208246002003900398002829
:1006200013D11BF1010B9BF800000590303809280D
:1006300006D80A20059900FB0A10B0F1300AEDE750
:10064000BBF1010B01200390E8E71BF1010B9BF8C4
:1006500000002E2811D100200390039800280ED10D
:100660001BF1010B9BF800003038092800D8F4E793
:10067000BBF1010B01200390EFE7BBF1010B1BF174
:10068000010B9BF800004C2806D0682802D06C288B
:1006900001D002E003E002E001E0BBF1010B1BF13D
:1006A000010B9BF800000590582875D0622800F0D7
:1006B000D580632800F01D81642813D0692811D0EB
:1006C0006E2800F049816F2800F0BD80702800F08E
:1006D000D080732800F01681752800F0D580782826
:1006E0005AD040E1286806902D1D0A23012206A950
:1006F00009A8FFF7C4FE070009A8381806000698E5
:10070000002803D52D2002907F1C0FE05FEA89703E
:1007100003D52B2002907F1C08E05FEA497003D5C7
:10072000202002907F1C01E0002002900020049015
:100730005FEA097011D50298002804D0220000A9B0
:100740000298FFF783FE01200490230000AA51467F
:100750003800FFF7E9FE574612E05FEAC9700FD490
:10076000230000AA51463800FFF7F1FE0298002846
:1007700004D0220000A90298FFF768FE012004902F
:100780000498002807D10298002804D0220000A96C
:100790000298FFF75BFE98E0286801902D1D10235A
:1007A000002201A909A8FFF76AFE070009A8381866
:1007B0000600002004905FEA097016D55FEAC96060
:1007C0000BD5220000A93020FFF740FE220000A92F
:1007D0007820FFF73BFE01200490230000AA514639
:1007E0003800FFF7A1FE57461BE05FEAC97018D436
:1007F0005FEAC96000D5BF1C230000AA514638003B
:10080000FFF7A5FE5FEAC9600BD5220000A93020E2
:10081000FFF71CFE220000A97820FFF717FE012039
:1008200004905FEAC9600DD5049800280AD122001F
:1008300000A93020FFF70AFE220000A97820FFF768
:1008400005FEBF1C41E0286801902D1D08230022F1
:1008500001A909A8FFF713FE07001FE0286801900F
:100860002D1D0223002201A909A8FFF708FE070099
:1008700014E0286801902D1D1023002201A909A869
:10088000FFF7FDFD070009E0286801902D1D0A23F0
:10089000002201A909A8FFF7F2FD070009A83818EE
:1008A00006005FEA097007D5230000AA5146380008
:1008B000FFF73AFE574608E05FEAC97005D4230007
:1008C00000AA51463800FFF742FE3078002806D0D3
:1008D000220000A93078FFF7B9FD761EF5E75FEA40
:1008E000C97005D5230000AA51463800FFF72FFE36
:1008F0003EE0287807902D1D220000A90798FFF7F9
:10090000A5FD35E0286880462D1DB8F1000F22D0E6
:10091000404600F049F807005FEAC97005D423009B
:1009200000AA51463800FFF712FE98F80000002890
:1009300008D0220000A998F80000FFF787FD18F101
:100940000108F2E75FEAC97005D5230000AA514605
:100950003800FFF7FCFD0BE0286808902D1D089873
:100960000099016004E0220000A90598FFF76EFDE0
:100970001BF1010B07E6009813B0BDE8F08F0EB431
:100980007EB50400012000900648019007A80500EC
:100990002A00210000A8FFF7EDFD060030007EBC14
:1009A0005DF810FBE520FF1F01000A000023002A6C
:1009B00001D1002007E01000421C0078002801D07F
:1009C0005B1CF8E71800704780B500F08DFA00F066
:1009D000A7FA00F005FBDFF8E803FFF7D0FFDFF828
:1009E000E4030068DFF8E0134979491CB0FBF1F03B
:1009F0000090DFF8D0030068DFF8CC130979491CB8
:100A0000B0FBF1F3DFF8BC030068DFF8BC13C97872
:100A1000491CB0FBF1F2DFF8AC030168DFF8AC036E
:100A2000FFF7ADFFDFF8A8030078400703D5DFF834
:100A3000A403FFF7A4FFDFF898030078800703D52D
:100A4000DFF89403FFF79BFFDFF884030078C0070B
:100A500003D5DFF88803FFF792FFDFF884030078FF
:100A6000000603D5DFF87C03FFF789FFDFF870038A
:100A70000078400603D5DFF87003FFF780FFDFF84A
:100A800060030078800603D5DFF86003FFF777FF87
:100A9000DFF84C030078400703D5DFF85403FFF775
:100AA0006EFFDFF83C030078800703D5DFF84403CE
:100AB000FFF765FFDFF828030078C00703D5DFF8EC
:100AC0003803FFF75CFFDFF83403FFF758FFDFF868
:100AD0003003DFF83013884204D0DFF82C03FFF72F
:100AE0004EFF03E0DFF82403FFF749FF00F003F8AF
:100AF00000F0C6FAFEE780B5DFF8140300680009CD
:100B000010F0070000280BD0022813D00DD30428C2
:100B100019D014D306281ED019D307281FD022E0DD
:100B2000DFF8F002FFF72BFF20E0DFF8EC02FFF721
:100B300026FF1BE0DFF8E402FFF721FF16E0B848CC
:100B4000FFF71DFF12E0B748FFF719FF0EE0B648A8
:100B5000FFF715FF0AE0B548FFF711FF06E0B448BC
:100B6000FFF70DFF02E0B348FFF709FFA848006850
:100B700010F00F00022812D0042814D0052816D037
:100B8000062818D007281AD008281CD009281ED0FB
:100B90000A2820D00C2822D00E2824D027E0A648EE
:100BA000FFF7EDFE26E0A548FFF7E9FE22E0A448A6
:100BB000FFF7E5FE1EE0A348FFF7E1FE1AE0A248BA
:100BC000FFF7DDFE16E0A148FFF7D9FE12E0A048CE
:100BD000FFF7D5FE0EE09F48FFF7D1FE0AE09E48E2
:100BE000FFF7CDFE06E09D48FFF7C9FE02E09C48F6
:100BF000FFF7C5FE86480068000B10F00F000028C4
:100C000003D0022809D004D30BE09648FFF7B7FEC3
:100C10000AE09548FFF7B3FE06E09448FFF7AFFE01
:100C200002E09348FFF7ABFE00F06AF891480068D5
:100C3000000E10F00F00072806D0092808D00B2856
:100C40000AD00F280CD00FE08B48FFF798FE0EE07B
:100C50008A48FFF794FE0AE08948FFF790FE06E015
:100C60008748FFF78CFE02E08648FFF788FE86483B
:100C70000068000203D58548FFF781FE1EE07D482D
:100C80000068000F002806D0072808D009280AD0DD
:100C90000F280CD00FE07E48FFF771FE0EE07D4874
:100CA000FFF76DFE0AE07C48FFF769FE06E07A4830
:100CB000FFF765FE02E07948FFF761FE78480068BB
:100CC000000B10F00F00052806D0072808D00828D0
:100CD0000AD009280CD00FE07248FFF750FE0EE052
:100CE0007148FFF74CFE0AE07048FFF748FE06E047
:100CF0006F48FFF744FE02E06E48FFF740FE01BD7B
:100D0000F8B56D48032101706C48002101706C48F2
:100D1000002101706B48002101706B4801210170B6
:100D20006A4880210170694800780006FBD5684850
:100D300000780400674800780500674800780600DE
:100D4000664800780700FFB20097F6B23300EDB2B4
:100D50002A00E4B221006248FFF711FE5648032141
:100D60000170564800210170554800210170554816
:100D70000421017054480121017054488021017000
:100D8000524800780006FBD55148007804005148CD
:100D900000780500504800780600504800780700A9
:100DA000FFB20097F6B23300EDB22A00E4B22100A0
:100DB0004C48FFF7E4FD4548FF210170F1BD0000FC
:100DC0005C1DFF1F2422FF1FF021FF1F781BFF1F48
:100DD00000E007401420FF1F1C1EFF1FF420FF1F10
:100DE00001E007402420FF1F741FFF1FB41EFF1FD8
:100DF000CC1EFF1F381EFF1F0021FF1F7C1DFF1F81
:100E00000000FF1F0000FF1F0C21FF1F1821FF1F04
:100E1000248004403021FF1F3821FF1F4021FF1F85
:100E20004821FF1F5021FF1F5821FF1F6021FF1F76
:100E30006821FF1FAC1CFF1F3420FF1F4420FF1F31
:100E40005420FF1F6420FF1F7420FF1F8420FF1FFA
:100E50009420FF1FA420FF1FB420FF1FC420FF1FEA
:100E6000301CFF1F881FFF1F9C1FFF1FB01FFF1F8D
:100E7000C01BFF1F4C800440E41EFF1FFC1EFF1F11
:100E8000141FFF1F9C1DFF1F50800440D420FF1F14
:100E90002C1FFF1F441FFF1F5C1FFF1FBC1DFF1FD8
:100EA00000700440C41FFF1FD81FFF1FEC1FFF1F4F
:100EB0000020FF1F541EFF1F0700024006000240D3
:100EC00005000240040002400F0002400000024002
:100ED0000B0002400A0002400900024008000240E4
:100EE000D41CFF1FDC1DFF1F80B500F009F80A4865
:100EF00000884FF6FE7108400749088001BD0000D8
:100F000072B606484CF22051018004484DF6281173
:100F1000018062B670470000002005400E200540A9
:100F20002DE9F8432448254988420DD00020804609
:100F3000B8F5826F08D22048204951F8281040F8AF
:100F4000281018F10108F3E71B4800F0B1F81C481D
:100F500007001C4806001C480400A01B80464046B1
:100F6000B0F10108002804D030783870761C7F1C5E
:100F7000F5E71648814616480500B5EB090080469E
:100F80004046B0F10108002805D0002089F8000093
:100F900019F10109F4E70F480F49104A531A98460E
:100FA0004346B3F10108002B04D00B780370491CB1
:100FB000401CF5E7BDE8F1830000FF1F0000FF1FA4
:100FC000C021FF1FDC1AFF1F2C1BFF1F1022FF1F59
:100FD0002C22FF1F7021FF1F8C1AFF1FDC1AFF1F1E
:100FE00080B51E48006850F478501C490860C8203D
:100FF00000F064F81A490860194800684FF47A71E3
:101000004843184908601748006817490968C1F340
:101010000361491CB0FBF1F01449086000F008F8C6
:1010200000F011F85FF4E131012000F0A5F901BDF5
:101030000F48006850F480500D4908600D484FF487
:10104000E061016070470C48006850F001000A49F7
:1010500008600A484FF4A06101607047388004407E
:101060002422FF1F2022FF1F448004402822FF1F4C
:101070000480044018900440408004400CB00440B8
:1010800010B55FF4E131012000F076F90021012074
:1010900000F07EFA03220021012000F083FB04000F
:1010A000A4B2210001A0FFF76AFCF3E72564090060
:1010B000014908607047000008ED00E038B5040001
:1010C000E4B2002C00F0EA80E4B2200030281ED008
:1010D000322823D0602828D064282DD06E2832D022
:1010E000782837D07D283CD0822841D08C2846D023
:1010F00096284BD0A02850D0AA2855D0B4285AD032
:10110000C8285FD0E12864D0FA2869D06FE09248FF
:10111000182101709048002141706CE08E48182120
:1011200001708D480121417065E08B4818210170E4
:101130008948182141705EE087481821017086486F
:101140001A21417057E084481821017082481F21FC
:10115000417050E08048132101707F481821417090
:1011600049E07D48132101707B481A21417042E01B
:1011700079481321017078481C2141703BE0764882
:101180000E21017074481221417034E072480E2122
:1011900001707148152141702DE06F480E210170DA
:1011A0006D481821417026E06B480E2101706A4895
:1011B0001B2141701FE068480E21017066481E2106
:1011C000417018E064480C21017063481C21417093
:1011D00011E061480B2101705F481E2141700AE057
:1011E0005D480A2101705C481F21417003E06420C2
:1011F000FFF764FFAEE0584800218170E4B2652C2F
:1012000003DA55480021C17009E0E4B2C92C03DAC1
:1012100051480121C17002E04F480221C1704E487F
:101220004D49C9780171E4B21F2C03DA4A48002104
:10123000417133E0E4B23D2C03DA474801214171AA
:101240002CE0E4B25B2C03DA43480221417125E033
:10125000E4B2792C03DA4048032141711EE0E4B284
:10126000972C03DA3C480421417117E0E4B2B52C15
:1012700003DA39480521417110E0E4B2D32C03DAD6
:1012800035480621417109E0E4B2F12C03DA324815
:101290000721417102E03048082141712E48407811
:1012A000183080B2322148432B490978491C89B251
:1012B00090FBF1F0050029480021017028480068E2
:1012C00050F08050264908602648007850F0800091
:1012D0002449087024489821017024480078C006E9
:1012E000FBD422480078C0F38100C0B20228F8D1B4
:1012F0001948007810F01F001D4908701D48002192
:10130000017015484379144802791348C17812488E
:10131000807800F02DFF1048407810F01F0050F04A
:10132000400014490870114800788006FBD50F482A
:1013300000784006FBD50C48007810F03F000A49C1
:1013400008700A480078C0F38100C0B20328F8D1C1
:101350002800C0B232BD00BFF021FF1F014006408F
:101360003480044008C00740004006400640064064
:1013700004400640054006402DE9F84304000D00F6
:10138000E4B2002C08D0022C24D014D3042C3FD07B
:101390002FD3052C4BD059E033216D4800F09AFA39
:1013A0003E216B4800F096FA6A48006850F480606D
:1013B000684908604AE068484FF440710160674836
:1013C0004FF4407101606348006850F40060614967
:1013D00008603BE062484FF44071016061484FF49F
:1013E000407101605B48006850F4805059490860C2
:1013F0002CE05D484FF4407101605C484FF440714F
:1014000001605448006850F40050524908601DE0E3
:1014100057484FF44071016056484FF440710160E5
:101420005548006850F48060534908600EE0534806
:101430004FF44071016052484FF4407101604E48D2
:10144000006850F400604C490860FFE7E4B24D4882
:1014500050F82400C07810F0F300E4B2494951F884
:101460002410C870E4B2474850F82400002181706D
:10147000E4B2002C01D1012000E00020E4B2012CF4
:1014800001D1012100E00021C0B2C9B20843002807
:1014900006D03D4800684FF47A714843814605E024
:1014A0003A4800684FF47A71484381462801B9FBF5
:1014B000F0F00600E4B2334850F82400007810F051
:1014C000E0008046B6B2300A10F01F0050EA080073
:1014D000E4B22C4951F824100870E4B2294850F8BD
:1014E000240046705FEA49102901B0FBF1F0B6B262
:1014F000B0EB46100700E4B2224850F82400807A8E
:1015000010F0E0008046E4B21E4850F8240017F0C6
:101510001F0151EA08018172E4B21A4850F8240010
:10152000C07850F00C00E4B2164951F82410C8708D
:10153000BDE8F183C0B2134A52F820201279120696
:10154000F8D5C0B20F4A52F82020D1717047000080
:10155000FC1CFF1F348004400CB0044010B0044059
:101560000CC0044008C0044040B0044044B00440F3
:1015700064D0044060D004402880044024D004405B
:1015800020D00440F821FF1F2022FF1F2822FF1F28
:1015900038B504000D00E4B2002C05D1EDB2082DE1
:1015A00002DBEDB2132D0DDBE4B2012C05D1EDB25F
:1015B000042D02DBEDB2122D04DB2221DFF8AC0298
:1015C00000F088F9E4B2002C02D0012C7CD0E8E0D5
:1015D000DFF89C02006850F00060DFF894120860A9
:1015E000DFF89002006830F09000DFF888120860A1
:1015F000DFF8800200210160EDB2280008380128E0
:101600000CD9801E01281BD9801E01282AD9801ED2
:10161000012838D9C01E012845D953E0DFF8580207
:10162000006850F48060DFF850120860EDB2A80046
:1016300000F1804010F59420002140F8201C42E089
:10164000DFF83402006850F40070DFF82C120860F4
:10165000EDB2A80000F1804010F59220002140F882
:101660000C1C30E0DFF81002006850F48060824902
:101670000860EDB2A80000F1804010F59420002130
:1016800040F8281C1FE07C48006850F400607A494C
:101690000860EDB2A80000F1804010F5962000210E
:1016A00040F8381C0FE07448006850F4005072494C
:1016B0000860EDB2A80000F1804010F59A200021EA
:1016C000C16100E06DE06CE06C48006850F00060C3
:1016D0006A4908606748006830F41040654908604E
:1016E000644800210160EDB22800001F03280BD9D7
:1016F000001F012818D9801E032825D9001F0128A2
:1017000032D9C01E40D04BE05B48006850F4005016
:1017100059490860EDB2A80000F1804010F59A2008
:10172000002140F8101C3BE05348006850F48060F2
:1017300051490860EDB2A80000F1804010F59420F6
:10174000002140F8201C2BE04B48006850F48060DA
:1017500049490860EDB2A80000F1804010F59420DE
:10176000002140F8181C1BE04348006850F48060DA
:1017700041490860EDB2A80000F1804010F59420C6
:10178000002140F8181C0BE03B48006850F4007042
:1017900039490860EDB23A48002140F82510FFE7CA
:1017A000FFE731BDF8B504000D0016000027E4B2D4
:1017B000002C05D1EDB2082D02DBEDB2132D0CDBB0
:1017C000E4B2012C05D1EDB2042D02DBEDB2122DF5
:1017D00003DB8721254800F07DF83200D2B22900D2
:1017E000C9B22000C0B200F01CF8E4B2254850F89D
:1017F000240000680006F8D5E4B2224850F824001E
:1018000000690700E4B21F4850F82400006830F077
:101810008000E4B21B4951F824100860380080B2FF
:10182000F2BD70B504000D00160015F01F0050F059
:10183000400015490872B00010F00C0050F0500044
:10184000114908701048042141700F4841F23421B9
:1018500041800D4845F2786181800B49E4B2094826
:1018600050F8240000F012F870BD00005C1CFF1F4F
:101870003C8004401880044038800440308004409C
:1018800000900440C021FF1F1022FF1F0A788260D1
:101890004A78C2604A8882618A88C2618A79026213
:1018A000CA794262CA6802650A7A02604A7A42606C
:1018B000704750F8041B61B150F8042BD30744BFA4
:1018C000A9F101039A18002342F8043B091FFAD139
:1018D000EFE7704738B504000D0000F00BF82A0060
:1018E00021000348FFF74BF800F02DF8F7E700BFA1
:1018F0002C1BFF1F80B5012301220E21002000F0C8
:1019000053F8012301220F21002000F04DF801239C
:1019100001221021002000F047F8012301221121AB
:10192000002000F041F801BD1E4A12681268012330
:1019300083409A43C9B211F0010383401A43194B03
:101940001B681A60704710B5012301220E21002088
:1019500000F02AF8012301220F21002000F024F8D2
:10196000012301221021002000F01EF80123012292
:101970001121002000F018F80E200400E4B2122C0F
:101980000EDA00212000C0B2FFF7CEFF642000F085
:101990006BF801212000C0B2FFF7C6FF641CEDE721
:1019A00010BD0000C821FF1FF8B504000D0016008F
:1019B0001F00EDB2202D02D2FFB2022F03D324214B
:1019C0002648FFF787FFEDB2E4B2254850F824001F
:1019D0004FF4807140F82510F00705D5F6B2032EBC
:1019E00002D0F6B2132E0DD1E4B21E4850F82400F6
:1019F00040690121A9408843E4B21A4951F82410F2
:101A000048612AE0E4B2174850F8240040690121F7
:101A1000A9400843E4B2134951F824104861FFB2C9
:101A2000012F0DD1E4B20F4850F8240000680121C5
:101A3000A9400843E4B20B4951F8241008600CE0B7
:101A4000E4B2084850F8240000680121A940884306
:101A5000E4B2044951F824100860F1BD841CFF1F52
:101A6000DC21FF1FC821FF1F00231900814209D27A
:101A7000054B1B681A00002A02D000BF521EFAE76D
:101A8000491CF3E7704700002822FF1FF0B4114EF5
:101A9000366834000F4E366856F47F060D4F3E60B0
:101AA0000E0616F0706656EA0076170517F47007F2
:101AB0003E431F0417F470273E43074F3E60002645
:101AC0003500EDB29D4201D26D1CFAE7014E346043
:101AD000F0BC704700F001404480044000B0034077
:101AE00000B00B4000F00F4040F00F4080F00F407E
:101AF000C0F00F4000F10F400090044000A00440EF
:101B000000B0044000C0044000D004400B1F00009F
:101B10000009000000A0064000B0064000C00640DA
:101B200000D0064000A00E4000B00E40B6CFD1D489
:101B3000B7A2C9FAD4DA2573CEC4BCFEB5C4B5DAEF
:101B40002564D0D0A3A10AB6CFD1D4CCF5BCFEB2C7
:101B5000BBB3C9C1A2A3ACC7EBBCECB2E2B4EDCE3F
:101B6000F3D4ADD2F2A1A309A1AAA1AA206279203F
:101B7000D2B0BBF00A0A0000C4DABACBC6B5C2CAFA
:101B8000A3BA25644D487A09D7DCCFDFC6B5C2CAEF
:101B900020A3BA25644D487A0A666C6578C6B5C23A
:101BA000CAA3BA25644D487A2009666C617368C679
:101BB000B5C2CAA3BA25644D487A0A0A00000000DB
:101BC0000A546869732076657273696F6E206F6658
:101BD00020736F66747761726520646F65736E271A
:101BE00074207265636F676E697A6520746865201A
:101BF0007265766973696F6E20636F64652E00008D
:101C00000A2A2A2A2A64656661756C745F69737290
:101C100020656E7465726564206F6E2076656374EE
:101C20006F722025642A2A2A2A2A0D0A0A00000037
:101C30000A556E7265636F676E697A6564204B69D9
:101C40006E65746973207061636B61676520636F93
:101C500064652E202020202020000000483A5C6689
:101C60006972655F4B696E657469735C7372635CFE
:101C7000647269766572735C6164635C6164632E2F
:101C800063000000483A5C666972655F4B696E6587
:101C90007469735C7372635C647269766572735C99
:101CA0006770696F5C6770696F2E63000A556E72AA
:101CB00065636F676E697A6564204B696E657469E8
:101CC000732066616D696C79206465766963652E41
:101CD0000A000000466C61736820706172616D6576
:101CE0007465722076657273696F6E2025642E2587
:101CF000642E25642E25640A00000000483A5C66C4
:101D00006972655F4B696E657469735C7372635C5D
:101D1000647269766572735C756172745C75617208
:101D2000742E630010B5074979441831064C7C4481
:101D3000163404E00A68081D511888470146A1427C
:101D4000F8D110BD080000001400000067FBFFFF81
:101D50001C0000001022FF1F000000000A0A0909F1
:101D6000D2B0BBF06B696E65746973BACBD0C4B086
:101D7000E5B2E2CAD4B3CCD0F20A00000AD2B0BBBA
:101D8000F04B696E65746973BFAAB7A2B0E5C6F47B
:101D9000B6AFB7BDCABDA3BA00000000455252217C
:101DA0002120556E646566696E656420502D666CF1
:101DB0006173682073697A650A00000045525221F8
:101DC0002120556E646566696E656420466C657891
:101DD0004E564D2073697A650A000000466C6173A7
:101DE000682076657273696F6E2049442025642EE1
:101DF00025642E25642E25640A00000080B5FFF7B7
:101E000079FDFFF7A0FD03480178C9B20248FEF74B
:101E1000B6FD01BD04ED00E0001CFF1F436F7265BD
:101E2000204C6F636B7570204576656E742052652B
:101E30007365740A000000004C6F772D766F6C7428
:101E400061676520446574656374205265736574C9
:101E50000A000000455252212120556E64656669D2
:101E60006E65642052414D2073697A650A0A00004C
:101E700000F00BF8002801D0FFF754FF0020C04607
:101E8000C046FFF7FDF800F002F80120704700F0AF
:101E900001B800000746384600F002F8FBE70000F2
:101EA00080B5C046C046024A11001820ABBEFBE711
:101EB000260002005761746368646F6728434F50BF
:101EC000292052657365740A000000004C6F73731B
:101ED000206F6620436C6F636B2052657365740AD4
:101EE00000000000313238206B4279746573206F36
:101EF0006620502D666C617368090000323536200B
:101F00006B4279746573206F6620502D666C617327
:101F100068090000353132206B4279746573206F97
:101F20006620502D666C61736809000030206B429A
:101F300079746573206F6620466C65784E564D0A3D
:101F400000000000313238206B4279746573206FD5
:101F50006620466C65784E564D0A000032353620B4
:101F60006B4279746573206F6620466C65784E56B7
:101F70004D0A000045787465726E616C2050696E80
:101F80002052657365740A0053696C69636F6E2033
:101F900072657620312E302020200A0053696C694A
:101FA000636F6E2072657620312E3120200A00008A
:101FB00053696C69636F6E2072657620312E322012
:101FC000200A00003332206B4279746573206F66FB
:101FD0002052414D0A0A00003634206B4279746564
:101FE00073206F662052414D0A0A00003936206B7B
:101FF0004279746573206F662052414D0A0A0000D1
:10200000313238206B4279746573206F66205241FB
:102010004D0A0A00536F66747761726520526573CA
:1020200065740A00506F7765722D6F6E205265736C
:1020300065740A00333270696E2020202020202031
:1020400000000000343870696E20202020202020FD
:1020500000000000363470696E20202020202020EF
:1020600000000000383070696E20202020202020E1
:1020700000000000383170696E20202020202020D0
:102080000000000031303070696E202020202020B8
:102090000000000031303470696E202020202020A4
:1020A0000000000031343470696E20202020202090
:1020B0000000000031393670696E20202020202079
:1020C0000000000032353670696E2020202020206C
:1020D00000000000502D666C617368206F6E6C7993
:1020E0000A00000010B504002100C9B20120FFF76A
:1020F00021FA10BD4A5441472052657365740A00A5
:102100004C4C57552052657365740A00666C6173B8
:1021100068C6F4B6AF0A00005352414DC6F4B6AFDC
:102120000A000000C046C046C046C046FFF7A0FEF9
:102130000A4B31302D0000000A4B32302D000000D8
:102140000A4B33302D0000000A4B34302D000000C4
:102150000A4B36302D0000000A4B37302D000000AE
:102160000A4B35302D0000000A4B35332D0000009E
:040000051FFF212593
:00000001FF
