:020000041FFFDC
:10000000F8FF00201104FF1FD51CFF1FD51CFF1F88
:10001000D51CFF1FD51CFF1FD51CFF1FD51CFF1FA4
:10002000D51CFF1FD51CFF1FD51CFF1FD51CFF1F94
:10003000D51CFF1FD51CFF1FD51CFF1FD51CFF1F84
:10004000D51CFF1FD51CFF1FD51CFF1FD51CFF1F74
:10005000A11CFF1FD51CFF1FD51CFF1FD51CFF1F98
:10006000D51CFF1FD51CFF1FD51CFF1FD51CFF1F54
:10007000D51CFF1FD51CFF1FD51CFF1FD51CFF1F44
:10008000D51CFF1FD51CFF1FD51CFF1FD51CFF1F34
:10009000D51CFF1FD51CFF1FD51CFF1FD51CFF1F24
:1000A000D51CFF1FD51CFF1FD51CFF1FD51CFF1F14
:1000B000D51CFF1FD51CFF1FD51CFF1FD51CFF1F04
:1000C000D51CFF1FD51CFF1FD51CFF1FD51CFF1FF4
:1000D000D51CFF1FD51CFF1FD51CFF1FD51CFF1FE4
:1000E000D51CFF1FD51CFF1FD51CFF1FD51CFF1FD4
:1000F000D51CFF1FD51CFF1FD51CFF1FD51CFF1FC4
:10010000D51CFF1FD51CFF1FD51CFF1FD51CFF1FB3
:10011000D51CFF1FD51CFF1FD51CFF1FD51CFF1FA3
:10012000D51CFF1FD51CFF1FD51CFF1FD51CFF1F93
:10013000D51CFF1FD51CFF1FD51CFF1FD51CFF1F83
:10014000D51CFF1FD51CFF1FD51CFF1FD51CFF1F73
:10015000D51CFF1FD51CFF1FD51CFF1FD51CFF1F63
:10016000D51CFF1FD51CFF1FD51CFF1FD51CFF1F53
:10017000D51CFF1FD51CFF1FD51CFF1FD51CFF1F43
:10018000D51CFF1FD51CFF1FD51CFF1FD51CFF1F33
:10019000D51CFF1FD51CFF1FD51CFF1FD51CFF1F23
:1001A000D51CFF1FD51CFF1F091CFF1F7F1CFF1F35
:1001B000D51CFF1FD51CFF1FD51CFF1FD51CFF1F03
:1001C000D51CFF1FD51CFF1FD51CFF1FD51CFF1FF3
:1001D000D51CFF1FD51CFF1FD51CFF1FD51CFF1FE3
:1001E000D51CFF1FD51CFF1FD51CFF1FD51CFF1FD3
:10040000FFFFFFFFFFFFFFFFFFFFFFFFFEFFFFFFFD
:1004100062B64FF000004FF000014FF000024FF0C5
:1004200000034FF000044FF000054FF000064FF0BE
:1004300000074FF000084FF000094FF0000A4FF09E
:10044000000B4FF0000C00F001F8FEE710B582B091
:1004500000F0CAFB00F0E0FB00F016FC0FF2F02009
:1004600000F0B7FEB2480168B2484279521CB1FBB5
:10047000F2F200920279C078521CB1FBF2F3401CF8
:10048000B1FBF0F20FF2E82000F0A3FEAA4C2078B6
:10049000400744BF0FF2203000F09BFE2078800719
:1004A00044BF0FF2243000F094FE2078C00744BF10
:1004B0000FF2303000F08DFE6078000644BF0FF27E
:1004C000303000F086FE6078400644BF0FF23030D6
:1004D00000F07FFE6078800644BF0FF2383000F0F5
:1004E00078FE6078400744BF0FF2403000F071FEA4
:1004F0006078800744BF0FF24C3000F06AFE6078ED
:10050000C00744BF0FF2583000F063FE0FF25C30BA
:1005100000F05FFE89488A49884214BF0FF26C30B0
:100520000FF2743000F055FE00F004F800F062FEA7
:10053000FEE7000010B5834C2068000900F00700BA
:1005400007281DD8DFE800F004070A0D101316195C
:100550000FF2503016E00FF2543013E00FF2543027
:1005600010E00FF258300DE00FF258300AE00FF2B1
:100570005C3007E00FF25C3004E00FF2603001E025
:100580000FF2603000F025FE206800F00F00801EA2
:100590000C2826D8DFE800F007250A0D10131619DD
:1005A0001C251F2522000FF264301CE00FF26C3076
:1005B00019E00FF2783016E00FF2803013E00FF2FE
:1005C0008C3010E00FF294300DE00FF2A0300AE012
:1005D0000FF2A83007E00FF2B43004E00FF2BC30A5
:1005E00001E00FF2C83000F0F4FD2068000B10F0BD
:1005F0000F0003D0022807D003D308E00FF2D83051
:1006000007E00FF2E83004E00FF2F43001E00FF2FF
:10061000044000F0DEFD00F057F8A06A000E00F084
:100620000F00072806D0092807D00B2818BF0F286D
:1006300006D008E00FF21C4007E00FF2304004E063
:100640000FF2404001E00FF2544000F0C2FDE06ABA
:10065000000248BF0FF2644014D4A06A000F06D015
:10066000072807D0092818BF0F2806D008E00FF286
:100670005C4007E00FF26C4004E00FF2804001E0C4
:100680000FF2904000F0A5FD2F480068000B00F02D
:100690000F00052806D0072807D0082808D0092809
:1006A00009D00BE00FF28C400AE00FF29C4007E00B
:1006B0000FF2A84004E00FF2B84001E00FF2C4408E
:1006C000BDE8104000F085BD10B5204C82B003207D
:1006D000E0710020A071607120710120E073802022
:1006E000207020780006FCD5E17AA27A637A207A1D
:1006F00000900FF2AC4000F06CFD0320E071002090
:10070000A0716071042020710120E07380202070AE
:1007100020780006FCD5E17AA27A637A207A0090EC
:100720000FF2A44000F055FDFF20207013BD000023
:10073000887CFF1F601EFF1F00E007400000FF1FB6
:100740000000FF1F248004400070044000000240AD
:100750000A0A0909D2B0BBF06B696E65746973BA95
:10076000CBD0C4B0E5B2E2CAD4B3CCD0F20A000018
:10077000C4DABACBC6B5C2CAA3BA25644D487A0951
:10078000D7DCCFDFC6B5C2CA20A3BA25644D487AEC
:100790000A666C6578C6B5C2CAA3BA25644D487AA4
:1007A0002009666C617368C6B5C2CAA3BA25644DD8
:1007B000487A0A0A00000000536F66747761726518
:1007C0002052657365740A00436F7265204C6F6335
:1007D0006B7570204576656E742052657365740A7A
:1007E000000000004A5441472052657365740A00B6
:1007F000506F7765722D6F6E2052657365740A00B5
:1008000045787465726E616C2050696E2052657314
:1008100065740A005761746368646F6728434F50BA
:10082000292052657365740A000000004C6F7373D1
:10083000206F6620436C6F636B2052657365740A8A
:10084000000000004C6F772D766F6C746167652037
:100850004465746563742052657365740A00000012
:100860004C4C57552052657365740A000AD2B0BBD0
:10087000F04B696E65746973BFAAB7A2B0E5C6F4A0
:10088000B6AFB7BDCABDA3BA00000000666C617305
:1008900068C6F4B6AF0A00005352414DC6F4B6AF75
:1008A0000A0000000A4B31302D0000000A4B3230A4
:1008B0002D0000000A4B33302D0000000A4B34306D
:1008C0002D0000000A4B36302D0000000A4B373057
:1008D0002D0000000A4B35302D0000000A4B353347
:1008E0002D0000000A556E7265636F676E697A6548
:1008F00064204B696E657469732066616D696C79FB
:10090000206465766963652E0A00000033327069E1
:100910006E20202020202020000000003438706944
:100920006E20202020202020000000003634706936
:100930006E20202020202020000000003830706928
:100940006E20202020202020000000003831706917
:100950006E20202020202020000000003130307048
:10096000696E2020202020200000000031303470EB
:10097000696E2020202020200000000031343470D7
:10098000696E2020202020200000000031393670C0
:10099000696E2020202020200000000032353670B3
:1009A000696E202020202020000000000A556E7271
:1009B00065636F676E697A6564204B696E657469FB
:1009C00073207061636B61676520636F64652E20BF
:1009D000202020202000000053696C69636F6E2086
:1009E00072657620312E302020200A0053696C6910
:1009F000636F6E2072657620312E3120200A000050
:100A000053696C69636F6E2072657620312E3220D7
:100A1000200A00000A546869732076657273696F52
:100A20006E206F6620736F66747761726520646FE5
:100A300065736E2774207265636F676E697A6520CF
:100A4000746865207265766973696F6E20636F6480
:100A5000652E0000313238206B4279746573206F47
:100A60006620502D666C61736809000032353620AF
:100A70006B4279746573206F6620502D666C6173CC
:100A800068090000353132206B4279746573206F3C
:100A90006620502D666C6173680900004552522132
:100AA0002120556E646566696E656420502D666C04
:100AB0006173682073697A650A000000502D666CC6
:100AC000617368206F6E6C790A00000030206B4201
:100AD00079746573206F6620466C65784E564D0AB2
:100AE00000000000313238206B4279746573206F4A
:100AF0006620466C65784E564D0A00003235362029
:100B00006B4279746573206F6620466C65784E562B
:100B10004D0A0000455252212120556E64656669D8
:100B20006E656420466C65784E564D2073697A6513
:100B30000A0000003332206B4279746573206F66BF
:100B40002052414D0A0A00003634206B4279746508
:100B500073206F662052414D0A0A00003936206B1F
:100B60004279746573206F662052414D0A0A000075
:100B7000313238206B4279746573206F66205241A0
:100B80004D0A0A00455252212120556E646566695E
:100B90006E65642052414D2073697A650A0A00002F
:100BA000466C61736820706172616D657465722056
:100BB00076657273696F6E2025642E25642E256418
:100BC0002E25640A00000000466C6173682076657B
:100BD0007273696F6E2049442025642E25642E258A
:100BE000642E25640A00000080B500F007F808486C
:100BF00001884FF6FE721140018001BD054872B6B2
:100C00004CF2205101804DF62811018062B67047E8
:100C1000002005400E20054010B51149114C8C42B2
:100C200004D04FF48252204600F03CFB204600F0F6
:100C300075FB0D490D48421A1CBF0D4800F022FB00
:100C40000C480D49091A18BF00F006FC0B490C4866
:100C5000421A04D0BDE810400A4800F013BB10BD92
:100C60000000FF1F0000FF1F241DFF1F6C1DFF1F42
:100C7000381EFF1FBC1EFF1F907CFF1F6C1DFF1F37
:100C8000A81DFF1F801EFF1F38B5164C164D606B48
:100C900040F478506063C82000F0E2FB68604FF4D5
:100CA0007A7111FB00F02860216CC1F30361491CCB
:100CB000B0FBF1F0A8604FF4E061206840F4805090
:100CC00020600A4801604FF4A061E06B40F0010031
:100CD000E063074801604FF49641BDE834400120CD
:100CE00000F08ABC04800440847CFF1F18900440FC
:100CF0000CB0044010B50C461168012902D002293D
:100D000004D008E05168C0B2884704E091680870D8
:100D10009068401C90602068401C206010BD30B47A
:100D2000002400F8014B002A096812D091B191FB10
:100D3000F3F203FB1211002946BFC94301F131054B
:100D400001F130051146641C00F8015B0029EED169
:100D500014E019B93021017001240FE0B1FBF3F266
:100D600003FB12110A2934BF01F1300501F13705E7
:100D70001146641C00F8015B0029EFD1204630BC0D
:100D80007047F8B507460C4615461E46A74214DACA
:100D90003068012808D0022809D1B06830210170DC
:100DA000B068401CB06002E0302071688847286855
:100DB000401C7F1C2860A742EADBF1BDF8B507465E
:100DC0000C4615461E46A74214DA3068012808D0A2
:100DD000022809D1B06820210170B068401CB060C1
:100DE00002E02020716888472868401C7F1C28602A
:100DF000A742EADBF1BD2DE9F04F8DB0054600209A
:100E0000934600900C4604E02A4600A9FFF772FFC3
:100E1000641C2078002800F0D881252826D00A28D4
:100E2000F2D12868012808D0022809D1A8680D212C
:100E30000170A868401CA86002E00D20696888471E
:100E40000098401C00902868012808D0022809D189
:100E5000A8680A210170A868401CA86002E00A2066
:100E6000696888470098401C0090D1E7002701E09E
:100E700047F0100714F8010F20280ED02328F7D0D0
:100E80002B2807D02D2802D0302809D00BE047F0BE
:100E90000107EFE747F00207ECE747F00407E9E74F
:100EA00047F00807E6E7611E4FF0000805E008EB91
:100EB000880200EB4200A0F1300811F8010FA0F108
:100EC0003002092AF3D92E2804D111F8010F303845
:100ED0000928FAD94C1E14F8010F4C2818BF6828AD
:100EE00002D06C2818BF641E14F8010F582867D070
:100EF000622800F00781632800F03781642818BF5A
:100F0000692811D06E2800F05B816F2800F0F58011
:100F1000702800F0FC80732800F02B81752800F009
:100F2000FB8078284CD06FE75BF8040B02900A2313
:100F3000012202A903A8FFF7F2FE824603A80AEBEA
:100F400000090298002848BF2D2606D4B80748BFDC
:100F50002B2602D4780703D520260AF1010A00E0E7
:100F60000026380708D5002E00F0E5802A4600A9A3
:100F70003046FFF7BFFEDEE0F8070CD42B4600AA90
:100F800041465046FFF71AFF002E00F0E4802A4643
:100F900000A93046E6E0002E00F0DD802868012838
:100FA00007D0022808D1A8680670A868401CA8606D
:100FB00002E03046696888470098401C0090CAE00B
:100FC00010235BF8040B0190002201A903A8FFF78E
:100FD000A6FE824603A80AEB0009002638072ED594
:100FE000F80624D52868012808D0022809D1A86865
:100FF00030210170A868401CA86002E030206968B8
:1010000088470098401C00902868012808D00228D2
:1010100009D1A86878210170A868401CA86002E086
:101020007820696888470098401C009001262B466C
:1010300000AA41465046FFF7A4FEC24632E0F80738
:1010400030D4F80648BF0AF1020A2B4600AA4146EE
:101050005046FFF7B3FEF80624D52868012808D0CB
:10106000022809D1A86830210170A868401CA86036
:1010700002E03020696888470098401C009028688A
:10108000012808D0022809D1A86878210170A86831
:10109000401CA86002E07820696888470098401CDE
:1010A00000900126F80656D5002E54D12868012854
:1010B00008D0022809D1A86830210170A868401C16
:1010C000A86002E03020696888470098401C0090C2
:1010D0002868012808D0022809D1A8687821017061
:1010E000A868401CA86002E07820696888470098DA
:1010F000401C00900AF1020A2DE05BF8040B0190FD
:1011000008230DE05BF8040B0190022308E05BF874
:10111000040B0190102303E05BF8040B01900A23F9
:10112000002201A903A8FFF7FAFD824603A80AEBF3
:101130000009380707D52B4600AA41465046FFF75D
:1011400020FEC24607E0F80705D42B4600AA414618
:101150005046FFF733FE99F8000038B319F801093B
:101160002A4600A9FFF7C6FDF5E75BF8040BC0B2FD
:101170004AE65BF8049BB9F1000F3FF449AE4846DC
:1011800000F0F0FA8246F8070CD42B4600AA41463C
:101190005046FFF713FE05E019F8010B2A4600A997
:1011A000FFF7A8FD99F800000028F5D1F8077FF5B2
:1011B0002FAE2B4600AA41465046FFF7FFFD27E61B
:1011C0005BF8040B0099016022E600980DB0BDE8C1
:1011D000F08F0EB400B584B00121009105AA044936
:1011E0000191014600A8FFF706FE04B05DF810FB70
:1011F000311EFF1F2DE9F041214C251D7826C82105
:10120000284600F029F9C835761EF8D14FF4E131AF
:10121000012000F0F1F972B609220A21032000F042
:10122000ABFA09220021042000F0A6FA62B6207869
:101230000228FCD00021012000F068FAFF210120E3
:1012400000F064FA0121012000F060FA0021012081
:1012500000F05CFA251D7826A846C82718F8011B5F
:10126000012000F053FA7F1EF8D1C835761EF3D165
:10127000FF21012000F04AFA00202070D7E700BFCC
:10128000BC1EFF1F62B38B0708D0521E11F8013B32
:1012900000F8013B00F024808B07F6D1830740F073
:1012A000208000BF103A07D330B4B1E83810103AAC
:1012B000A0E83810F9D230BC530724BFB1E80810B9
:1012C000A0E8081044BF51F8043B40F8043BD207A3
:1012D00024BF31F8022B20F8022B44BF0B78037097
:1012E0007047083A07D3B1E80810083A40F8043BC1
:1012F00040F804CBF7D25307E4E750F8041B61B180
:1013000050F8042BD30744BFA9F101039A18002316
:1013100042F8043B091FFAD1EFE770472D490860F6
:10132000704710B504465C2CA4BF0FF2B800FFF75D
:1013300050FF201104EBD060401103D0022815D0DB
:101340000AD310BD0121A4EB401001FA00F022499C
:1013500008602249086010BD0121A4EB401001FA89
:1013600000F01D4948601D49486010BD0121A4EBF3
:10137000401001FA00F0184988601849886010BDD3
:1013800010B504465C2CA4BF0FF29000FFF721FFBC
:10139000201104EBD060401103D0022811D008D3F3
:1013A00010BD0121A4EB401001FA00F00C490860C7
:1013B00010BD0121A4EB401001FA00F0084948607B
:1013C00010BD0121A4EB401001FA00F0044988602F
:1013D00010BD000008ED00E080E200E000E100E068
:1013E00080E100E00A4552522120496E76616C6925
:1013F00064204952512076616C7565207061737369
:10140000656420746F20656E61626C65206972711D
:101410002066756E6374696F6E210A000A45525228
:101420002120496E76616C696420495251207661B1
:101430006C75652070617373656420746F206469D6
:101440007361626C65206972712066756E63746980
:101450006F6E210A00000000002200F0B5B9000004
:1014600070B500287BD030281ED0322826D06028C6
:1014700027D0642849D06E2826D0782827D07D2808
:1014800028D0822829D08C282AD096282BD0A02892
:101490002CD0AA282CD0B4282DD0C8282ED0E128B2
:1014A0002ED0FA282ED02FE0182100224E4C217089
:1014B00062700021A170652829DA2CE01821012230
:1014C000F4E718211822F1E718211F22EEE7132173
:1014D0001822EBE713211A22E8E713211C22E5E783
:1014E0000E211222E2E70E211522DFE70E21EFE79F
:1014F0000E211B22DAE70E211E22D7E70C21EDE791
:101500000B21F9E70A21E0E764201821E3E7C92865
:10151000B4BF01210221E1701F28E1782171B8BF19
:1015200000201BDB3D28B8BF012017DB5B28B8BFBC
:10153000022013DB7928B8BF03200FDB9728B8BF40
:1015400004200BDBB528B8BF052007DBD328B8BFC4
:10155000062003DBF128B4BF072008206071322188
:10156000214C224E6078183080B248432178491CC3
:1015700089B290FBF1F5002070701D48016841F0C0
:10158000805101601B48017841F080010170982072
:101590003070B079C006FCD4B079C0F38100022865
:1015A000FAD1207800F01F0030710020707163794B
:1015B0002279E178A07800F063FC607800F01F00E9
:1015C00040F040007071B0798006FCD5B0794006DB
:1015D000FCD5307800F03F003070B079C0F3810066
:1015E0000328FAD1E8B270BD601EFF1F004006401C
:1015F0003480044008C00740F8B505460C4605286D
:1016000046D8DFE800F003121C26313B0FF22C16FF
:101610003321304600F008F93E21304600F004F94D
:101620003F48C16841F480611CE03E484FF440717E
:10163000016041603A48C16841F4006112E03A48F3
:101640004FF44071416001603548C16841F48051F8
:1016500008E034484FF44071416381633048C16809
:1016600041F40051C16013E030484FF440714164CF
:1016700001642B48016841F4806108E02B484FF475
:101680004071416001602648016841F400610160D9
:101690002749284651F82020D37803F0F303D3706C
:1016A000002351F8202093706A1E9241012808BF40
:1016B00001234FF47A7553EAD27214BF1D4A1E4AB1
:1016C00012686A4351F820502E782301B2FBF3F4DC
:1016D00027043F0E06F0E00607F01F073E432E707A
:1016E000520151F820506C70B2FBF3F251F82040D7
:1016F000A57A05F0E00502F01F022A43A27251F814
:101700002000C17841F00C01C170F1BD084A52F8C7
:10171000203093F804C05FEA0C6CFAD5D971704799
:10172000288004400CB0044008C0044020D004408D
:10173000681EFF1F847CFF1F8C7CFF1F483A5C667D
:101740006972655F4B696E657469735C7372635C23
:10175000647269766572735C756172745C756172CE
:10176000742E6300002108B97047491C10F8012B42
:10177000002AFAD1084670473CB4104B1C684FF45D
:10178000007585402C431C6014040D4B53F8203029
:1017900004F4702444EAD21242F4817243F8212006
:1017A0000124084A52F82020536904FA01F123EA7F
:1017B00001015161573036BCFFF7B3BD388004409A
:1017C0004C1EFF1F381EFF1F401810F0030308D0E7
:1017D000C91A1FD3DB0748BF00F8012D28BF20F826
:1017E000022D130030B414461546103928BF20E9E5
:1017F0003C00FAD8490728BF20E90C0048BF40F850
:10180000042D890028BF20F8022D48BF00F8012DC3
:1018100030BC7047C91818BF00F8012DCB0728BF8E
:1018200000F8012D7047000070B504460D4600F029
:1018300031F80FF214062A4621463046FFF7C9FC5C
:1018400000F043F8F7E70000B6CFD1D4B7A2C9FA49
:10185000D4DA2573CEC4BCFEB5C4B5DA2564D0D0C5
:10186000A3A10AB6CFD1D4CCF5BCFEB2BBB3C9C1DB
:10187000A2A3ACC7EBBCECB2E2B4EDCEF3D4ADD2D4
:10188000F2A1A309A1AAA1AA20627920D2B0BBF03B
:101890000A0A000080B5012301220E21002000F079
:1018A0004DF801231A460F21002000F047F80123CC
:1018B0001A461021002000F041F8BDE80050012335
:1018C0001A461121002000F039B82DE9F04101231A
:1018D00001220E21002000F031F801231A460F21C9
:1018E000002000F02BF801231A461021002000F000
:1018F00025F801231A461121002000F01FF80E24BC
:101900004FF000080C4E012000FA04F7306801681F
:10191000FD43294008FA04F211430160642000F0FD
:1019200057F83068016829403943641C0160122C63
:10193000E9DBBDE8F0810000381EFF1FF8B50D4659
:10194000074616461C46202D38BF022C04D32421FE
:101950000FF25400FFF768FF124800EB87014FF4C5
:101960008072496941F82520F10703D5032E18BF7D
:10197000132E07D150F8270041690122AA40914354
:101980004161F1BD012150F827004269A9400A4395
:101990004261012C02680CBF114322EA010101607F
:1019A000F1BD0000381EFF1F483A5C666972655F32
:1019B0004B696E657469735C7372635C647269769B
:1019C0006572735C6770696F5C6770696F2E630026
:1019D00038B10449096811B100BF491EFCD1401E4D
:1019E000F7D170478C7CFF1F2DE9F94E82B00D4670
:1019F0000C9C16469A4624B972484019B0F5827F6D
:101A00001BD3012C09D16F484019B0F5817F0ED846
:101A100005F00300032814D109E0022C07D169481E
:101A20004019B0F5807F02D815F003000DD03121A8
:101A30000FF2AC10FFF7F8FE0CB9012708E0012CFB
:101A400001D1022704E0022C01D1042700E0102775
:101A50005D495E4A886840F00200886004F0070330
:101A6000486840F0020048609DF80800019040017D
:101A7000855082180020166190809782200200F421
:101A8000E0601843D0800D9B514E5804400CD0822A
:101A9000D805C00DD083306820F08000306097609A
:101AA0000020D0600E985FEA806C54BF5B42002338
:101AB00093610A2393834FEA5A13DDF804C0DFF8D9
:101AC00014E103F1310242F080020CF80E204FF4D1
:101AD0000072D1F800C002FA03F343EA0C030B6072
:101AE0004FEA5A13DFF8F0C05CF823C04FF0010949
:101AF000DCF814B00AF01F0E09FA0EFE2BEA0E0EE7
:101B0000DFF8D8B0CCF814E00AF01F0E5BF82330F1
:101B1000CDF800E000F0030E800940EA0E40DDF849
:101B200000E040F4807043F82E00BAF101008041DB
:101B3000C043C00FDCF8143009FA00F023EA0000BB
:101B4000CCF814004FEA951A08680AF007039A4087
:101B5000104308601CB1022C07D003D308E000201A
:101B600028710AE00020A88007E00020686004E0F7
:101B700076210FF26C00FFF757FEA5F1100000F080
:101B80003F0000EBC701C9B2024688420DDA80006F
:101B90000AF007034FF4817404E05BF823504451CA
:101BA000521C001DD2B28A42F7DBF0689DF8081083
:101BB00009FA01F10843F060019804B0BDE8F04E65
:101BC000FFF7AFBBF00FF0BF38800440009000403B
:101BD0000080004000100240381EFF1F4C1EFF1FF7
:101BE000483A5C666972655F4B696E657469735CDF
:101BF0007372635C647269766572735C646D615C58
:101C0000646D612E6300000029480168490500D415
:101C1000704770B584B00168264C41F48061016062
:101C20002078002818BF022827D0234D2868632871
:101C300015D301210291C822C821019100210091F0
:101C400087231E4E1E4902FB00600A181D4904200E
:101C5000FFF7CAFE1C48016841F0100101602868C6
:101C6000401C2860DB2808D3002028601648016843
:101C700021F0100101600220207004B070BD1348F3
:101C80000168C9070BD5016841F00101016000211D
:101C9000094801600748017809B9012101707047BE
:101CA0000B48016841F0100101600420FFF768BB98
:101CB000A0C00440BC1EFF1F807CFF1FC01EFF1F72
:101CC000A8B2FFFFD0F00F400C800040A0D004402D
:101CD0002480004080B5FFF7DDFDFFF7F6FD0448E6
:101CE00001780FF21000BDE80440FFF772BA00005F
:101CF00004ED00E00A2A2A2A2A64656661756C747C
:101D00005F69737220656E7465726564206F6E2002
:101D1000766563746F722025642A2A2A2A2A0D0A9E
:101D20000A00000000F00F4040F00F4080F00F402C
:101D3000C0F00F4000F10F400090044000A00440AC
:101D400000B0044000C0044000D004400B1F00005D
:101D50000009000000A0064000B0064000C0064098
:101D600000D0064000A00E4000B00E4070B409063E
:101D700001F0706141EA0070094C25682668110580
:101D800001F470010843190401F47021084346F47A
:101D90007F06044926600860256070BC704700BF5C
:101DA00000F001404480044010B5074979441831DF
:101DB000064C7C44163404E00A68081D5118884714
:101DC0000146A142F8D110BD080000001400000037
:101DD0002BF5FFFFD45D0000BC1EFF1F00000000BC
:101DE00000F00BF8002801D0FFF7DEFF0020C0460E
:101DF000C046FFF7FFF900F002F80120704700F03D
:101E000001B800000746384600F002F8FBE7000082
:101E100080B5C046C046024A11001820ABBEFBE7A1
:101E200026000200C046C046C046C046FFF7D8FFA5
:081E300001460120FFF76ABC26
:040000051FFF1E2596
:00000001FF
