:020000041FFFDC
:10000000F8FF00201104FF1F4133FF1F4133FF1F82
:100010004133FF1F4133FF1F4133FF1F4133FF1F98
:100020004133FF1F4133FF1F4133FF1F4133FF1F88
:100030004133FF1F4133FF1F572AFF1F3F1DFF1F83
:100040004133FF1F4133FF1F4133FF1F4133FF1F68
:100050004133FF1F4133FF1F4133FF1F4133FF1F58
:100060004133FF1F4133FF1F4133FF1F4133FF1F48
:100070004133FF1F4133FF1F4133FF1F4133FF1F38
:10040000FFFFFFFFFFFFFFFFFFFFFFFFFEFFFFFFFD
:1004100062B64FF000004FF000014FF000024FF0C5
:1004200000034FF000044FF000054FF000064FF0BE
:1004300000074FF000084FF000094FF0000A4FF09E
:10044000000B4FF0000C00F001F8FEE710B582B091
:1004500000F0CAFB00F0E0FB00F016FC0FF2F02009
:1004600000F0B7FEB2480168B2484279521CB1FBB5
:10047000F2F200920279C078521CB1FBF2F3401CF8
:10048000B1FBF0F20FF2E82000F0A3FEAA4C2078B6
:10049000400744BF0FF2203000F09BFE2078800719
:1004A00044BF0FF2243000F094FE2078C00744BF10
:1004B0000FF2303000F08DFE6078000644BF0FF27E
:1004C000303000F086FE6078400644BF0FF23030D6
:1004D00000F07FFE6078800644BF0FF2383000F0F5
:1004E00078FE6078400744BF0FF2403000F071FEA4
:1004F0006078800744BF0FF24C3000F06AFE6078ED
:10050000C00744BF0FF2583000F063FE0FF25C30BA
:1005100000F05FFE89488A49884214BF0FF26C30B0
:100520000FF2743000F055FE00F004F800F0D9FE30
:10053000FEE7000010B5834C2068000900F00700BA
:1005400007281DD8DFE800F004070A0D101316195C
:100550000FF2503016E00FF2543013E00FF2543027
:1005600010E00FF258300DE00FF258300AE00FF2B1
:100570005C3007E00FF25C3004E00FF2603001E025
:100580000FF2603000F025FE206800F00F00801EA2
:100590000C2826D8DFE800F007250A0D10131619DD
:1005A0001C251F2522000FF264301CE00FF26C3076
:1005B00019E00FF2783016E00FF2803013E00FF2FE
:1005C0008C3010E00FF294300DE00FF2A0300AE012
:1005D0000FF2A83007E00FF2B43004E00FF2BC30A5
:1005E00001E00FF2C83000F0F4FD2068000B10F0BD
:1005F0000F0003D0022807D003D308E00FF2D83051
:1006000007E00FF2E83004E00FF2F43001E00FF2FF
:10061000044000F0DEFD00F057F8A06A000E00F084
:100620000F00072806D0092807D00B2818BF0F286D
:1006300006D008E00FF21C4007E00FF2304004E063
:100640000FF2404001E00FF2544000F0C2FDE06ABA
:10065000000248BF0FF2644014D4A06A000F06D015
:10066000072807D0092818BF0F2806D008E00FF286
:100670005C4007E00FF26C4004E00FF2804001E0C4
:100680000FF2904000F0A5FD2F480068000B00F02D
:100690000F00052806D0072807D0082808D0092809
:1006A00009D00BE00FF28C400AE00FF29C4007E00B
:1006B0000FF2A84004E00FF2B84001E00FF2C4408E
:1006C000BDE8104000F085BD10B5204C82B003207D
:1006D000E0710020A071607120710120E073802022
:1006E000207020780006FCD5E17AA27A637A207A1D
:1006F00000900FF2AC4000F06CFD0320E071002090
:10070000A0716071042020710120E07380202070AE
:1007100020780006FCD5E17AA27A637A207A0090EC
:100720000FF2A44000F055FDFF20207013BD000023
:100730000455FF1FB434FF1F00E007400000FF1FF7
:100740000000FF1F248004400070044000000240AD
:100750000A0A0909D2B0BBF06B696E65746973BA95
:10076000CBD0C4B0E5B2E2CAD4B3CCD0F20A000018
:10077000C4DABACBC6B5C2CAA3BA25644D487A0951
:10078000D7DCCFDFC6B5C2CA20A3BA25644D487AEC
:100790000A666C6578C6B5C2CAA3BA25644D487AA4
:1007A0002009666C617368C6B5C2CAA3BA25644DD8
:1007B000487A0A0A00000000536F66747761726518
:1007C0002052657365740A00436F7265204C6F6335
:1007D0006B7570204576656E742052657365740A7A
:1007E000000000004A5441472052657365740A00B6
:1007F000506F7765722D6F6E2052657365740A00B5
:1008000045787465726E616C2050696E2052657314
:1008100065740A005761746368646F6728434F50BA
:10082000292052657365740A000000004C6F7373D1
:10083000206F6620436C6F636B2052657365740A8A
:10084000000000004C6F772D766F6C746167652037
:100850004465746563742052657365740A00000012
:100860004C4C57552052657365740A000AD2B0BBD0
:10087000F04B696E65746973BFAAB7A2B0E5C6F4A0
:10088000B6AFB7BDCABDA3BA00000000666C617305
:1008900068C6F4B6AF0A00005352414DC6F4B6AF75
:1008A0000A0000000A4B31302D0000000A4B3230A4
:1008B0002D0000000A4B33302D0000000A4B34306D
:1008C0002D0000000A4B36302D0000000A4B373057
:1008D0002D0000000A4B35302D0000000A4B353347
:1008E0002D0000000A556E7265636F676E697A6548
:1008F00064204B696E657469732066616D696C79FB
:10090000206465766963652E0A00000033327069E1
:100910006E20202020202020000000003438706944
:100920006E20202020202020000000003634706936
:100930006E20202020202020000000003830706928
:100940006E20202020202020000000003831706917
:100950006E20202020202020000000003130307048
:10096000696E2020202020200000000031303470EB
:10097000696E2020202020200000000031343470D7
:10098000696E2020202020200000000031393670C0
:10099000696E2020202020200000000032353670B3
:1009A000696E202020202020000000000A556E7271
:1009B00065636F676E697A6564204B696E657469FB
:1009C00073207061636B61676520636F64652E20BF
:1009D000202020202000000053696C69636F6E2086
:1009E00072657620312E302020200A0053696C6910
:1009F000636F6E2072657620312E3120200A000050
:100A000053696C69636F6E2072657620312E3220D7
:100A1000200A00000A546869732076657273696F52
:100A20006E206F6620736F66747761726520646FE5
:100A300065736E2774207265636F676E697A6520CF
:100A4000746865207265766973696F6E20636F6480
:100A5000652E0000313238206B4279746573206F47
:100A60006620502D666C61736809000032353620AF
:100A70006B4279746573206F6620502D666C6173CC
:100A800068090000353132206B4279746573206F3C
:100A90006620502D666C6173680900004552522132
:100AA0002120556E646566696E656420502D666C04
:100AB0006173682073697A650A000000502D666CC6
:100AC000617368206F6E6C790A00000030206B4201
:100AD00079746573206F6620466C65784E564D0AB2
:100AE00000000000313238206B4279746573206F4A
:100AF0006620466C65784E564D0A00003235362029
:100B00006B4279746573206F6620466C65784E562B
:100B10004D0A0000455252212120556E64656669D8
:100B20006E656420466C65784E564D2073697A6513
:100B30000A0000003332206B4279746573206F66BF
:100B40002052414D0A0A00003634206B4279746508
:100B500073206F662052414D0A0A00003936206B1F
:100B60004279746573206F662052414D0A0A000075
:100B7000313238206B4279746573206F66205241A0
:100B80004D0A0A00455252212120556E646566695E
:100B90006E65642052414D2073697A650A0A00002F
:100BA000466C61736820706172616D657465722056
:100BB00076657273696F6E2025642E25642E256418
:100BC0002E25640A00000000466C6173682076657B
:100BD0007273696F6E2049442025642E25642E258A
:100BE000642E25640A00000080B500F007F808486C
:100BF00001884FF6FE721140018001BD054872B6B2
:100C00004CF2205101804DF62811018062B67047E8
:100C1000002005400E20054010B51149114C8C42B2
:100C200004D04FF48252204600F090FB204600F0A2
:100C3000C9FB0D490D48421A1CBF0D4800F076FB58
:100C40000C480D49091A18BF00F010FC0B490C485C
:100C5000421A04D0BDE810400A4800F067BB10BD3E
:100C60000000FF1F0000FF1FA030FF1F4033FF1FC9
:100C70005C34FF1F3837FF1F1055FF1F9033FF1FD5
:100C8000CC33FF1FFC36FF1F38B5164C164D606B7A
:100C900040F478506063C82000F0ECFB68604FF4CB
:100CA0007A7111FB00F02860216CC1F30361491CCB
:100CB000B0FBF1F0A8604FF4E061206840F4805090
:100CC00020600A4801604FF4A061E06B40F0010031
:100CD000E063074801604FF4E131BDE83440012092
:100CE00000F094BC048004400055FF1F189004409D
:100CF0000CB0044010B50C461168012902D002293D
:100D000004D008E05168C0B2884704E091680870D8
:100D10009068401C90602068401C206010BD30B47A
:100D2000002400F8014B002A096812D091B191FB10
:100D3000F3F203FB1211002946BFC94301F131054B
:100D400001F130051146641C00F8015B0029EED169
:100D500014E019B93021017001240FE0B1FBF3F266
:100D600003FB12110A2934BF01F1300501F13705E7
:100D70001146641C00F8015B0029EFD1204630BC0D
:100D80007047F8B507460C4615461E46A74214DACA
:100D90003068012808D0022809D1B06830210170DC
:100DA000B068401CB06002E0302071688847286855
:100DB000401C7F1C2860A742EADBF1BDF8B507465E
:100DC0000C4615461E46A74214DA3068012808D0A2
:100DD000022809D1B06820210170B068401CB060C1
:100DE00002E02020716888472868401C7F1C28602A
:100DF000A742EADBF1BD2DE9F04F8DB0054600209A
:100E0000934600900C4604E02A4600A9FFF772FFC3
:100E1000641C2078002800F0D881252826D00A28D4
:100E2000F2D12868012808D0022809D1A8680D212C
:100E30000170A868401CA86002E00D20696888471E
:100E40000098401C00902868012808D0022809D189
:100E5000A8680A210170A868401CA86002E00A2066
:100E6000696888470098401C0090D1E7002701E09E
:100E700047F0100714F8010F20280ED02328F7D0D0
:100E80002B2807D02D2802D0302809D00BE047F0BE
:100E90000107EFE747F00207ECE747F00407E9E74F
:100EA00047F00807E6E7611E4FF0000805E008EB91
:100EB000880200EB4200A0F1300811F8010FA0F108
:100EC0003002092AF3D92E2804D111F8010F303845
:100ED0000928FAD94C1E14F8010F4C2818BF6828AD
:100EE00002D06C2818BF641E14F8010F582867D070
:100EF000622800F00781632800F03781642818BF5A
:100F0000692811D06E2800F05B816F2800F0F58011
:100F1000702800F0FC80732800F02B81752800F009
:100F2000FB8078284CD06FE75BF8040B02900A2313
:100F3000012202A903A8FFF7F2FE824603A80AEBEA
:100F400000090298002848BF2D2606D4B80748BFDC
:100F50002B2602D4780703D520260AF1010A00E0E7
:100F60000026380708D5002E00F0E5802A4600A9A3
:100F70003046FFF7BFFEDEE0F8070CD42B4600AA90
:100F800041465046FFF71AFF002E00F0E4802A4643
:100F900000A93046E6E0002E00F0DD802868012838
:100FA00007D0022808D1A8680670A868401CA8606D
:100FB00002E03046696888470098401C0090CAE00B
:100FC00010235BF8040B0190002201A903A8FFF78E
:100FD000A6FE824603A80AEB0009002638072ED594
:100FE000F80624D52868012808D0022809D1A86865
:100FF00030210170A868401CA86002E030206968B8
:1010000088470098401C00902868012808D00228D2
:1010100009D1A86878210170A868401CA86002E086
:101020007820696888470098401C009001262B466C
:1010300000AA41465046FFF7A4FEC24632E0F80738
:1010400030D4F80648BF0AF1020A2B4600AA4146EE
:101050005046FFF7B3FEF80624D52868012808D0CB
:10106000022809D1A86830210170A868401CA86036
:1010700002E03020696888470098401C009028688A
:10108000012808D0022809D1A86878210170A86831
:10109000401CA86002E07820696888470098401CDE
:1010A00000900126F80656D5002E54D12868012854
:1010B00008D0022809D1A86830210170A868401C16
:1010C000A86002E03020696888470098401C0090C2
:1010D0002868012808D0022809D1A8687821017061
:1010E000A868401CA86002E07820696888470098DA
:1010F000401C00900AF1020A2DE05BF8040B0190FD
:1011000008230DE05BF8040B0190022308E05BF874
:10111000040B0190102303E05BF8040B01900A23F9
:10112000002201A903A8FFF7FAFD824603A80AEBF3
:101130000009380707D52B4600AA41465046FFF75D
:1011400020FEC24607E0F80705D42B4600AA414618
:101150005046FFF733FE99F8000038B319F801093B
:101160002A4600A9FFF7C6FDF5E75BF8040BC0B2FD
:101170004AE65BF8049BB9F1000F3FF449AE4846DC
:1011800000F0FAFA8246F8070CD42B4600AA414632
:101190005046FFF713FE05E019F8010B2A4600A997
:1011A000FFF7A8FD99F800000028F5D1F8077FF5B2
:1011B0002FAE2B4600AA41465046FFF7FFFD27E61B
:1011C0005BF8040B0099016022E600980DB0BDE8C1
:1011D000F08F0EB400B584B00121009105AA044936
:1011E0000191014600A8FFF706FE04B05DF810FB70
:1011F0005534FF1F70B5414C04F124050A262068C0
:10120000294600F073FB002167230022084600F006
:10121000EBFB6D1C761EF2D1EEE710B582B0374CB9
:10122000206800AA002100F0EFFA027800210020D7
:1012300000F0EEFC00221146C823084600F0D4FB63
:10124000EEE7F8B52D4C0521201D00F09FFA206037
:101250000FF2CC0504F118060A272068314600F089
:1012600045FB2A460321002000F09BFC00219E2321
:101270000022084600F0B8FB761C7F1EEDD1E9E79E
:1012800010B51F4800684FF47A71484300F066FDBE
:1012900000F0ABFE01F028F91A4C1B48072304F5B7
:1012A000FE72002101F07AF9062304F57F72002115
:1012B000164801F073F91648052304F2FC52002188
:1012C00001F06CF9134C01F037FB206840F001008D
:1012D000206000214FF4FA730022084600F084FBDE
:1012E000F1E780B500F06EFD02230B4A0B480021A8
:1012F00001F054F9BDE8014000F05EBE5C34FF1F10
:101300000455FF1F3839FF1FF511FF1F4312FF1F40
:101310001B12FF1F4CF00F403439FF1F8112FF1FBB
:101320004F5351506F7374656400000062B38B07B4
:1013300008D0521E11F8013B00F8013B00F0248058
:101340008B07F6D1830740F0208000BF103A07D307
:1013500030B4B1E83810103AA0E83810F9D230BCF7
:10136000530724BFB1E80810A0E8081044BF51F8A3
:10137000043B40F8043BD20724BF31F8022B20F88D
:10138000022B44BF0B7803707047083A07D3B1E8CB
:101390000810083A40F8043B40F804CBF7D2530752
:1013A000E4E750F8041B61B150F8042BD30744BFA5
:1013B000A9F101039A18002342F8043B091FFAD14E
:1013C000EFE7704718490860704710B504465C2C79
:1013D000A4BF0FF26000FFF7FCFE201104EBD06009
:1013E000401103D0022815D00AD310BD0121A4EB6F
:1013F000401001FA00F00D4908600D49086010BD69
:101400000121A4EB401001FA00F0084948600849A6
:10141000486010BD0121A4EB401001FA00F003491F
:1014200088600349886010BD08ED00E080E200E0BC
:1014300000E100E00A4552522120496E76616C6954
:1014400064204952512076616C7565207061737318
:10145000656420746F20656E61626C6520697271CD
:101460002066756E6374696F6E210A00002201F0B8
:101470006BBA000070B500287BD030281ED032280F
:1014800026D0602827D0642849D06E2826D0782816
:1014900027D07D2828D0822829D08C282AD09628A9
:1014A0002BD0A0282CD0AA282CD0B4282DD0C828E6
:1014B0002ED0E1282ED0FA282ED02FE0182100229D
:1014C0004E4C217062700021A170652829DA2CE051
:1014D00018210122F4E718211822F1E718211F2210
:1014E000EEE713211822EBE713211A22E8E7132174
:1014F0001C22E5E70E211222E2E70E211522DFE78A
:101500000E21EFE70E211B22DAE70E211E22D7E77C
:101510000C21EDE70B21F9E70A21E0E7642018210F
:10152000E3E7C928B4BF01210221E1701F28E17857
:101530002171B8BF00201BDB3D28B8BF012017DB9D
:101540005B28B8BF022013DB7928B8BF03200FDB6C
:101550009728B8BF04200BDBB528B8BF052007DBF0
:10156000D328B8BF062003DBF128B4BF072008202A
:1015700060713221214C224E6078183080B248438D
:101580002178491C89B290FBF1F5002070701D484C
:10159000016841F0805101601B48017841F08001F1
:1015A000017098203070B079C006FCD4B079C0F3D7
:1015B00081000228FAD1207800F01F00307100204D
:1015C000707163792279E178A07802F097F86078F9
:1015D00000F01F0040F040007071B0798006FCD52B
:1015E000B0794006FCD5307800F03F003070B0791B
:1015F000C0F381000328FAD1E8B270BDB434FF1FF4
:10160000004006403480044008C00740F8B5054655
:101610000C46052846D8DFE800F003121C26313BB3
:101620000FF22C163321304601F0BEF93E21304630
:1016300001F0BAF93F48C16841F480611CE03E48BE
:101640004FF44071016041603A48C16841F4006163
:1016500012E03A484FF44071416001603548C1687A
:1016600041F4805108E034484FF440714163816394
:101670003048C16841F40051C16013E030484FF474
:101680004071416401642B48016841F4806108E0C5
:101690002B484FF44071416001602648016841F4D5
:1016A000006101602749284651F82020D37803F0D3
:1016B000F303D370002351F8202093706A1E9241E7
:1016C000012808BF01234FF47A7553EAD27214BF80
:1016D0001D4A1E4A12686A4351F820502E78230191
:1016E000B2FBF3F427043F0E06F0E00607F01F07F5
:1016F0003E432E70520151F820506C70B2FBF3F251
:1017000051F82040A57A05F0E00502F01F022A43B7
:10171000A27251F82000C17841F00C01C170F1BDF6
:10172000084A52F8203093F804C05FEA0C6CFAD5EE
:10173000D9717047288004400CB0044008C00440B0
:1017400020D00440E436FF1F0055FF1F0855FF1F3F
:10175000483A5C666972655F4B696E657469735C73
:101760007372635C647269766572735C75617274BE
:101770005C756172742E6300002108B97047491CC2
:1017800010F8012B002AFAD1084670472DE9F041E4
:101790000446DFF8F0010078884600B1A3E001F0CC
:1017A00039F9DFF8E46131680F001CBF4968316026
:1017B00001F034F92FB301F02DF9DFF8D0110A68E8
:1017C000150018D012680A6001F028F96C6004EB6B
:1017D0008800A860EC602C61A5F814800020E882E5
:1017E00002203870002038817D603DA07861384645
:1017F00000F0E0FC05E031687960376001F00EF937
:1018000000273846BDE8F0812DE9F04106460F4635
:1018100030781446022818BF012008D159480078B2
:1018200008B1022003E05A48007808B10D2059E0C1
:1018300001F0F0F880467068C18A91B10269121D0A
:101840000261491E52F8046DC182826801699142A9
:1018500004BF41680161404601F0E0F800202070BB
:1018600039E04C4D286890F8341041F0040180F8BC
:1018700034100021286880F8351028680763304646
:1018800000F04CFC404601F0C9F800F0A3FC01F068
:10189000C1F80746286890F8351011B1022903D025
:1018A00005E0466A002007E000260E2004E03146ED
:1018B00000F058FC00260A2020700021286880F8DB
:1018C0003410286880F835102868C16101624162CF
:1018D000384601F0A3F83046BDE8F0810000000072
:1018E0003F00000020700020BDE8F08170B5064682
:1018F0000C463078022801D0012070BD01F08AF832
:101900000546B07A58B1002304222146304600F043
:10191000CFFB284601F082F800F05CFC15E070680F
:10192000C18A828A914200D311E0C268121DC2604E
:10193000491C42F8044DC1828268C168914204BFCB
:101940004168C160284601F069F8002070BD284652
:1019500001F064F81E2070BD10B50F4C60212046C8
:1019600000F033FC04F11800206004F13000A061A5
:1019700004F1480020630020A0640448046010BD06
:10198000000000003A3FFF1F503FFF1FC44DFF1FE4
:101990003B3FFF1F603FFF1FC84DFF1FF8B50446C8
:1019A0002D480078002802BF2C48007800281AD162
:1019B000CCB101F02FF82A492A4D096801F1300213
:1019C000137A577A5E5DBE435E5505D1264B927AF7
:1019D0001D7825EA02021A700C6301F01FF8BDE8B9
:1019E000F14000F0F7BBF1BDF8B51B4C24780CB109
:1019F0005520F2BD194C24780CB13220F2BDC1EB58
:101A000001164FF46165B1004FF47A7415FB0010B4
:101A100004FB03F150FA82F0B1FBF4F104FB001473
:101A2000BCB100F0F7FF0E490E4D096801F130021C
:101A3000137A577A5E5DBE435E5505D10A4B927AA2
:101A40001D7825EA02021A700C6300F0E7FF00F02F
:101A5000C1FB0020F2BD00003A3FFF1F3B3FFF1FCC
:101A6000603FFF1F443FFF1F3E3FFF1F704780B591
:101A7000012301220421022001F022F801231A4649
:101A80000621022001F01CF801231A460821022039
:101A900001F016F801231A460A21022001F010F87D
:101AA000BDE8005001231A460C21022001F008B8BD
:101AB00010B5FFF7DCFF544C206820F48050206004
:101AC000206840F480502060206820F4806020600E
:101AD000206840F480602060FFF7C8FF00212120CB
:101AE00000F06CF80021C02000F068F80021072009
:101AF00000F064F80021132000F060F8002120209D
:101B000000F05CF800F009F800210C2000F056F815
:101B1000206820F48060206010BD10B500210C20EA
:101B200000F04CF80021802000F048F84FF4FC74DD
:101B30000121002000F042F8641EF9D1BDE81040F8
:101B40000021002010B504460846002140F0400066
:101B500000F034F844F08000BDE8104000212DE092
:101B6000203810B5C0B200EB40014800274A841865
:101B7000805C012100F022F86078012100F01EF85D
:101B8000A078012100F01AF8E078012100F016F8A1
:101B90002079012100F012F86079BDE810400121A0
:101BA0000CE010B51446FFF7CDFF03E014F8010B6D
:101BB000FFF7D6FF20780028F8D110BD0029124A7F
:101BC000136823F48063136011680CBF21F48071E3
:101BD00041F4807111600821030613684CBF43F083
:101BE000400323F0400313604000136823F0100308
:101BF0001360491E136843F010031360ECD11068A2
:101C000040F480601060704780F00F40BC34FF1FCC
:101C10001CB51446FFF796FF00200A2194FBF1F152
:101C200001EB8103A4EB4302434200AC1B193032A9
:101C3000401C5A710C460628EFDB9DF8000000ACF2
:101C4000FFF78EFF6078FFF78BFF9DF80200FFF72C
:101C500087FF9DF80300FFF783FF9DF80400FFF75F
:101C60007FFF6079FFF77CFF13BD000010B5444C87
:101C70004FF4007104F1080000F06CFF04F50170EE
:101C800060600020208010BD704700F066BF00F04B
:101C900065BF00F064BF00F064BF00F061BF4FF0AB
:101CA000807342F804391060101F364A40F8042946
:101CB0004FF0123240F804294FF0033240F8042963
:101CC0004FF0023240F804294FF0013240F8042965
:101CD00040F804194FF0113140F804194FF0103159
:101CE00040F804194FF0093140F804194FF0083159
:101CF00040F804194FF0073140F804194FF006314D
:101D000040F804194FF0053140F804194FF0043140
:101D10000160704700F026BF00F025BF80B500F0DD
:101D200023FF17480188491C018089B2642905D323
:101D300000210180BDE8014000F018BF01BD80B561
:101D400000F068FE10490A78521C0A7000F066FE26
:101D500000F064F9BDE8014000F0D4B80B49401E22
:101D600048600B4802681202120A0260086840F0DC
:101D700005000860086840F0020008607047000035
:101D8000F852FF1FFD28FF1F3A3FFF1F10E000E041
:101D900020ED00E070B50546DFF8240680780E4699
:101DA000144608B112200BE02878401E032806D8FC
:101DB00000F030FE6E6100F031FE002000E00120F6
:101DC000207070BD30B587B0FFF750FFDFF8F045E9
:101DD0000020A063A070E0702072E071606160621A
:101DE0002062E0616070A071082104F10C00FFF72F
:101DF0003DFB0020207160712063A0624FF4F2610E
:101E000004F22C50FFF732FB4FF48071DFF8B40579
:101E100000F0A0FE04F22C5100200A46BEA502F1FB
:101E2000580353611565401C58321528F7D35822C2
:101E300002FB004000F22C50002242610565E16285
:101E40006263F02104F13C00FFF710FB002004F175
:101E50003C0100220A70401C01F118024A604D61E9
:101E600018310928F5D300EB400104EBC100002133
:101E700000F83C1F4160456104F13C00A06100F0A6
:101E800069FF00F099FFFFF767FD032004903F23EF
:101E90000020039004F5A56280200290002104F543
:101EA0004B7001904FF6FF7000900FF2753000F00C
:101EB000BAFB0FF214510DF115023F2000F092FC15
:101EC000032004903E230020039004F54A728020F2
:101ED0000290002104F5967001904FF6FE7000907C
:101EE0000FF2553000F09FFB0FF2EC4105AA3E20A7
:101EF00000F078FC00F03EFEFFF7C6FE00F080FF29
:101F000007B030BD38B5DFF8B844E07901282AD1F0
:101F100000F080FD0546A07808B1401EA070A078B2
:101F2000E17808431AD1A1790FF2BC40095CCA00DC
:101F30000919097B085CDFF88C141018607160794E
:101F400051F8201022792163904207D0C86B401CC1
:101F5000C8636069401C606100F079FD2846BDE8F7
:101F6000324000F05BBD31BD10B5DFF85444E0797C
:101F7000012809D100F04EFDA17821B9E178FF29AF
:101F80001CBF491CE17045E010BD10B5DFF83044BE
:101F9000E07901280FD100F03DFDA17851B9E17839
:101FA00041B1491EE170C9B221B900F037FDBDE869
:101FB00010400FE12EE010BDDFF80404C17999B99B
:101FC00082790FF22441525CD3001218127B515CCB
:101FD000DFF8F023591841714179017152F821104D
:101FE0000163816200F01DBD704710B50220FFF74C
:101FF000D5FC00F00FFDDFF8C8430021616200F05E
:102000000DFD6420FFF7CAFC00F004FD616AE16188
:1020100001216170BDE8104000F000BD70B5FFF710
:102020007DFE00F0F7FCDFF89843A16B491CA1632B
:1020300000F0F4FCE079012838D1607A38B1022848
:1020400001D033D301E0012000E000206072656B15
:1020500011E0717095F83410090709D4A179B279AB
:102060001143A1713179737909190A7B1A430A73F3
:102070006D6900F0D3FC05F13406B0783F2815D027
:1020800000F0C8FC05F11401CA69002AF0D0521E04
:10209000CA61EDD1372295F8341011421DBF01F00D
:1020A000C80185F8341001210021D2E770BD7047C6
:1020B000F8B504460FF23035A07AC24E405D0719DC
:1020C0004FF0000CFF7A7D5D05EBC005EDB256F8D0
:1020D000256006F11C07C7F814C0B960397E91432A
:1020E00039767B76397E090709D4B549BB7F8A7971
:1020F0001A438A7140187A7F017B1143017321468C
:10210000304600F02FF8796819B1304600F03BF8FE
:10211000F4612846F2BD00003F000000A8498A6A29
:10212000D0611C32137F527F1B1893F80BC042EA18
:102130000C02DA728B6A827A93F83A301A4382720E
:10214000886A90F838203830521890F801C0137B14
:1021500033EA0C03137304D18A79807822EA0000F1
:102160008871704790F8382052183830D37A90F838
:1021700001C033EA0C03D37204D18A7A807822EA50
:1021800000008872704770B490F838200C683830BE
:1021900083784078DB4309E01519EE7A8643EE72C6
:1021A00002D1A57A1D40A57251F8044F002CF3D13D
:1021B00070BC704700218172C172017341738173D9
:1021C000C1730174417481747047002918BFFFF70F
:1021D0004DB9704710B500F01DFC04467848817871
:1021E000C278114319D182790FF2FC11525CD300ED
:1021F0001218127B515C734A59184171417952F897
:10220000212003790263994207D0D16B491CD16325
:102210004169491C416100F016FC2046FAE60000C5
:1022200080B500F0F7FB66494A6A521C4A6200F02A
:10223000F5FBFFF72EFDF4E710B5614C02E0C82076
:10224000FFF7ACFB60780028F9D0E0696421B0FBAF
:10225000F1F0E06118B92070FF2000F012FB00F0EF
:10226000D9FBE16964225143616200F0D7FB00F0C1
:10227000D1FB616A21620021616200F0CFFB206A1C
:10228000E169B0FBF1F0C0F164002070FFF705FDDB
:1022900000F004F86420FFF781FBE8E730B583B075
:1022A0000024484D00A9204600F0BEFA58B928681D
:1022B000002818BF012806D0C168826802EB81019E
:1022C00081640199C164641C2D1D402CEAD303B0C4
:1022D00030BD2DE9F8430446894690461F4600F07C
:1022E00099FB374DEE6A002E63D07169E96200F008
:1022F00095FBC6F8009086F83640002086F834003A
:1023000086F83500306304F00701099870600122F7
:102310000898F060C6F808800A983082778200201A
:1023200086F83B00E00886F8380086F8371002FA95
:1023300000F086F83A0002FA01F086F83900002031
:10234000F0613062B0627062F06370643064B064F7
:10235000F0641AA03065002070653046FFF7DCFCA1
:1023600000F058FB174941F8246000F057FB304655
:10237000FFF78BFC00F04EFB696B71610021B161CE
:10238000696B01B18E61A9796E6396F83A201143A9
:10239000A97196F8381096F8393049190A7B1A4312
:1023A0000A73297A491C297200F038FB0020BDE825
:1023B000F28300F033FB4220BDE8F2833F000000CF
:1023C000383FFF1F484CFF1F75432F4F532D49497E
:1023D0002049646C6500000075432F4F532D494917
:1023E000205374617400000000000100020001002D
:1023F00003000100020001000400010002000100CE
:1024000003000100020001000500010002000100BC
:1024100003000100020001000400010002000100AD
:10242000030001000200010006000100020001009B
:10243000030001000200010004000100020001008D
:10244000030001000200010005000100020001007C
:10245000030001000200010004000100020001006D
:10246000030001000200010007000100020001005A
:10247000030001000200010004000100020001004D
:10248000030001000200010005000100020001003C
:10249000030001000200010004000100020001002D
:1024A000030001000200010006000100020001001B
:1024B000030001000200010004000100020001000D
:1024C00003000100020001000500010002000100FC
:1024D00003000100020001000400010002000100ED
:1024E000030001000200010080B5012301220E213A
:1024F000002000F0E5FA01231A460F21002000F029
:10250000DFFA01231A461021002000F0D9FA012336
:102510001A461121002000F0D3FA01231A460E2199
:10252000002000F0CDFA01231A460F21002000F010
:10253000C7FA01231A461021002000F0C1FA012336
:102540001A461121002000F0BBFA01231A4600218F
:10255000104600F0B5FA002302211A46084600F0A2
:10256000AFFAFFF7A5FA0C48016821F48041016039
:102570000922016821F400410160016821F48031E1
:102580000160016821F4003101600021BDE80840CC
:10259000042000F037BC000000F00F402DE9F043AC
:1025A00083B004460D4616461F4600F033FADFF8A6
:1025B0007413097819B100F031FA3C2030E0DFF8EB
:1025C0005093B84659F8281039BB012149F8281012
:1025D00000F024FA0023324629462046FFF75FFB2D
:1025E00001460020029001900090024600233846E8
:1025F000FFF76FFE040007D1DFF8240300780128FD
:1026000009D1FFF7E7FD06E000F004FA002149F8E0
:10261000281000F003FA204602E000F0FFF928201D
:1026200003B0BDE8F0832DE9F14F84B08B469046AE
:10263000994600F0EFF9DFF8EC12097819B100F0D3
:10264000EDF93C203DE0DFF8C8A24D465AF82510D0
:10265000A1BB01214AF8251000F0E0F9129C0F9E61
:10266000109F04F00300032804D11FB1B9003046C5
:1026700000F070FA0498A3B242465946FFF70FFBE8
:10268000014611980190A4B20294009732460E9B25
:102690004846FFF71EFE040007D1DFF884020078E9
:1026A000012809D1FFF796FD06E000F0B3F90021FB
:1026B0004AF8251000F0B2F9204602E000F0AEF929
:1026C000282005B0BDE8F08F2DE9F0410546DFF880
:1026D0005402007810B14020BDE8F0813F2D08BFC2
:1026E0003E207DD000F096F90446FF2D04D1DFF89E
:1026F0002402006890F83650DFF8148258F82570EC
:102700002FB9204600F08AF94320BDE8F081012F5F
:1027100005D1204600F082F93D20BDE8F08197F810
:102720003800DFF8F41197F83930425C9A4342548C
:1027300097F83800405C30B9DFF8E00197F83A20AC
:10274000017891430170F96911B13846FFF70AFD2C
:10275000396A11B13846FFF716FDB86A08B100F0C2
:102760001BFB0020386387F8340087F83500DFF85A
:10277000B8613078FF281CBF401C3070204600F044
:102780004DF9FFF794FC00F045F90446307808B1A4
:10279000401E30703846FFF77AFA64480178491EC7
:1027A0000170002048F82500B969786921B9816174
:1027B00078695F49086003E048617869B9698161B7
:1027C0005C480168796107604BA03865204600F0DD
:1027D00025F953480078012808BFFFF7FBFC0020CB
:1027E000BDE8F08170B506464E4800780D461446A7
:1027F00008B1122016E000F00DF9FF2E03D1454973
:10280000096891F83660424951F82610002918BF2E
:10281000012903D100F002F9432003E00D6500F027
:10282000FDF80020207070BDF8B505460C4600206C
:102830002060606000F0EEF8FF2D03D13549096893
:1028400091F83650324951F82510002918BF012956
:1028500000D14DE00A7CD20703D400F0DFF8452018
:10286000F2BDCE688F68002500F0D8F800E06D1C3E
:1028700057F8040B0028FAD02560701B6060002018
:10288000F2BDF8B5054600F0C5F82249096891F88F
:102890003610FF2D0CBF0D468D4201D1012400E002
:1028A00000241B4951F8251019B900F0B7F8482049
:1028B000F2BD012900D11BE0174D01F1340213795B
:1028C00057795E5DBE435E5505D1144B92791D78F4
:1028D00025EA02021A7091F8342042F0080281F8C9
:1028E000342000F09BF80CB1FFF774FC0020F2BD1F
:1028F00000F094F84320F2BD3F00000080B5054889
:102900000068FFF7C8F9BDE80240FF20DCE60000E0
:10291000484CFF1F603FFF1F443FFF1F3E3FFF1F0C
:102920003F3FFF1F3A3FFF1F3B3FFF1F403FFF1F3F
:102930006C3FFF1F643FFF1F0248016841F40031F4
:10294000016070470CF00F40401810F0030308D0EE
:10295000C91A1FD3DB0748BF00F8012D28BF20F894
:10296000022D130030B414461546103928BF20E953
:102970003C00FAD8490728BF20E90C0048BF40F8BE
:10298000042D890028BF20F8022D48BF00F8012D32
:1029900030BC7047C91818BF00F8012DCB0728BFFD
:1029A00000F8012D7047000070B504460D4600F098
:1029B00051FA0FF214062A4621463046FEF709FC6A
:1029C00000F063FAF7E70000B6CFD1D4B7A2C9FA96
:1029D000D4DA2573CEC4BCFEB5C4B5DA2564D0D034
:1029E000A3A10AB6CFD1D4CCF5BCFEB2BBB3C9C14A
:1029F000A2A3ACC7EBBCECB2E2B4EDCEF3D4ADD243
:102A0000F2A1A309A1AAA1AA20627920D2B0BBF0A9
:102A10000A0A0000EFF3108072B6704780F3108846
:102A200070471D48FF210170002080F309881B4872
:102A3000016881F308881A480121017019481A4970
:102A4000016062B6FEE717481749016070471548F4
:102A500015490160704772B6EFF3098028B120383C
:102A600080E8F00F11490968086000B510488047F8
:102A70005DF804EB0F4810490A7802700B480F49C3
:102A80000A680260106890E8F00F203080F309882F
:102A90004EF0040E62B6704722ED00E0FC52FF1FBC
:102AA0003F3FFF1F04ED00E000000010603FFF1FEC
:102AB000151DFF1F3C3FFF1F3D3FFF1F683FFF1FCE
:102AC000F8B50D46074616461C46202D38BF022C89
:102AD00004D324210FF25400FFF766FF124800EBE5
:102AE00087014FF48072496941F82520F10703D529
:102AF000032E18BF132E07D150F827004169012279
:102B0000AA4091434161F1BD012150F8270042697B
:102B1000A9400A434261012C02680CBF114322EA1A
:102B200001010160F1BD00008C34FF1F483A5C6672
:102B30006972655F4B696E657469735C7372635C1F
:102B4000647269766572735C6770696F5C677069DF
:102B50006F2E6300002200F0D1B9704770477047B4
:102B600070477047704770477047000067480068BB
:102B700000F061BA30B5664C87B04FF42071204642
:102B8000FFF723FB40216048FFF71FFB0020214691
:102B900058A264230B70401C002381F8253001F1FA
:102BA0002803CB600A6228310F28F2D300EB8001A2
:102BB00004EBC10064210170002180F82510C16080
:102BC0000262504801604D48018010214C4801804C
:102BD0004948046001204F4C00F0AAF94B4D206099
:102BE000002000F0A5F9286005AA20680FF22C113A
:102BF000FFF7D0F828680FF2381105AAFFF7CAF8D6
:102C00000321049100210391802102914FF6FD716F
:102C100041480190009100F5FE723D2300210FF222
:102C20001900FFF700FD0FF21C110DF115023D20F8
:102C3000FFF7D8FD07B030BDF8B5334D314E334FF7
:102C400001E0FFF7A2F900AA3868002100F08EF930
:102C5000FFF78AF93068401C306000F0070055F833
:102C60003000002808E0022180F825104268110099
:102C70001CBF816890472000E3D0C2684169336877
:102C800014468B42F7D101F0070105EBC1010B6837
:102C9000834205D113000B6006D000221A6103E0C5
:102CA0000369DA6002B11361012280F82520002255
:102CB000C26002618A88521E8A8090F8241002291C
:102CC000D1D1032180F825103268C16951184161C2
:102CD00001F0070105EBC1010B688A88002B0FBFCB
:102CE0000122C3601861521C8A80086000210161C2
:102CF000BCE700003F000000B450FF1F0E55FF1F4F
:102D00000C55FF1F284EFF1FB852FF1F304EFF1FEC
:102D1000344EFF1F2C4EFF1FB850FF1F75432F4F1F
:102D2000532D494920546D724C6F636B00000000B5
:102D300075432F4F532D494920546D725369676E67
:102D4000616C000075432F4F532D494920546D721B
:102D50000000000010B50F4C50212046FFF735FA57
:102D60000020214609A200230B70401C01F1100332
:102D70004B60CA6010310428F5D304EB0010002129
:102D800001704160C2600248046010BD3F00000055
:102D9000444CFF1FF44BFF1F4168026821B9C16812
:102DA0004A6022B1002101E00A6002B151600021B5
:102DB000806881627047000010B5104C7821204671
:102DC000FFF703FA04F1180161600AA004F1300171
:102DD000E161606104F148016163E062606404F1F3
:102DE0006001E0656067E16400210348616604609A
:102DF00010BD00003F000000484DFF1F4C4DFF1F5D
:102E0000704700003CB4104B1C684FF400758540BF
:102E10002C431C6014040D4B53F8203004F4702430
:102E200044EAD21242F4817243F821200124084A74
:102E300052F82020536904FA01F123EA010151619B
:102E4000573036BCFEF7C1BA38800440A034FF1FAB
:102E50008C34FF1F80B5012301220E210020FFF7D3
:102E60002FFE01231A460F210020FFF729FE012320
:102E70001A4610210020FFF723FEBDE80050012371
:102E80001A4611210020FFF71BBE2DE9F041012356
:102E900001220E210020FFF713FE01231A460F2105
:102EA0000020FFF70DFE01231A4610210020FFF736
:102EB00007FE01231A4611210020FFF701FE0E2410
:102EC0004FF000080C4E012000FA04F7306801684A
:102ED000FD43294008FA04F211430160642000F028
:102EE000D3F83068016829403943641C0160122C12
:102EF000E9DBBDE8F08100008C34FF1F00B500BFA6
:102F0000130096469446103928BFA0E80C50FAD812
:102F10005FEA417C28BF0CC048BF40F8042BC907BA
:102F200028BF20F8022B48BF00F8012B00BD00008D
:102F300038B504463A48007808B1002032BDFFF7A2
:102F400069FD38490A6815001CBF52680A60FFF71E
:102F500065FD4DB1032028702C81002068602FA0F2
:102F600068612846FFF726F9284632BD2DE9F04171
:102F700005460E4628781446032818BF012014D1B0
:102F80002748007808B102200FE02748007808B1F0
:102F90000D200AE0FFF73EFD8046288930B1401E33
:102FA00028814046FFF73AFD002041E01F4F386876
:102FB00090F8341041F0010180F834100021386895
:102FC00080F83510386806632846FFF7A7F84046B2
:102FD000FFF724FDFFF7FEF8FFF71CFD06463868F3
:102FE00090F8351011B1022902D003E0002005E06D
:102FF0000E2003E02946FFF7B5F80A2020700021D3
:10300000386880F83410386880F835103868C16145
:1030100001623046BDE8F041FFF700BD3F0000000F
:103020003A3FFF1F503FFF1F3B3FFF1F603FFF1F07
:103030002070BDE8F08138B504462078032801D01F
:10304000012032BDFFF7E6FC0546A07A58B1002307
:10305000012200212046FFF72BF82846FFF7DEFC6F
:10306000FFF7B8F809E020894FF6FF71884206D0D3
:10307000401C20812846FFF7D1FC002032BD2846A5
:10308000FFF7CCFC332032BD38B10449096811B1D7
:1030900000BF491EFCD1401EF7D170470855FF1FE5
:1030A0000000000000000000000000000000000020
:1030B00000000000000000000102030405060708EC
:1030C000090000000B0C0D0E0F101112130A000066
:1030D00000F00F4040F00F4080F00F40C0F00F4074
:1030E00000F10F400090044000A0044000B00440F4
:1030F00000C0044000D004400B1F00000009000085
:103100000000000000000000002F00000000070089
:10311000070000147F147F1400242A7F2A12006203
:1031200064081323003649552250000005030000AF
:1031300000001C224100000041221C000014083E37
:1031400008140008083E0808000000A060000008FD
:103150000808080800006060000000201008040251
:10316000003E5149453E0000427F4000004261510F
:103170004946002141454B31001814127F100027A9
:1031800045454539003C4A4949300001710905036C
:1031900000364949493600064949291E000036369D
:1031A0000000000056360000000814224100001400
:1031B00014141414000041221408000201510906DD
:1031C00000324959513E007C1211127C007F49495E
:1031D0004936003E41414122007F4141221C007F8F
:1031E00049494941007F09090901003E4149497A9D
:1031F000007F0808087F0000417F41000020404117
:103200003F01007F08142241007F40404040007F82
:10321000020C027F007F0408107F003E4141413EC6
:10322000007F09090906003E4151215E007F09190E
:1032300029460046494949310001017F0101003F0B
:103240004040403F001F2040201F003F4038403F8B
:1032500000631408146300070870080700615149EF
:10326000454300007F41410000552A552A55000082
:1032700041417F0000040201020400404040404000
:10328000000001020400002054545478007F484498
:10329000443800384444442000384444487F0038CF
:1032A0005454541800087E0901020018A4A4A47CF8
:1032B000007F080404780000447D400000408084C2
:1032C0007D00007F102844000000417F4000007C0A
:1032D00004180478007C0804047800384444443816
:1032E00000FC242424180018242418FC007C080462
:1032F000040800485454542000043F444020003C3B
:103300004040207C001C2040201C003C4030403CC1
:10331000004428102844001CA0A0A07C0044645451
:103320004C4414141414141400A0064000B00640B9
:1033300000C0064000D0064000A00E4000B00E4085
:1033400080B5FFF787FDFFF7A0FD044801780FF275
:103350001000BDE80440FDF73CBF000004ED00E0B4
:103360000A2A2A2A2A64656661756C745F69737219
:1033700020656E7465726564206F6E207665637477
:103380006F722025642A2A2A2A2A0D0A0A000000C0
:1033900070B4090601F0706141EA0070094C2568BB
:1033A0002668110501F470010843190401F4702125
:1033B000084346F47F06044926600860256070BC17
:1033C000704700BF00F001404480044010B5074939
:1033D00079441831064C7C44163404E00A68081D10
:1033E000511888470146A142F8D110BD08000000DD
:1033F00014000000AFDFFFFFD81D00003837FF1FAB
:103400000000000000F00BF8002801D0FFF7DEFFFD
:103410000020C046C046FDF764FF00F002F801201E
:10342000704700F001B800000746384600F002F887
:10343000FBE7000080B5C046C046024A11001820D4
:10344000ABBEFBE726000200C046C046C046C046F1
:0C345000FFF7D8FF01460120FEF762B92B
:040000051FFF34495C
:00000001FF
