:020000041FFFDC
:10000000F8FF00201104FF1FC91CFF1F8D18FF1FE0
:10001000C91CFF1FC91CFF1FC91CFF1FC91CFF1FD4
:10002000C91CFF1FC91CFF1FC91CFF1FC91CFF1FC4
:10003000C91CFF1FC91CFF1F9718FF1F8B18FF1F2C
:10004000C91CFF1FC91CFF1FC91CFF1FC91CFF1FA4
:10005000C91CFF1FC91CFF1FC91CFF1FC91CFF1F94
:10006000C91CFF1FC91CFF1FC91CFF1FC91CFF1F84
:10007000C91CFF1FC91CFF1FC91CFF1FC91CFF1F74
:10008000C91CFF1FC91CFF1FC91CFF1FC91CFF1F64
:10009000C91CFF1FC91CFF1FC91CFF1FC91CFF1F54
:1000A000C91CFF1FC91CFF1FC91CFF1FC91CFF1F44
:1000B000C91CFF1FC91CFF1FC91CFF1FC91CFF1F34
:1000C000C91CFF1FC91CFF1FC91CFF1FC91CFF1F24
:1000D000C91CFF1FC91CFF1FC91CFF1FC91CFF1F14
:1000E000C91CFF1FC91CFF1FC91CFF1FC91CFF1F04
:1000F000C91CFF1FC91CFF1FC91CFF1F6918FF1F58
:10010000C91CFF1FC91CFF1FC91CFF1FC91CFF1FE3
:10011000C91CFF1FC91CFF1FC91CFF1FC91CFF1FD3
:10012000C91CFF1FC91CFF1FC91CFF1FC91CFF1FC3
:10013000C91CFF1FC91CFF1FC91CFF1FC91CFF1FB3
:10014000C91CFF1FC91CFF1FC91CFF1FC91CFF1FA3
:10015000C91CFF1FC91CFF1FC91CFF1FC91CFF1F93
:10016000C91CFF1FC91CFF1FC91CFF1FC91CFF1F83
:10017000C91CFF1FC91CFF1FC91CFF1FC91CFF1F73
:10018000C91CFF1FC91CFF1FC91CFF1FC91CFF1F63
:10019000C91CFF1FC91CFF1FC91CFF1F9918FF1F87
:1001A000E118FF1FC91CFF1FC91CFF1FC91CFF1F2F
:1001B000C91CFF1FC91CFF1FC91CFF1FC91CFF1F33
:1001C000C91CFF1FC91CFF1FC91CFF1FC91CFF1F23
:1001D000C91CFF1FC91CFF1FC91CFF1FC91CFF1F13
:1001E000C91CFF1FC91CFF1FC91CFF1FC91CFF1F03
:10040000FFFFFFFFFFFFFFFFFFFFFFFFFEFFFFFFFD
:1004100062B64FF000004FF000014FF000024FF0C5
:1004200000034FF000044FF000054FF000064FF0BE
:1004300000074FF000084FF000094FF0000A4FF09E
:10044000000B4FF0000C00F0BFFAFEE770B504009F
:100450000D0016003068012802D0022805D00AE0FD
:100460002000C0B27168884705E0B0680470B068C9
:10047000401CB060FFE72868401C286070BD2DE973
:10048000F04704005FF0000A5046A1465FF0000A02
:1004900089F800A019F10109002A1FD0D1F800A0A5
:1004A0005546002D05D15FF0300A89F800A0401CA8
:1004B00038E0002D36D095FBF3FA564603FB165A6A
:1004C0005746002F02D5FF43313700E03037350063
:1004D00089F8007019F10109401CEAE7D1F800A081
:1004E000D446BCF1000F05D15FF0300A89F800A0B6
:1004F000401C17E0BCF1000F14D0BCFBF3FAD64649
:1005000003FB1ECAD046B8F10A0F02D218F1300818
:1005100001E018F13708F44689F8008019F1010963
:10052000401CE7E7BDE8F0872DE9F04104000D002D
:1005300016001F00A046A84507DA3A003100302017
:10054000FFF784FF18F10108F5E7BDE8F0812DE918
:10055000F04104000D0016001F00A046A84507DA70
:100560003A0031002020FFF771FF18F10108F5E78C
:10057000BDE8F0812DE9F24F92B004001500002093
:100580000090129883469BF800000590002800F028
:10059000F2810598252813D005980A2805D0220055
:1005A00000A90598FFF752FF09E0220000A90D20DD
:1005B000FFF74CFF220000A90A20FFF747FFD7E111
:1005C00000208146002003900398002822D11BF1CF
:1005D000010B9BF8000020280ED0232812D02B28D6
:1005E00007D02D2802D0302809D00EE059F001099B
:1005F000EAE759F00209E7E759F00409E4E759F09E
:100600000809E1E759F01009DEE7BBF1010B012011
:100610000390D9E700208246002003900398002829
:1006200013D11BF1010B9BF800000590303809280D
:1006300006D80A20059900FB0A10B0F1300AEDE750
:10064000BBF1010B01200390E8E71BF1010B9BF8C4
:1006500000002E2811D100200390039800280ED10D
:100660001BF1010B9BF800003038092800D8F4E793
:10067000BBF1010B01200390EFE7BBF1010B1BF174
:10068000010B9BF800004C2806D0682802D06C288B
:1006900001D002E003E002E001E0BBF1010B1BF13D
:1006A000010B9BF800000590582875D0622800F0D7
:1006B000D580632800F01D81642813D0692811D0EB
:1006C0006E2800F049816F2800F0BD80702800F08E
:1006D000D080732800F01681752800F0D580782826
:1006E0005AD040E1286806902D1D0A23012206A950
:1006F00009A8FFF7C4FE070009A8381806000698E5
:10070000002803D52D2002907F1C0FE0484680076B
:1007100003D52B2002907F1C08E04846400703D5F4
:10072000202002907F1C01E0002002900020049015
:100730004846000711D50298002804D0220000A9DD
:100740000298FFF783FE01200490230000AA51467F
:100750003800FFF7E9FE574612E04846C0070FD4BD
:10076000230000AA51463800FFF7F1FE0298002846
:1007700004D0220000A90298FFF768FE012004902F
:100780000498002807D10298002804D0220000A96C
:100790000298FFF75BFE98E0286801902D1D10235A
:1007A000002201A909A8FFF76AFE070009A8381866
:1007B0000600002004904846000716D54846C006AB
:1007C0000BD5220000A93020FFF740FE220000A92F
:1007D0007820FFF73BFE01200490230000AA514639
:1007E0003800FFF7A1FE57461BE04846C00718D463
:1007F0004846C00600D5BF1C230000AA5146380059
:10080000FFF7A5FE4846C0060BD5220000A9302000
:10081000FFF71CFE220000A97820FFF717FE012039
:1008200004904846C0060DD5049800280AD122003D
:1008300000A93020FFF70AFE220000A97820FFF768
:1008400005FEBF1C41E0286801902D1D08230022F1
:1008500001A909A8FFF713FE07001FE0286801900F
:100860002D1D0223002201A909A8FFF708FE070099
:1008700014E0286801902D1D1023002201A909A869
:10088000FFF7FDFD070009E0286801902D1D0A23F0
:10089000002201A909A8FFF7F2FD070009A83818EE
:1008A00006004846000707D5230000AA5146380035
:1008B000FFF73AFE574608E04846C00705D4230034
:1008C00000AA51463800FFF742FE3078002806D0D3
:1008D000220000A93078FFF7B9FD761EF5E74846FB
:1008E000C00705D5230000AA51463800FFF72FFEA8
:1008F0003EE0287807902D1D220000A90798FFF7F9
:10090000A5FD35E0286880462D1DB8F1000F22D0E6
:10091000404600F049F807004846C00705D42300C8
:1009200000AA51463800FFF712FE98F80000002890
:1009300008D0220000A998F80000FFF787FD18F101
:100940000108F2E74846C00705D5230000AA514632
:100950003800FFF7FCFD0BE0286808902D1D089873
:100960000099016004E0220000A90598FFF76EFDE0
:100970001BF1010B07E6009813B0BDE8F08F0EB431
:100980007EB50400012000900648019007A80500EC
:100990002A00210000A8FFF7EDFD060030007EBC14
:1009A0005DF810FBC11FFF1F01000A000023002A91
:1009B00001D1002007E01000421C0078002801D07F
:1009C0005B1CF8E71800704780B500F08DFA00F066
:1009D000A7FA00F005FBDFF8E803FFF7D0FFDFF828
:1009E000E4030068DFF8E0134979491CB0FBF1F03B
:1009F0000090DFF8D0030068DFF8CC130979491CB8
:100A0000B0FBF1F3DFF8BC030068DFF8BC13C97872
:100A1000491CB0FBF1F2DFF8AC030168DFF8AC036E
:100A2000FFF7ADFFDFF8A8030078400703D5DFF834
:100A3000A403FFF7A4FFDFF898030078800703D52D
:100A4000DFF89403FFF79BFFDFF884030078C0070B
:100A500003D5DFF88803FFF792FFDFF884030078FF
:100A6000000603D5DFF87C03FFF789FFDFF870038A
:100A70000078400603D5DFF87003FFF780FFDFF84A
:100A800060030078800603D5DFF86003FFF777FF87
:100A9000DFF84C030078400703D5DFF85403FFF775
:100AA0006EFFDFF83C030078800703D5DFF84403CE
:100AB000FFF765FFDFF828030078C00703D5DFF8EC
:100AC0003803FFF75CFFDFF83403FFF758FFDFF868
:100AD0003003DFF83013884204D0DFF82C03FFF72F
:100AE0004EFF03E0DFF82403FFF749FF00F003F8AF
:100AF00000F0C6FAFEE780B5DFF8140300680009CD
:100B000010F0070000280BD0022813D00DD30428C2
:100B100019D014D306281ED019D307281FD022E0DD
:100B2000DFF8F002FFF72BFF20E0DFF8EC02FFF721
:100B300026FF1BE0DFF8E402FFF721FF16E0B848CC
:100B4000FFF71DFF12E0B748FFF719FF0EE0B648A8
:100B5000FFF715FF0AE0B548FFF711FF06E0B448BC
:100B6000FFF70DFF02E0B348FFF709FFA848006850
:100B700010F00F00022812D0042814D0052816D037
:100B8000062818D007281AD008281CD009281ED0FB
:100B90000A2820D00C2822D00E2824D027E0A648EE
:100BA000FFF7EDFE26E0A548FFF7E9FE22E0A448A6
:100BB000FFF7E5FE1EE0A348FFF7E1FE1AE0A248BA
:100BC000FFF7DDFE16E0A148FFF7D9FE12E0A048CE
:100BD000FFF7D5FE0EE09F48FFF7D1FE0AE09E48E2
:100BE000FFF7CDFE06E09D48FFF7C9FE02E09C48F6
:100BF000FFF7C5FE86480068000B10F00F000028C4
:100C000003D0022809D004D30BE09648FFF7B7FEC3
:100C10000AE09548FFF7B3FE06E09448FFF7AFFE01
:100C200002E09348FFF7ABFE00F06AF891480068D5
:100C3000000E10F00F00072806D0092808D00B2856
:100C40000AD00F280CD00FE08B48FFF798FE0EE07B
:100C50008A48FFF794FE0AE08948FFF790FE06E015
:100C60008748FFF78CFE02E08648FFF788FE86483B
:100C70000068000203D58548FFF781FE1EE07D482D
:100C80000068000F002806D0072808D009280AD0DD
:100C90000F280CD00FE07E48FFF771FE0EE07D4874
:100CA000FFF76DFE0AE07C48FFF769FE06E07A4830
:100CB000FFF765FE02E07948FFF761FE78480068BB
:100CC000000B10F00F00052806D0072808D00828D0
:100CD0000AD009280CD00FE07248FFF750FE0EE052
:100CE0007148FFF74CFE0AE07048FFF748FE06E047
:100CF0006F48FFF744FE02E06E48FFF740FE01BD7B
:100D0000F8B56D48032101706C48002101706C48F2
:100D1000002101706B48002101706B4801210170B6
:100D20006A4880210170694800780006FBD5684850
:100D300000780400674800780500674800780600DE
:100D4000664800780700FFB20097F6B23300EDB2B4
:100D50002A00E4B221006248FFF711FE5648032141
:100D60000170564800210170554800210170554816
:100D70000421017054480121017054488021017000
:100D8000524800780006FBD55148007804005148CD
:100D900000780500504800780600504800780700A9
:100DA000FFB20097F6B23300EDB22A00E4B22100A0
:100DB0004C48FFF7E4FD4548FF210170F1BD0000FC
:100DC000281CFF1FE820FF1FC420FF1FD419FF1F8E
:100DD00000E00740F01EFF1FE81CFF1FD01FFF1F91
:100DE00001E00740001FFF1F501EFF1F3C1DFF1F9B
:100DF000541DFF1F041DFF1FDC1FFF1F481CFF1F8A
:100E00000000FF1F0000FF1FE81FFF1FF41FFF1F50
:100E1000248004400C20FF1F1420FF1F1C20FF1FF4
:100E20002420FF1F2C20FF1F3420FF1F3C20FF1F0A
:100E30004420FF1F841BFF1F101FFF1F201FFF1FC9
:100E4000301FFF1F401FFF1F501FFF1F601FFF1F8E
:100E5000701FFF1F801FFF1F901FFF1FA01FFF1F7E
:100E6000001BFF1F641EFF1F781EFF1F8C1EFF1F2D
:100E7000641AFF1F4C8004406C1DFF1F841DFF1F60
:100E80009C1DFF1F681CFF1F50800440B01FFF1FE8
:100E9000B41DFF1FCC1DFF1FE41DFF1F881CFF1F7B
:100EA00000700440A01EFF1FB41EFF1FC81EFF1FBE
:100EB000DC1EFF1F201DFF1F07000240060002402E
:100EC00005000240040002400F0002400000024002
:100ED0000B0002400A0002400900024008000240E4
:100EE000AC1BFF1FA81CFF1F80B500F009F80A48C3
:100EF00000884FF6FE7108400749088001BD0000D8
:100F000072B606484CF22051018004484DF6281173
:100F1000018062B670470000002005400E200540A9
:100F20002DE9F8432448254988420DD00020804609
:100F3000B8F5826F08D22048204951F8281040F8AF
:100F4000281018F10108F3E71B4800F0B7F81C4817
:100F500007001C4806001C480400A01B80464046B1
:100F6000B0F10108002804D030783870761C7F1C5E
:100F7000F5E71648814616480500B5EB090080469E
:100F80004046B0F10108002805D0002089F8000093
:100F900019F10109F4E70F480F49104A531A98460E
:100FA0004346B3F10108002B04D00B780370491CB1
:100FB000401CF5E7BDE8F1830000FF1F0000FF1FA4
:100FC0009C20FF1F1C1AFF1F641AFF1FE420FF1F35
:100FD000F020FF1F4C20FF1F3819FF1F8819FF1F2B
:100FE00080B51E48006850F478501C490860C8203D
:100FF00000F06AF81A490860194800684FF47A71DD
:101000004843184908601748006817490968C1F340
:101010000361491CB0FBF1F01449086000F008F8C6
:1010200000F011F84FF49641012000F0D7F901BD0E
:101030000F48006850F480500D4908600D484FF487
:10104000E061016070470C48006850F001000A49F7
:1010500008600A484FF4A06101607047388004407E
:10106000E820FF1FE420FF1F44800440EC20FF1F06
:101070000480044018900440408004400CB00440B8
:1010800080B5012301220F21032000F0CDFA0A4888
:10109000006830F40040084908604FF4FA7000F02E
:1010A0003BFB0548006850F40040034908604FF4DA
:1010B000FA7000F031FBEAE7C0F00F400149086028
:1010C0007047000008ED00E038B50400E4B2002CE1
:1010D00000F01681E4B2200030281ED0322823D040
:1010E000602828D064282DD06E2832D0782837D0B8
:1010F0007D283CD0822841D08C2846D096284BD0E1
:10110000A02850D0AA2855D0B4285AD0C8285FD0DB
:10111000E12864D0FA2869D06FE0A848182101704E
:10112000A648002141706CE0A44818210170A34832
:101130000121417065E0A148182101709F481821E4
:1011400041705EE09D48182101709C481A21417051
:1011500057E09A481821017098481F21417050E0CB
:1011600096481321017095481821417049E0934831
:101170001321017091481A21417042E08F481321D8
:1011800001708E481C2141703BE08C480E2101709B
:101190008A481221417034E088480E210170874846
:1011A000152141702DE085480E21017083481821DA
:1011B000417026E081480E21017080481B2141705A
:1011C0001FE07E480E2101707C481E21417018E00E
:1011D0007A480C21017079481C21417011E0774850
:1011E0000B21017075481E2141700AE073480A21E5
:1011F000017072481F21417003E06420FFF764FF13
:10120000DAE06E4800218170E4B2652C03D26B48AD
:101210000021C1701FE0E4B2C92C03D2674801214C
:10122000C17018E02000C0B240F22D1180B2884297
:1012300003D262480221C1700DE02000C0B240F22A
:10124000911180B2884203D25C480321C17002E050
:101250005A480F21C17059485849C9780171E4B200
:101260001F2C03D255480021417149E0E4B23D2CC6
:1012700003D252480121417142E0E4B25B2C03D217
:101280004E48022141713BE0E4B2792C03D24B4835
:101290000321417134E0E4B2972C03D24748042182
:1012A00041712DE0E4B2B52C03D2444805214171CF
:1012B00026E0E4B2D32C03D24048062141711FE05E
:1012C000E4B2F12C03D23D480721417118E020001F
:1012D000C0B240F20F1180B2884203D237480821D1
:1012E00041710DE02000C0B240F22D1180B2884261
:1012F00003D232480921417102E030480F21417187
:101300002E484078183080B2322148432B49097862
:10131000491C89B290FBF1F00500294800210170B9
:101320002848006850F08050264908602648007818
:1013300050F0800024490870244898210170244806
:101340000078C006FBD422480078C0F38100C0B208
:101350000228F8D11948007810F01F001D490870C4
:101360001D4800210170154843791448027913483B
:10137000C1781248807800F069FE1048407810F07B
:101380001F0050F040001449087011480078800692
:10139000FBD50F4800784006FBD50C48007810F0CC
:1013A0003F000A4908700A480078C0F38100C0B2C3
:1013B0000328F8D12800C0B232BD00BFC420FF1FEF
:1013C000014006403480044008C007400040064009
:1013D0000640064004400640054006402DE9F8431B
:1013E00004000D00E4B2002C08D0022C24D014D349
:1013F000042C3FD02FD3052C4BD059E033217A4811
:1014000000F0AEF93E21784800F0AAF9774800686C
:1014100050F48060754908604AE075484FF44071A7
:10142000016074484FF4407101607048006850F4E6
:1014300000606E4908603BE06F484FF44071016006
:101440006E484FF4407101606848006850F4805065
:10145000664908602CE06A484FF4407101606948B1
:101460004FF4407101606148006850F400505F49DA
:1014700008601DE064484FF44071016063484FF418
:10148000407101606248006850F480606049086003
:101490000EE060484FF4407101605F484FF44071C6
:1014A00001605B48006850F4006059490860FFE73C
:1014B000E4B25A4850F82400C07810F0F300E4B2C7
:1014C000564951F82410C870E4B2544850F824002A
:1014D00000218170E4B2002C01D1012000E0002045
:1014E000E4B2012C01D1012100E000210843C0B287
:1014F000002806D04A4800684FF47A714843814674
:1015000005E0484800684FF47A7148438146280155
:10151000B9FBF0F00600E4B2404850F8240000782F
:1015200010F0E0008046B6B2300A10F01F0050EA1A
:101530000800E4B2394951F824100870E4B2374881
:1015400050F8240046705FEA49102901B0FBF1F021
:10155000B6B2B0EB46100700E4B2304850F82400B1
:10156000807A10F0E0008046E4B22C4850F8240065
:1015700017F01F0151EA08018172E4B2274850F8C0
:101580002400C07850F00C00E4B2244951F8241033
:10159000C870BDE8F183C0B2204951F82010097924
:1015A0008906F8D5C0B21D4951F82000C0797047AE
:1015B000C0B21A4A52F8202012791206F8D5C0B2E9
:1015C000164A52F82020D171704738B504000D003A
:1015D0002878002806D029782000C0B2FFF7E8FF5D
:1015E0006D1CF5E731BD00002C1BFF1F348004404B
:1015F0000CB0044010B004400CC0044008C00440CB
:1016000040B0044044B0044064D0044060D0044082
:101610002880044024D0044020D00440CC20FF1F68
:10162000E420FF1FEC20FF1FF8B504000D0016009A
:101630001F00EDB2202D02D2FFB2022F03D32421CE
:10164000324800F08DF8EDB2E4B2314850F8240091
:101650004FF4807140F82510F00705D5F6B2032E3F
:1016600002D0F6B2132E0DD1E4B22A4850F824006D
:1016700040690121A9408843E4B2264951F8241069
:1016800048612AE0E4B2234850F82400406901216F
:10169000A9400843E4B21F4951F824104861FFB241
:1016A000012F0DD1E4B21B4850F82400006801213D
:1016B000A9400843E4B2174951F8241008600CE02F
:1016C000E4B2144850F8240000680121A94088437E
:1016D000E4B2104951F824100860F1BD38B5040097
:1016E0000D00EDB2202D03D36021084800F038F83A
:1016F000E4B2084850F8240000680121A94048409D
:10170000E4B2044951F82410086031BDD41AFF1F17
:10171000B020FF1F9C20FF1F0D49096851F00101F7
:101720000B4A11600B4908600B4905220A600B49FE
:10173000096851F00101094A116008490968090660
:10174000FBD50649096849084900044A11607047F9
:1017500038800440080004400400044000000440B5
:1017600038B504000D0000F00BF82A0021000348F2
:10177000FFF705F900F035F8F7E700BF8819FF1FFC
:1017800080B50123012218210420FFF74DFF01231A
:10179000012219210420FFF747FF012301221A210A
:1017A0000420FFF741FF012301221B210420FFF742
:1017B0003BFF01BD224A12691268012383409A430C
:1017C000C9B211F0010383401A431D4B1B691A6013
:1017D000704710B504002100C9B20420FFF77EFF56
:1017E00010BD10B50123012218210420FFF71CFFB2
:1017F0000123012219210420FFF716FF01230122F2
:101800001A210420FFF710FF012301221B210420CD
:10181000FFF70AFF18200400E4B21C2C0ED20021AE
:101820002000C0B2FFF7C6FF642000F00BF80121D2
:101830002000C0B2FFF7BEFF641CEDE710BD000042
:101840009C20FF1F00231900814209D2054B1B6811
:101850001A00002A02D000BF521EFAE7491CF3E723
:1018600070470000EC20FF1F10B572B60120FFF793
:1018700092FE04002C490120FFF7A7FE2100C9B207
:101880000120FFF795FE62B610BD704780B527486E
:10189000FFF775F8FBE7704710B50024002004003F
:1018A000234800680121A140084206D02048006872
:1018B0000121A14008431E4908601A2004001C4869
:1018C00000680121A140084209D01948006801219F
:1018D000A1400843164908601920FFF77AFF10BDA0
:1018E00010B5002400200400124800680121A14026
:1018F000084209D00F4800680121A14008430D4962
:1019000008601920FFF765FF0A20040009480068F5
:101910000121A140084206D0064800680121A140EB
:1019200008430449086010BD3C1EFF1F081CFF1F30
:10193000A0900440A0A00440F0B4114E36683400DA
:101940000F4E366856F47F060D4F3E600E0616F0B9
:10195000706656EA0076170517F470073E431F04B9
:1019600017F470273E43074F3E6000263500EDB266
:101970009D4201D26D1CFAE7014E3460F0BC704705
:1019800000F0014044800440B6CFD1D4B7A2C9FAD8
:10199000D4DA2573CEC4BCFEB5C4B5DA2564D0D084
:1019A000A3A10AB6CFD1D4CCF5BCFEB2BBB3C9C19A
:1019B000A2A3ACC7EBBCECB2E2B4EDCEF3D4ADD293
:1019C000F2A1A309A1AAA1AA20627920D2B0BBF0FA
:1019D0000A0A0000C4DABACBC6B5C2CAA3BA2564E3
:1019E0004D487A09D7DCCFDFC6B5C2CA20A3BA25D5
:1019F000644D487A0A666C6578C6B5C2CAA3BA2532
:101A0000644D487A2009666C617368C6B5C2CAA382
:101A1000BA25644D487A0A0A0000000000F00F4021
:101A200040F00F4080F00F40C0F00F4000F10F4039
:101A30000090044000A0044000B0044000C00440F6
:101A400000D004400B1F00000009000000A0064069
:101A500000B0064000C0064000D0064000A00E4086
:101A600000B00E400A546869732076657273696F1E
:101A70006E206F6620736F66747761726520646F85
:101A800065736E2774207265636F676E697A65206F
:101A9000746865207265766973696F6E20636F6420
:101AA000652E00000A2A2A2A2A64656661756C740C
:101AB0005F69737220656E7465726564206F6E2055
:101AC000766563746F722025642A2A2A2A2A0D0AF1
:101AD0000A000000473A5C4941525C666972655FE2
:101AE0004B696E657469735C7372635C647269766A
:101AF0006572735C6770696F5C6770696F2E6300F5
:101B00000A556E7265636F676E697A6564204B690A
:101B10006E65746973207061636B61676520636FC4
:101B200064652E202020202020000000473A5C49D8
:101B300041525C666972655F4B696E657469735C7E
:101B40007372635C647269766572735C75617274DA
:101B50005C756172742E630010B5084979441C31BC
:101B6000074C7C441A34A14206D0081D0A6851185B
:101B700088470146A142F8D110BD00BF7C0000009B
:101B8000880000000A556E7265636F676E697A653A
:101B900064204B696E657469732066616D696C7948
:101BA000206465766963652E0A000000466C6173E7
:101BB0006820706172616D657465722076657273FC
:101BC000696F6E2025642E25642E25642E25640AF7
:101BD0000000000050F8041B61B150F8042BD3073B
:101BE00044BFA9F101039A18002342F8043B091FDE
:101BF000FAD1EFE770470000DDFFFFFF0C000000A7
:101C0000E420FF1F000000000A2A2A2A2AD3B2BCBF
:101C1000FEC9CFB7C3B4EDCEF32121212A2A2A2A47
:101C20002A0D0A0A000000000A0A0909D2B0BBF016
:101C30006B696E65746973BACBD0C4B0E5B2E2CAA1
:101C4000D4B3CCD0F20A00000AD2B0BBF04B696E1C
:101C500065746973BFAAB7A2B0E5C6F4B6AFB7BDE5
:101C6000CABDA3BA00000000455252212120556E82
:101C7000646566696E656420502D666C61736820CA
:101C800073697A650A000000455252212120556E81
:101C9000646566696E656420466C65784E564D20B5
:101CA00073697A650A000000466C61736820766586
:101CB0007273696F6E2049442025642E25642E2599
:101CC000642E25640A00000080B5FFF759FDFFF778
:101CD00088FD03480178C9B20248FEF750FE01BDF5
:101CE00004ED00E0A41AFF1F436F7265204C6F6380
:101CF0006B7570204576656E742052657365740A45
:101D0000000000004C6F772D766F6C746167652062
:101D10004465746563742052657365740A0000003D
:101D2000455252212120556E646566696E656420B6
:101D300052414D2073697A650A0A00005761746345
:101D400068646F6728434F50292052657365740A91
:101D5000000000004C6F7373206F6620436C6F634C
:101D60006B2052657365740A000000003132382020
:101D70006B4279746573206F6620502D666C6173B9
:101D800068090000323536206B4279746573206F24
:101D90006620502D666C6173680900003531322071
:101DA0006B4279746573206F6620502D666C617389
:101DB0006809000030206B4279746573206F6620DB
:101DC000466C65784E564D0A0000000031323820CE
:101DD0006B4279746573206F6620466C65784E5649
:101DE0004D0A0000323536206B4279746573206FDE
:101DF0006620466C65784E564D0A000000F009F8E2
:101E0000002801D0FFF7A8FE0020FFF739F900F005
:101E100002F80120704700F001B80000074638467C
:101E200000F002F8FBE7000080B5C046C046024A59
:101E300011001820ABBEFBE7260002000AC4E3B77E
:101E4000A2CBCDB5C4CAFDBEDDCEAAA3BA000000A8
:101E500045787465726E616C2050696E20526573AE
:101E600065740A0053696C69636F6E207265762031
:101E7000312E302020200A0053696C69636F6E2078
:101E800072657620312E3120200A000053696C697A
:101E9000636F6E2072657620312E3220200A00009A
:101EA0003332206B4279746573206F662052414D46
:101EB0000A0A00003634206B4279746573206F661D
:101EC0002052414D0A0A00003936206B4279746570
:101ED00073206F662052414D0A0A000031323820CB
:101EE0006B4279746573206F662052414D0A0A0077
:101EF000536F6674776172652052657365740A006A
:101F0000506F7765722D6F6E2052657365740A008D
:101F1000333270696E202020202020200000000035
:101F2000343870696E20202020202020000000001E
:101F3000363470696E202020202020200000000010
:101F4000383070696E202020202020200000000002
:101F5000383170696E2020202020202000000000F1
:101F600031303070696E20202020202000000000D9
:101F700031303470696E20202020202000000000C5
:101F800031343470696E20202020202000000000B1
:101F900031393670696E202020202020000000009A
:101FA00032353670696E202020202020000000008D
:101FB000502D666C617368206F6E6C790A000000AA
:101FC00010B504002100C9B20120FFF7F1FA10BDDD
:101FD0004A5441472052657365740A004C4C57556A
:101FE0002052657365740A00666C617368C6F4B646
:101FF000AF0A00005352414DC6F4B6AF0A000000CC
:10200000C046C046C046C046FFF7F8FE0A4B313016
:102010002D0000000A4B32302D0000000A4B3330F7
:102020002D0000000A4B34302D0000000A4B3630E2
:102030002D0000000A4B37302D0000000A4B3530D0
:0C2040002D0000000A4B35332D0000007D
:040000051FFF2001B8
:00000001FF
