:020000041FFFDC
:10000000F8FF00201104FF1FF91DFF1FF91DFF1F3E
:10001000F91DFF1FF91DFF1FF91DFF1FF91DFF1F10
:10002000F91DFF1FF91DFF1FF91DFF1FF91DFF1F00
:10003000F91DFF1FF91DFF1FF91DFF1FF91DFF1FF0
:10004000F91DFF1FF91DFF1FF91DFF1FF91DFF1FE0
:10005000F91DFF1FF91DFF1FF91DFF1FF91DFF1FD0
:10006000F91DFF1FF91DFF1FF91DFF1FF91DFF1FC0
:10007000F91DFF1FF91DFF1FF91DFF1FF91DFF1FB0
:10008000F91DFF1FF91DFF1FF91DFF1FF91DFF1FA0
:10009000F91DFF1FF91DFF1FF91DFF1FF91DFF1F90
:1000A000F91DFF1FF91DFF1FF91DFF1FF91DFF1F80
:1000B000F91DFF1FF91DFF1FF91DFF1FF91DFF1F70
:1000C000F91DFF1FF91DFF1FF91DFF1FF91DFF1F60
:1000D000F91DFF1FF91DFF1FF91DFF1FF91DFF1F50
:1000E000F91DFF1FF91DFF1FF91DFF1FF91DFF1F40
:1000F000F91DFF1FF91DFF1FF91DFF1FF91DFF1F30
:10010000F91DFF1FF91DFF1FF91DFF1FF91DFF1F1F
:10011000F91DFF1FF91DFF1FF91DFF1FF91DFF1F0F
:10012000F91DFF1FF91DFF1FF91DFF1FF91DFF1FFF
:10013000F91DFF1FF91DFF1FF91DFF1FF91DFF1FEF
:10014000F91DFF1FF91DFF1FF91DFF1FF91DFF1FDF
:10015000F91DFF1FF91DFF1FF91DFF1FF91DFF1FCF
:10016000F91DFF1FF91DFF1FF91DFF1FF91DFF1FBF
:10017000F91DFF1FF91DFF1FF91DFF1FF91DFF1FAF
:10018000F91DFF1FF91DFF1FF91DFF1FF91DFF1F9F
:10019000F91DFF1FF91DFF1FF91DFF1F491EFF1F3E
:1001A000F91DFF1FF91DFF1FF91DFF1FF91DFF1F7F
:1001B000F91DFF1FF91DFF1FF91DFF1FF91DFF1F6F
:1001C000F91DFF1FF91DFF1FF91DFF1FF91DFF1F5F
:1001D000F91DFF1FF91DFF1FF91DFF1FF91DFF1F4F
:10040000FFFFFFFFFFFFFFFFFFFFFFFFFEFFFFFFFD
:1004100062B64FF000004FF000014FF000024FF0C5
:1004200000034FF000044FF000054FF000064FF0BE
:1004300000074FF000084FF000094FF0000A4FF09E
:10044000000B4FF0000C01F08DFDFEE72DE9F041AF
:10045000ADF5C96D02A80FF2D4014FF4C86200F0E7
:10046000B5FB09221A21002000F0ECFB0123012238
:100470001B21002000F00EFC002301220E2103208E
:1004800000F008FC002301220F21032000F002FCF1
:1004900062B600F04EFC00F085FC0021084600F03A
:1004A00096FC0FF2F8640FF2E4650FF2D0660FF2DB
:1004B000BC681C4F11E000F075FC00200190002387
:1004C000142000902822282102A800F03DFD1648A3
:1004D0000068016881F00061016038780028EAD086
:1004E00000F060FC42460021002000F09FFC3246F4
:1004F0000121002000F09AFC2A460221002000F091
:1005000095FC22460321002000F090FC052001907C
:100510000423002000900C221946104600F093FCA2
:10052000D5E700000423FF1F8C1FFF1F01010101FD
:1005300001010101010101010101010101010101AB
:10054000010101010101010101010101010101019B
:10055000010101010101010101010100010001008E
:100560000100010001000100010001010101010180
:10057000010101010101010101010101010101016B
:100580000101010100000000000000000000000067
:100590000000000000000101010101010101010151
:1005A000010101010101010101010101000000003F
:1005B000000000000000000000000000000000003B
:1005C000010101010101010101010101010101011B
:1005D0000101000000000000000000000000000019
:1005E0000000000000000000000000010101010106
:1005F00001010101010101010101010000000000F0
:1006000000000000000000000000000000000000EA
:1006100000000101010101010101010101010101CC
:1006200001010100000000000000000001010100C4
:1006300000010100000000000000000001010101B4
:10064000010101010101010101010101000000009E
:100650000001010101000000000101010100000092
:10066000000000000101010101010101010101017E
:100670000101010100000001010101010000000170
:100680000000010101010100000000000000010163
:10069000010101010101010101010101000101014B
:1006A000010101000000010101000001010101013F
:1006B0000000000000000101010101010101010130
:1006C000010101000001010101010000000101011F
:1006D0000101000101010101010000000000000111
:1006E00001010101010101010101010000000101FD
:1006F00001000000010001010101010001010101EF
:1007000001010000000000000101010101010101DF
:1007100001010000000001010100000101010001D0
:1007200001010101010101010101000000000000BF
:1007300000010101010101010101000001010000AE
:10074000000101010101000101010101010101019B
:100750000101000000000000000101010101010190
:10076000010000010101000000010101010100017F
:10077000010101010101010101010000000000006F
:10078000000001010101010101010000010100005F
:10079000000000010101000101010101010101014D
:1007A0000101000000000000000001010101010141
:1007B0000101000000010000000000010101000132
:1007C000010101010101010101010000000000001F
:1007D0000000000101010101000001010000000012
:1007E00000000101010001010101010101010101FC
:1007F00001010000000000000000010101010101F1
:1008000000010101010000000101010100000101DE
:1008100001010101010101010101000001010100CB
:1008200000000001010101000101010101010100BD
:1008300000000000000000000001010101010101B1
:10084000010000010101010000000001010101009F
:10085000010101010101010101000000010101018B
:10086000010000010101010101000101010101007C
:10087000000000010101000101010101010101016C
:10088000000001010101010101010101010101015A
:100890000000000000010101000000010101000052
:1008A0000101010101010101000101010101010139
:1008B000010101010101010000000000000101012E
:1008C000000000010101000001010101010101011D
:1008D000000101010100010101010101010100000C
:1008E0000000000101010100000000010101000001
:1008F00000010100010100010001010100000000F0
:1009000001010101010100000000000101010100DD
:1009100000000001010000000000000000000000D5
:1009200000000000000000000101010100000000C3
:1009300000000101010101000000000101000000B0
:1009400000000101000000000000000000000000A5
:100950000000000000000000000000010101000094
:100960000000000100000000000001010100000083
:100970000000000101010000000000000000000074
:100980000000000000000000000000010000000066
:10099000000001010100010001010001010000004F
:1009A0000000000000000000000000000000000047
:1009B0000000000100000000000000000100010034
:1009C0000000000100000100000000000000000025
:1009D0000000000000000000000000010000000016
:1009E0000000010000000000000000000001000005
:1009F00000000000000000000000000000000000F7
:100A000000000101000000000000000100000100E2
:100A100001010001010000000000000000000000D2
:100A200000000000000000000000010101000000C3
:100A300000000000000000000000000000000000B6
:100A400000000000000000000000000000000000A6
:100A50000000010101000000000000000000000093
:100A60000000000000000000000000000000000086
:100A70000000000000000000000000010101000073
:100A80000000000000000000000000000000000066
:100A90000000000000000000000000000000000056
:100AA0000001000001010000000000000000000043
:100AB0000000000000000000000000000000000036
:100AC000000001000000000001000100010101011F
:100AD0000000000000000000000000000000000016
:100AE0000000000000000000000001010000010003
:100AF00001000100010101010000000000000000F0
:100B000000000000000000000000000000000000E5
:100B100000000100000100010001000001010100CE
:100B200000000000000000000000010000010100C2
:100B300001010000010000010101000000000100AE
:100B4000010001000101010000010000010000019D
:100B5000000001000101010001010001010001018B
:100B60000100000100000000010001002057656C39
:100B7000636F6D6520746F202000000020416D7947
:100B8000202073747564696F20000000616D792DF9
:100B900073747564696F2E636F6D0000204E6F6B08
:100BA000696135313130204C4344000062B38B071A
:100BB00008D0521E11F8013B00F8013B00F02480E0
:100BC0008B07F6D1830740F0208000BF103A07D38F
:100BD00030B4B1E83810103AA0E83810F9D230BC7F
:100BE000530724BFB1E80810A0E8081044BF51F82B
:100BF000043B40F8043BD20724BF31F8022B20F815
:100C0000022B44BF0B7803707047083A07D3B1E852
:100C10000810083A40F8043B40F804CBF7D25307D9
:100C2000E4E750F8041B61B150F8042BD30744BF2C
:100C3000A9F101039A18002342F8043B091FFAD1D5
:100C4000EFE770473CB4104B1C684FF400758540CB
:100C50002C431C6014040D4B53F8203004F4702412
:100C600044EAD21242F4817243F821200124084A56
:100C700052F82020536904FA01F123EA010151617D
:100C8000573036BC00F0D1B938800440A01FFF1F98
:100C90008C1FFF1F70B4154C04EB80054FF4807659
:100CA0006D6945F82160D50703D5032A18BF132ABB
:100CB0000AD154F820004269012303FA01F122EA23
:100CC0000101416170BC704754F82000012202FA12
:100CD00001F142690A434261012B02680CBF1143D2
:100CE00022EA0101016070BC704700008C1FFF1FE9
:100CF00080B50123012200210320FFF7CBFF012350
:100D00001A4611460320FFF7C5FF01231A460221A8
:100D10000320FFF7BFFF012303211A460846FFF710
:100D2000B9FFBDE8005001231A4604210320FFF754
:100D3000B1BF10B5FFF7DCFF804C206820F0100039
:100D40002060C046C046206840F010002060206847
:100D500020F008002060C046C046206840F008002F
:100D60002060C046C0460021212000F0C1F80021CB
:100D7000C72000F0BDF80021072000F0B9F80021DD
:100D8000132000F0B5F80021202000F0B1F800F0A9
:100D900009F800210C2000F0ABF8206820F00800D2
:100DA000206010BD10B500210C2000F0A1F800213A
:100DB000802000F09DF84FF4FC740121002000F029
:100DC00097F8641EF9D1BDE810400021002010B54D
:100DD00004460846002140F0400000F089F844F045
:100DE0008000BDE81040002182E0203810B5C0B27C
:100DF00000EB40014800524A8418805C012100F059
:100E000077F86078012100F073F8A078012100F0F4
:100E10006FF8E078012100F06BF82079012100F0F3
:100E200067F86079BDE81040012161E010B5144613
:100E3000FFF7CDFF03E014F8010BFFF7D6FF207892
:100E40000028F8D110BD2DE9FA4F83B080460E9CE2
:100E50009246FFF7BCFF9DF810000026002846D000
:100E600004EB4400374901EBC0040F985AFA80F0B4
:100E7000009048F080099DF80C00401C40F04005AF
:100E80004FEA4A0001900098704350FA88F000271A
:100E900040F0800B0EE00021E8B200F029F80021BC
:100EA0005FFA8BF000F024F8385D012100F020F8A3
:100EB000781CC7B2019887420ADA5745F4D1002E50
:100EC000E9D10021E8B200F013F800214846E9E733
:100ED00000989DF80C10761C704350FA88F0C0B250
:100EE000FFF775FF9DF8100018348642CBDB95E0C4
:100EF0000029124A136823F00803136011680CBF1D
:100F000021F0040141F00401116008210306136877
:100F10004CBF43F0020323F0020313604000136848
:100F20005B085B001360491E136843F00103136004
:100F3000ECD1106840F0080010607047C0F00F401E
:100F4000BC1FFF1FE421FF1F2DE9F74F82B0C90826
:100F50000F9C019100279A46012933DB02990E98D4
:100F60009DF8108000914FF001098DF838009DF830
:100F70003800E1B2FFF72BFF9DF810000025C0B14B
:100F8000DDF800B0002059460B7809FA00F29A45C6
:100F900034BF96431643401CF6B241440828F3DBA5
:100FA00001213046FFF7A4FF6D1C0BF1010B4545F5
:100FB000E8DB009800EBC80000907F1C0198641CDF
:100FC0008742D4DB07219DF80C0008421CBF9DF826
:100FD0001000002822D080460299F80008FB001576
:100FE0009DF80C00444600F007074FF0010900206F
:100FF0002946012F0BDB0B7809FA00F29A4534BF22
:1010000096431643401CF6B24144B842F3DB01213B
:10101000F0B2FFF76DFF6D1C641EE8D105B0BDE8AE
:10102000F08F000018490860704710B504465C2C2A
:10103000A4BF0FF2600000F062FA201104EBD06050
:10104000401103D0022815D00AD310BD0121A4EB12
:10105000401001FA00F00D4908600D49086010BD0C
:101060000121A4EB401001FA00F00849486008494A
:10107000486010BD0121A4EB401001FA00F00349C3
:1010800088600349886010BD08ED00E080E200E060
:1010900000E100E00A4552522120496E76616C69F8
:1010A00064204952512076616C75652070617373BC
:1010B000656420746F20656E61626C652069727171
:1010C0002066756E6374696F6E210A0010B50C4658
:1010D0001168012902D0022904D008E05168C0B289
:1010E000884704E0916808709068401C9060206810
:1010F000401C206010BD30B4002400F8014B002AD1
:10110000096812D091B191FBF3F203FB121100298F
:1011100046BFC94301F1310501F130051146641C98
:1011200000F8015B0029EED114E019B930210170FB
:1011300001240FE0B1FBF3F203FB12110A2934BFC3
:1011400001F1300501F137051146641C00F8015B1F
:101150000029EFD1204630BC7047F8B504460D4653
:1011600016461F46AC4207DA3A4631463020FFF7B2
:10117000ADFF641CAC42F7DBF1BDF8B504460D468B
:1011800016461F46AC4207DA3A4631462020FFF7A2
:101190009DFF641CAC42F7DBF1BD2DE9F04F8DB033
:1011A00005460020934600900C4604E02A4600A91C
:1011B000FFF78CFF641C2078002800F09C81252814
:1011C0000AD00A28F2D12A4600A90D20FFF77EFF97
:1011D0002A4600A90A20EBE7002701E047F01007A4
:1011E00014F8010F20280ED02328F7D02B2807D081
:1011F0002D2802D0302809D00BE047F00107EFE797
:1012000047F00207ECE747F00407E9E747F0080773
:10121000E6E7611E4FF0000805E008EB880200EBEE
:101220004200A0F1300811F8010FA0F13002092AA4
:10123000F3D92E2804D111F8010F30380928FAD932
:101240004C1E14F8010F4C2818BF682802D06C28D7
:1012500018BF641E14F8010F582854D0622800F0FB
:10126000E780632800F01781642818BF692811D02F
:101270006E2800F03B816F2800F0D580702800F0C8
:10128000DC80732800F00B81752800F0DB80782863
:1012900039D08BE75BF8040B02900A23012202A9E4
:1012A00003A8FFF728FF824603A80AEB000902986B
:1012B000002848BF2D2606D4B80748BF2B2602D4E5
:1012C000780703D520260AF1010A00E00026380736
:1012D00008D5002E00F0C5802A4600A93046FFF749
:1012E000F5FEBEE0F80707D42B4600AA414650465B
:1012F000FFF743FF1EB9C4E0002E00F0C2802A466B
:1013000000A93046C4E05BF8040B019010230022D2
:1013100001A903A8FFF7EFFE824603A80AEB000924
:101320000026380721D5F80617D52A4600A930200F
:10133000FFF7CCFE2868012808D0022809D1A86848
:1013400078210170A868401CA86002E078206968D4
:1013500088470098401C009001262B4600AA414671
:101360005046FFF7FAFEC24632E0F80730D4F806DE
:1013700048BF0AF1020A2B4600AA41465046FFF731
:10138000FCFEF80624D52868012808D0022809D1D7
:10139000A86830210170A868401CA86002E03020D5
:1013A000696888470098401C00902868012808D088
:1013B000022809D1A86878210170A868401CA8609B
:1013C00002E07820696888470098401C0090012658
:1013D000F80656D5002E54D12868012808D00228D6
:1013E00009D1A86830210170A868401CA86002E0FB
:1013F0003020696888470098401C009028680128C0
:1014000008D0022809D1A86878210170A868401C7A
:10141000A86002E07820696888470098401C009026
:101420000AF1020A2DE05BF8040B019008230DE09D
:101430005BF8040B0190022308E05BF8040B0190B9
:10144000102303E05BF8040B01900A23002201A99A
:1014500003A8FFF750FE824603A80AEB00093807ED
:1014600007D52B4600AA41465046FFF776FEC246F6
:1014700007E0F80705D42B4600AA41465046FFF77F
:101480007CFE99F8000038B319F801092A4600A932
:10149000FFF71CFEF5E75BF8040BC0B286E65BF8CD
:1014A000049BB9F1000F3FF485AE484600F038F8D0
:1014B0008246F8070CD42B4600AA41465046FFF757
:1014C0005CFE05E019F8010B2A4600A9FFF7FEFDB6
:1014D00099F800000028F5D1F8077FF56BAE2B4690
:1014E00000AA41465046FFF748FE63E65BF8040B4E
:1014F000009901605EE600980DB0BDE8F08F0EB473
:1015000000B584B00121009105AA0449019101466A
:1015100000A8FFF742FE04B05DF810FB851FFF1F17
:10152000002108B97047491C10F8012B002AFAD194
:101530000846704700F00F4040F00F4080F00F4029
:10154000C0F00F4000F10F400090044000A00440A4
:1015500000B0044000C0044000D004400B1F000055
:10156000000900000000000000000000002F000043
:1015700000000700070000147F147F1400242A7F56
:101580002A120062640813230036495522500000D5
:101590000503000000001C224100000041221C0045
:1015A0000014083E08140008083E0808000000A0C7
:1015B00060000008080808080000606000000020C3
:1015C00010080402003E5149453E0000427F4000A1
:1015D000004261514946002141454B310018141227
:1015E0007F10002745454539003C4A4949300001F4
:1015F0007109050300364949493600064949291E43
:1016000000003636000000005636000000081422A4
:1016100041000014141414140000412214080002A4
:101620000151090600324959513E007C1211127CC9
:10163000007F49494936003E41414122007F4141F6
:10164000221C007F49494941007F09090901003EE8
:101650004149497A007F0808087F0000417F410026
:10166000002040413F01007F08142241007F40409C
:101670004040007F020C027F007F0408107F003E84
:101680004141413E007F09090906003E4151215E6A
:10169000007F091929460046494949310001017F67
:1016A0000101003F4040403F001F2040201F003FFD
:1016B0004038403F006314081463000708700807AF
:1016C00000615149454300007F41410000552A55C2
:1016D0002A55000041417F0000040201020400403D
:1016E000404040400000010204000020545454785F
:1016F000007F48444438003844444420003844447F
:10170000487F00385454541800087E09010200181C
:10171000A4A4A47C007F080404780000447D400059
:10172000004080847D00007F102844000000417F3D
:101730004000007C04180478007C08040478003819
:101740004444443800FC242424180018242418FCA1
:10175000007C0804040800485454542000043F440A
:101760004020003C4040207C001C2040201C003CCD
:101770004030403C004428102844001CA0A0A07C1D
:10178000004464544C441414141414140A32C23225
:101790001E0807E404140C000403000308040300FB
:1017A0000304080011F200FE824100FE0202FE0066
:1017B000080708090808080F080909001008FC03B1
:1017C000482784FC04244C000806000608090A087F
:1017D0000C0106002010FC03F45454FF5454740010
:1017E00000000F00080502050408080000FE9292A0
:1017F00092FE929292FE0000080700000007000887
:10180000080F00000404846414FF146484040400BA
:1018100002010202020F020202010200645CF744AC
:10182000201807E404140C0002020F01080403004E
:101830000304080010FC03908E8888FF88888800C5
:10184000000F00000000000F0000000000A0064094
:1018500000B0064000C0064000D0064000A00E4088
:1018600000B00E4070B500287BD030281ED0322842
:1018700026D0602827D0642849D06E2826D0782822
:1018800027D07D2828D0822829D08C282AD09628B5
:101890002BD0A0282CD0AA282CD0B4282DD0C828F2
:1018A0002ED0E1282ED0FA282ED02FE018210022A9
:1018B0004E4C217062700021A170652829DA2CE05D
:1018C00018210122F4E718211822F1E718211F221C
:1018D000EEE713211822EBE713211A22E8E7132180
:1018E0001C22E5E70E211222E2E70E211522DFE796
:1018F0000E21EFE70E211B22DAE70E211E22D7E789
:101900000C21EDE70B21F9E70A21E0E7642018211B
:10191000E3E7C928B4BF01210221E1701F28E17863
:101920002171B8BF00201BDB3D28B8BF012017DBA9
:101930005B28B8BF022013DB7928B8BF03200FDB78
:101940009728B8BF04200BDBB528B8BF052007DBFC
:10195000D328B8BF062003DBF128B4BF0720082036
:1019600060713221214C224E6078183080B2484399
:101970002178491C89B290FBF1F5002070701D4858
:10198000016841F0805101601B48017841F08001FD
:10199000017098203070B079C006FCD4B079C0F3E3
:1019A00081000228FAD1207800F01F003071002059
:1019B000707163792279E178A07800F07FFC60781B
:1019C00000F01F0040F040007071B0798006FCD537
:1019D000B0794006FCD5307800F03F003070B07927
:1019E000C0F381000328FAD1E8B270BDB41FFF1F15
:1019F000004006403480044008C00740F8B5054662
:101A00000C46052846D8DFE800F003121C26313BBF
:101A10000FF22C163321304600F0B6F83E21304646
:101A200000F0B2F83F48C16841F480611CE03E48D4
:101A30004FF44071016041603A48C16841F400616F
:101A400012E03A484FF44071416001603548C16886
:101A500041F4805108E034484FF4407141638163A0
:101A60003048C16841F40051C16013E030484FF480
:101A70004071416401642B48016841F4806108E0D1
:101A80002B484FF44071416001602648016841F4E1
:101A9000006101602749284651F82020D37803F0DF
:101AA000F303D370002351F8202093706A1E9241F3
:101AB000012808BF01234FF47A7553EAD27214BF8C
:101AC0001D4A1E4A12686A4351F820502E7823019D
:101AD000B2FBF3F427043F0E06F0E00607F01F0701
:101AE0003E432E70520151F820506C70B2FBF3F25D
:101AF00051F82040A57A05F0E00502F01F022A43C4
:101B0000A27251F82000C17841F00C01C170F1BD02
:101B1000084A52F8203093F804C05FEA0C6CFAD5FA
:101B2000D9717047288004400CB0044008C00440BC
:101B300020D00440A422FF1FF822FF1F0023FF1F14
:101B4000453A5C667265657363616C655CD2B0BB77
:101B5000F02DD0A1B0D4CDF5CFB5C1D0B9E2C5CC70
:101B60005C666972655F4B696E657469735C7372FC
:101B7000635C647269766572735C756172745C75BE
:101B80006172742E6300000070B504460D4600F0CB
:101B900031F80FF214062A4621463046FFF7AFFC13
:101BA00000F043F8F7E70000B6CFD1D4B7A2C9FAE6
:101BB000D4DA2573CEC4BCFEB5C4B5DA2564D0D062
:101BC000A3A10AB6CFD1D4CCF5BCFEB2BBB3C9C178
:101BD000A2A3ACC7EBBCECB2E2B4EDCEF3D4ADD271
:101BE000F2A1A309A1AAA1AA20627920D2B0BBF0D8
:101BF0000A0A000080B5012301220C210320FFF70F
:101C000049F801231A460D210320FFF743F8012369
:101C10001A460E210320FFF73DF8BDE800500123CE
:101C20001A460F210320FFF735B82DE9F0410123B3
:101C300001220C210320FFF72DF801231A460D2164
:101C40000320FFF727F801231A460E210320FFF790
:101C500021F801231A460F210320FFF71BF80C245B
:101C60004FF000080C4E012000FA04F7F0680168FC
:101C7000FD43294008FA04F211430160642000F09A
:101C80000DF8F068016829403943641C0160102C8C
:101C9000E9DBBDE8F08100008C1FFF1F38B104496B
:101CA000096811B100BF491EFCD1401EF7D1704731
:101CB0000023FF1F10B51149114C8C4204D04FF482
:101CC00082522046FEF782FF2046FFF7ABF90D490E
:101CD0000D48421A1CBF0D48FEF768FF0C480D491D
:101CE000091A18BF00F01EF80B490C48421A04D01C
:101CF000BDE810400A48FEF759BF10BD0000FF1FA5
:101D00000000FF1F3415FF1F6418FF1F8C1FFF1FEB
:101D1000F822FF1F0523FF1F841EFF1FC01EFF1F89
:101D2000BC22FF1F002200F001B80000401810F094
:101D3000030308D0C91A1FD3DB0748BF00F8012DE1
:101D400028BF20F8022D130030B414461546103970
:101D500028BF20E93C00FAD8490728BF20E90C0039
:101D600048BF40F8042D890028BF20F8022D48BF45
:101D700000F8012D30BC7047C91818BF00F8012DBC
:101D8000CB0728BF00F8012D7047000038B5164C6E
:101D9000164D606B40F478506063C820FFF762FD19
:101DA00068604FF47A7111FB00F02860216CC1F378
:101DB0000361491CB0FBF1F0A8604FF4E0612068BA
:101DC00040F4805020600A4801604FF4A061E06B4D
:101DD00040F00100E063074801604FF49641BDE820
:101DE00034400120FFF70ABE04800440F822FF1FA0
:101DF000189004400CB0044080B5FFF7FBFEFFF7DD
:101E000014FF044801780FF21000BDE80440FFF70A
:101E100076BB000004ED00E00A2A2A2A2A646566DF
:101E200061756C745F69737220656E746572656448
:101E3000206F6E20766563746F722025642A2A2ACB
:101E40002A2A0D0A0A00000080B50A4801684901E3
:101E50000DD5016841F080610160FEF7A3FF00210C
:101E6000BDE808400FF210020020FEF7DFBF01BD01
:101E700000000000A0900440696E74657272757075
:101E80007400000070B4090601F0706141EA00704E
:101E9000094C25682668110501F4700108431904EE
:101EA00001F47021084346F47F0604492660086067
:101EB000256070BC704700BF00F0014044800440C2
:101EC00080B500F007F8084801884FF6FE7211400F
:101ED000018001BD054872B64CF2205101804DF6DB
:101EE0002811018062B67047002005400E20054091
:101EF00010B5074979441831064C7C44163404E087
:101F00000A68081D511888470146A142F8D110BD42
:101F100008000000140000000BEDFFFF100000009F
:101F2000F822FF1F000000000120C046002801D059
:101F3000FFF7DEFF0020FEF789FA00F000F800F05E
:101F400001B800000746384600F002F8FBE7000041
:101F500080B5C046C046024A11001820ABBEFBE760
:101F60002600020080B5FFF7ABFFFFF7A3FEFFF7E7
:101F70000DFFFEF76BFAFEE7C046C046C046C046FE
:0C1F8000FFF7D2FF01460120FFF7C2BDB1
:040000051FFF1F7941
:00000001FF
