:020000041FFFDC
:10000000F8FF00201104FF1F5527FF1F5527FF1F72
:100010005527FF1F5527FF1F5527FF1F5527FF1F78
:100020005527FF1F5527FF1F5527FF1F5527FF1F68
:100030005527FF1F5527FF1F5527FF1F5527FF1F58
:100040005527FF1F5527FF1F5527FF1F5527FF1F48
:100050005527FF1F5527FF1F5527FF1F5527FF1F38
:100060005527FF1F5527FF1F5527FF1F5527FF1F28
:100070005527FF1F5527FF1F5527FF1F5527FF1F18
:100080005527FF1F5527FF1F5527FF1F5527FF1F08
:100090005527FF1F5527FF1F5527FF1F5527FF1FF8
:1000A0005527FF1F5527FF1F5527FF1F5527FF1FE8
:1000B0005527FF1F5527FF1F5527FF1F5527FF1FD8
:1000C0005527FF1F5527FF1F5527FF1F5527FF1FC8
:1000D0005527FF1F5527FF1F5527FF1F5527FF1FB8
:1000E0005527FF1F5527FF1F5527FF1F5527FF1FA8
:1000F0005527FF1F5527FF1F5527FF1F5527FF1F98
:100100005527FF1F5527FF1F5527FF1F5527FF1F87
:100110005527FF1F5527FF1F5527FF1F5527FF1F77
:100120005527FF1F5527FF1F5527FF1F5527FF1F67
:100130005527FF1F5527FF1F5527FF1F5527FF1F57
:100140005527FF1F5527FF1F5527FF1F5527FF1F47
:100150005527FF1F5527FF1F5527FF1F5527FF1F37
:100160005527FF1F5527FF1F5527FF1F5527FF1F27
:100170005527FF1F5527FF1F5527FF1F5527FF1F17
:100180005527FF1F5527FF1F5527FF1F5527FF1F07
:100190005527FF1F5527FF1F5527FF1F5527FF1FF7
:1001A0005527FF1F5527FF1F7126FF1FF726FF1F2B
:1001B0005527FF1F5527FF1F5527FF1F5527FF1FD7
:1001C0005527FF1F5527FF1F5527FF1F5527FF1FC7
:1001D0005527FF1F5527FF1F5527FF1F5527FF1FB7
:1001E0005527FF1F5527FF1F5527FF1F5527FF1FA7
:10040000FFFFFFFFFFFFFFFFFFFFFFFFFEFFFFFFFD
:1004100062B64FF000004FF000014FF000024FF0C5
:1004200000034FF000044FF000054FF000064FF0BE
:1004300000074FF000084FF000094FF0000A4FF09E
:10044000000B4FF0000C00F05BFCFEE700F00F40EB
:1004500040F00F4080F00F40C0F00F4000F10F401F
:100460000090044000A0044000B0044000C00440DC
:1004700000D00440000000009E9E9E9E9E9E9E9E78
:100480009E9E9E9E9E9E9E9E9E9E9E9E9E9E9E9E8C
:100490009E9E9E9E9E9E9E9E9E9E9E9E9E9E9E9E7C
:1004A0009E9E9E9E9E9E9E629E629E629E629E6298
:1004B0009E629E629E629E9E9E9E9E9E9E9E9E9E10
:1004C0009E9E9E9E9E9E9E9E9E9E9E9E9E9E9E9E4C
:1004D00062626262626262626262626262626262FC
:1004E00062629E9E9E9E9E9E9E9E9E9E9E9E9E9EA4
:1004F0009E9E9E9E9E9E9E9E6262626262626262FC
:100500006262626262626262626262629E9E9E9EDB
:100510009E9E9E9E9E9E9E9E9E9E9E9E9E9E626273
:1005200062626262626262626262626262626262AB
:10053000626262626262629E9E9E9E9E9E9E9E9E7F
:100540009E9E9E9E9E9E9E626262626262626262E7
:1005500062626262626262626262626262629E9E03
:100560009E9E9E9E9E9E9E9E9E9E9E9E9E9E9E62E7
:1005700062626262626262629E9E9E62629E9E622F
:1005800062626262626262629E9E9E9E9E9E9E9E6B
:100590009E9E9E9E9E9E9E9E62626262629E9E9EA7
:1005A0009E626262629E9E9E9E62626262626262FF
:1005B0009E9E9E9E9E9E9E9E9E9E9E9E9E9E9E9E5B
:1005C0006262629E9E9E9E9E6262629E62629E9E2B
:1005D0009E9E9E626262626262629E9E9E9E9E9EDF
:1005E0009E9E9E9E9E9E9E9E629E9E9E9E9E9E62A3
:1005F00062629E9E9E62629E9E9E9E9E62626262FB
:1006000062629E9E9E9E9E9E9E9E9E9E9E9E9E62BE
:10061000629E9E9E9E9E6262629E9E9E9E9E629E26
:100620009E9E9E9E9E6262626262629E9E9E9E9E52
:100630009E9E9E9E9E9E9E6262629E9E9E62626242
:100640009E629E9E9E9E9E629E9E9E9E9E9E6262BA
:10065000626262629E9E9E9E9E9E9E9E9E9E626222
:1006600062629E9E9E62629E9E9E629E9E9E9E9ED6
:100670009E9E9E9E9E9E626262626262629E9E9E3E
:100680009E9E9E9E9E9E62629E9E6262629E9E9EB6
:100690009E9E629E9E9E9E9E9E9E9E9E9E9E62622E
:1006A00062626262629E9E9E9E9E9E9E9E62629E0E
:1006B0009E9E6262629E9E9E9E9E629E9E9E9E9E4A
:1006C0009E9E9E9E9E9E62626262626262629E9E2A
:1006D0009E9E9E9E9E9E62629E9E62626262629EDE
:1006E0009E9E629E9E9E9E9E9E9E9E9E9E9E6262DE
:1006F0006262626262629E9E9E9E9E9E9E9E6262FA
:10070000629E62626262629E9E9E629E9E9E9E9EAD
:100710009E9E9E9E9E9E6262626262626262629E15
:100720009E9E9E9E62629E9E6262626262629E9EC9
:100730009E629E9E9E9E9E9E9E9E9E9E9E9E62628D
:100740006262626262629E9E9E9E9E9E629E9E9E6D
:100750009E6262629E9E9E9E62629E9E9E9E9E9EE5
:100760009E9E9E9E9E9E62629E9E9E626262629E11
:100770009E9E9E629E9E9E9E9E9E9E626262626201
:1007800062626262629E9E9E9E9E9E9E9E62629E2D
:100790009E9E9E626262629E9E9E9E629E9E9E9EA5
:1007A0009E9E9E9E9E6262629E9E9E9E9E62629E95
:1007B0009E9E9E9E9E629E9E9E9E9E626262629E85
:1007C0009E9E629E9E9E9E9E9E9E9E9E62629E9EFD
:1007D0009E9E9E9E9E9E9E9E9E9E9E9E6262626229
:1007E000629E9E9E6262629E9E9E62629E9E9E9E91
:1007F0009E9E9E9E629E9E9E9E9E9E9E9E9E9E9E55
:100800009E9E9E6262626262629E9E9E6262629E24
:100810009E9E62629E9E9E9E9E9E9E9E629E9E9EAC
:100820009E629E9E9E9E9E9E9E9E62626262629E50
:100830009E9E9E626262629E9E9E6262629E9E62B8
:100840009E9E629E629E9E9E626262629E9E9E9E30
:100850009E9E62626262629E9E9E9E626262629ED4
:100860009E6262626262626262626262626262622C
:10087000626262629E9E9E9E6262626262629E9EF0
:100880009E9E9E626262629E9E62626262629E9EA4
:100890006262626262626262626262626262626238
:1008A000626262626262629E9E9E62626262629E38
:1008B0006262626262629E9E9E6262626262629E28
:1008C0009E9E626262626262626262626262626290
:1008D000626262626262629E6262626262629E9E44
:1008E0009E629E629E9E629E9E6262626262626280
:1008F0006262626262626262626262626262629E9C
:1009000062626262626262629E629E626262629E13
:1009100062629E626262626262626262626262627B
:10092000626262626262629E6262626262629E622F
:100930006262626262626262629E6262626262625B
:1009400062626262626262626262626262629E9E0F
:10095000626262626262629E62629E629E9E629E4B
:100960009E6262626262626262626262626262622B
:100970006262626262629E9E9E62626262626262A3
:100980006262626262626262626262626262626247
:1009900062626262626262626262626262629E9EBF
:1009A0009E626262626262626262626262626262EB
:1009B0006262626262626262626262626262626217
:1009C000626262626262629E9E9E62626262626253
:1009D00062626262626262626262626262626262F7
:1009E000626262626262626262626262629E6262AB
:1009F0009E9E62626262626262626262626262625F
:100A000062626262626262626262626262629E628A
:100A1000626262629E629E629E9E9E9E626262624E
:100A200062626262626262626262626262626262A6
:100A30006262626262629E9E62629E629E629E626A
:100A40009E9E9E9E62626262626262626262626296
:100A500062626262626262626262626262629E623A
:100A6000629E629E629E62629E9E9E6262626262FE
:100A70006262626262629E62629E9E629E9E62622A
:100A80009E62629E9E9E626262629E629E629E62A2
:100A90009E9E9E62629E62629E62629E62629E6292
:100AA0009E9E9E629E9E629E9E629E9E9E62629E92
:100AB000626262629E629E620B1F0000000900007B
:100AC0000000000000000000002F000000000700F0
:100AD000070000147F147F1400242A7F2A1200626A
:100AE0006408132300364955225000000503000016
:100AF00000001C224100000041221C000014083E9E
:100B000008140008083E0808000000A06000000863
:100B100008080808000060600000002010080402B7
:100B2000003E5149453E0000427F40000042615175
:100B30004946002141454B31001814127F1000270F
:100B400045454539003C4A494930000171090503D2
:100B500000364949493600064949291E0000363603
:100B60000000000056360000000814224100001466
:100B70001414141400004122140800020151090643
:100B800000324959513E007C1211127C007F4949C4
:100B90004936003E41414122007F4141221C007FF5
:100BA00049494941007F09090901003E4149497A03
:100BB000007F0808087F0000417F4100002040417D
:100BC0003F01007F08142241007F40404040007FE9
:100BD000020C027F007F0408107F003E4141413E2D
:100BE000007F09090906003E4151215E007F091975
:100BF00029460046494949310001017F0101003F72
:100C00004040403F001F2040201F003F4038403FF1
:100C10000063140814630007087008070061514955
:100C2000454300007F41410000552A552A550000E8
:100C300041417F0000040201020400404040404066
:100C4000000001020400002054545478007F4844FE
:100C5000443800384444442000384444487F003835
:100C60005454541800087E0901020018A4A4A47C5E
:100C7000007F080404780000447D40000040808428
:100C80007D00007F102844000000417F4000007C70
:100C900004180478007C080404780038444444387C
:100CA00000FC242424180018242418FC007C0804C8
:100CB000040800485454542000043F444020003CA1
:100CC0004040207C001C2040201C003C4030403C28
:100CD000004428102844001CA0A0A07C00446454B8
:100CE0004C4414141414141400A0064000B0064020
:100CF00000C0064000D0064000A00E4000B00E40EC
:100D000010B582B000F0CAFB00F0E0FB00F016FC6A
:100D10000FF2F02000F0B7FEB2480168B248427905
:100D2000521CB1FBF2F200920279C078521CB1FB66
:100D3000F2F3401CB1FBF0F20FF2E82000F0A3FE4A
:100D4000AA4C2078400744BF0FF2203000F09BFEF1
:100D50002078800744BF0FF2243000F094FE207802
:100D6000C00744BF0FF2303000F08DFE60780006FF
:100D700044BF0FF2303000F086FE6078400644BF7A
:100D80000FF2303000F07FFE6078800644BF0FF233
:100D9000383000F078FE6078400744BF0FF24030F2
:100DA00000F071FE6078800744BF0FF24C3000F015
:100DB0006AFE6078C00744BF0FF2583000F063FE4F
:100DC0000FF25C3000F05FFE89488A49884214BF08
:100DD0000FF26C300FF2743000F055FE00F004F8A2
:100DE00000F062FEFEE7000010B5834C20680009A9
:100DF00000F0070007281DD8DFE800F004070A0DFF
:100E0000101316190FF2503016E00FF2543013E0A1
:100E10000FF2543010E00FF258300DE00FF258305E
:100E20000AE00FF25C3007E00FF25C3004E00FF2F2
:100E3000603001E00FF2603000F025FE206800F025
:100E40000F00801E0C2826D8DFE800F007250A0DC9
:100E5000101316191C251F2522000FF264301CE008
:100E60000FF26C3019E00FF2783016E00FF280309C
:100E700013E00FF28C3010E00FF294300DE00FF21F
:100E8000A0300AE00FF2A83007E00FF2B43004E01F
:100E90000FF2BC3001E00FF2C83000F0F4FD206822
:100EA000000B10F00F0003D0022807D003D308E096
:100EB0000FF2D83007E00FF2E83004E00FF2F43020
:100EC00001E00FF2044000F0DEFD00F057F8A06AE8
:100ED000000E00F00F00072806D0092807D00B28C5
:100EE00018BF0F2806D008E00FF21C4007E00FF2F1
:100EF000304004E00FF2404001E00FF2544000F0B7
:100F0000C2FDE06A000248BF0FF2644014D4A06A38
:100F1000000F06D0072807D0092818BF0F2806D0D1
:100F200008E00FF25C4007E00FF26C4004E00FF2C3
:100F3000804001E00FF2904000F0A5FD2F480068CE
:100F4000000B00F00F00052806D0072807D008285E
:100F500008D0092809D00BE00FF28C400AE00FF20C
:100F60009C4007E00FF2A84004E00FF2B84001E017
:100F70000FF2C440BDE8104000F085BD10B5204C14
:100F800082B00320E0710020A07160712071012007
:100F9000E0738020207020780006FCD5E17AA27AE8
:100FA000637A207A00900FF2AC4000F06CFD0320D1
:100FB000E0710020A0716071042020710120E073B5
:100FC0008020207020780006FCD5E17AA27A637A2E
:100FD000207A00900FF2A44000F055FDFF20207011
:100FE00013BD00006431FF1FDC2EFF1F00E007402F
:100FF0000000FF1F0000FF1F248004400070044019
:10100000000002400A0A0909D2B0BBF06B696E65A4
:10101000746973BACBD0C4B0E5B2E2CAD4B3CCD051
:10102000F20A0000C4DABACBC6B5C2CAA3BA2564B4
:101030004D487A09D7DCCFDFC6B5C2CA20A3BA258E
:10104000644D487A0A666C6578C6B5C2CAA3BA25EB
:10105000644D487A2009666C617368C6B5C2CAA33C
:10106000BA25644D487A0A0A00000000536F66747E
:10107000776172652052657365740A00436F72650B
:10108000204C6F636B7570204576656E74205265D9
:101090007365740A000000004A544147205265738A
:1010A00065740A00506F7765722D6F6E20526573FC
:1010B00065740A0045787465726E616C2050696EC3
:1010C0002052657365740A005761746368646F67C2
:1010D00028434F50292052657365740A00000000B0
:1010E0004C6F7373206F6620436C6F636B20526587
:1010F0007365740A000000004C6F772D766F6C7476
:101100006167652044657465637420526573657416
:101110000A0000004C4C57552052657365740A0054
:101120000AD2B0BBF04B696E65746973BFAAB7A2EF
:10113000B0E5C6F4B6AFB7BDCABDA3BA00000000A3
:10114000666C617368C6F4B6AF0A00005352414D35
:10115000C6F4B6AF0A0000000A4B31302D00000083
:101160000A4B32302D0000000A4B33302D000000B6
:101170000A4B34302D0000000A4B36302D000000A1
:101180000A4B37302D0000000A4B35302D0000008F
:101190000A4B35332D0000000A556E7265636F6788
:1011A0006E697A6564204B696E6574697320666147
:1011B0006D696C79206465766963652E0A000000AC
:1011C000333270696E202020202020200000000093
:1011D000343870696E20202020202020000000007C
:1011E000363470696E20202020202020000000006E
:1011F000383070696E202020202020200000000060
:10120000383170696E20202020202020000000004E
:1012100031303070696E2020202020200000000036
:1012200031303470696E2020202020200000000022
:1012300031343470696E202020202020000000000E
:1012400031393670696E20202020202000000000F7
:1012500032353670696E20202020202000000000EA
:101260000A556E7265636F676E697A6564204B69B3
:101270006E65746973207061636B61676520636F6D
:1012800064652E20202020202000000053696C6916
:10129000636F6E2072657620312E302020200A0088
:1012A00053696C69636F6E2072657620312E312030
:1012B000200A000053696C69636F6E2072657620A6
:1012C000312E3220200A00000A54686973207665A6
:1012D0007273696F6E206F6620736F6674776172C8
:1012E0006520646F65736E2774207265636F676E27
:1012F000697A6520746865207265766973696F6EB6
:1013000020636F64652E0000313238206B4279749F
:101310006573206F6620502D666C6173680900004C
:10132000323536206B4279746573206F6620502DFC
:10133000666C617368090000353132206B42797444
:101340006573206F6620502D666C6173680900001C
:10135000455252212120556E646566696E65642090
:10136000502D666C6173682073697A650A0000000D
:10137000502D666C617368206F6E6C790A000000F6
:1013800030206B4279746573206F6620466C6578F7
:101390004E564D0A00000000313238206B427974FD
:1013A0006573206F6620466C65784E564D0A0000C6
:1013B000323536206B4279746573206F6620466C37
:1013C00065784E564D0A0000455252212120556E37
:1013D000646566696E656420466C65784E564D207E
:1013E00073697A650A0000003332206B42797465B4
:1013F00073206F662052414D0A0A00003634206B7C
:101400004279746573206F662052414D0A0A0000CC
:101410003936206B4279746573206F662052414DD6
:101420000A0A0000313238206B4279746573206FEC
:10143000662052414D0A0A00455252212120556E24
:10144000646566696E65642052414D2073697A65F2
:101450000A0A0000466C61736820706172616D65F4
:101460007465722076657273696F6E2025642E250F
:10147000642E25642E25640A00000000466C61730A
:10148000682076657273696F6E2049442025642E4A
:1014900025642E25642E25640A00000080B500F026
:1014A00007F8084801884FF6FE721140018001BD1F
:1014B000054872B64CF2205101804DF6281101808A
:1014C00062B67047002005400E20054010B5114956
:1014D000114C8C4204D04FF48252204600F098FB0D
:1014E000204600F0D1FB0D490D48421A1CBF0D48A3
:1014F00000F07EFB0C480D49091A18BF00F062FC91
:101500000B490C48421A04D0BDE810400A4800F0CC
:101510006FBB10BD0000FF1F0000FF1F4C04FF1F2A
:10152000000DFF1F7028FF1F6031FF1F6F31FF1F6D
:10153000A427FF1FE027FF1F2431FF1F38B5164CDB
:10154000164D606B40F478506063C82000F03EFC9C
:1015500068604FF47A7111FB00F02860216CC1F3D0
:101560000361491CB0FBF1F0A8604FF4E061206812
:1015700040F4805020600A4801604FF4A061E06BA5
:1015800040F00100E063074801604FF4E131BDE83D
:101590003440012000F0E6BC048004406031FF1FAD
:1015A000189004400CB0044010B50C461168012995
:1015B00002D0022904D008E05168C0B2884704E094
:1015C000916808709068401C90602068401C206002
:1015D00010BD30B4002400F8014B002A096812D075
:1015E00091B191FBF3F203FB1211002946BFC943ED
:1015F00001F1310501F130051146641C00F8015B71
:101600000029EED114E019B93021017001240FE056
:10161000B1FBF3F203FB12110A2934BF01F13005CB
:1016200001F137051146641C00F8015B0029EFD178
:10163000204630BC7047F8B507460C4615461E4696
:10164000A74214DA3068012808D0022809D1B0680E
:1016500030210170B068401CB06002E03020716839
:1016600088472868401C7F1C2860A742EADBF1BD40
:10167000F8B507460C4615461E46A74214DA3068F0
:10168000012808D0022809D1B06820210170B06873
:10169000401CB06002E02020716888472868401C28
:1016A0007F1C2860A742EADBF1BD2DE9F04F8DB029
:1016B00005460020934600900C4604E02A4600A907
:1016C000FFF772FF641C2078002800F0D8812528DD
:1016D00026D00A28F2D12868012808D0022809D18A
:1016E000A8680D210170A868401CA86002E00D20C8
:1016F000696888470098401C00902868012808D035
:10170000022809D1A8680A210170A868401CA860B5
:1017100002E00A20696888470098401C0090D1E7E1
:10172000002701E047F0100714F8010F20280ED021
:101730002328F7D02B2807D02D2802D0302809D015
:101740000BE047F00107EFE747F00207ECE747F04F
:101750000407E9E747F00807E6E7611E4FF00008D5
:1017600005E008EB880200EB4200A0F1300811F818
:10177000010FA0F13002092AF3D92E2804D111F863
:10178000010F30380928FAD94C1E14F8010F4C28E3
:1017900018BF682802D06C2818BF641E14F8010F07
:1017A000582867D0622800F00781632800F037814D
:1017B000642818BF692811D06E2800F05B816F285B
:1017C00000F0F580702800F0FC80732800F02B8179
:1017D000752800F0FB8078284CD06FE75BF8040B8D
:1017E00002900A23012202A903A8FFF7F2FE824613
:1017F00003A80AEB00090298002848BF2D2606D44A
:10180000B80748BF2B2602D4780703D520260AF153
:10181000010A00E00026380708D5002E00F0E58018
:101820002A4600A93046FFF7BFFEDEE0F8070CD4D9
:101830002B4600AA41465046FFF71AFF002E00F043
:10184000E4802A4600A93046E6E0002E00F0DD8064
:101850002868012807D0022808D1A8680670A8685F
:10186000401CA86002E03046696888470098401C28
:101870000090CAE010235BF8040B0190002201A93C
:1018800003A8FFF7A6FE824603A80AEB000900267C
:1018900038072ED5F80624D52868012808D0022854
:1018A00009D1A86830210170A868401CA86002E036
:1018B0003020696888470098401C009028680128FB
:1018C00008D0022809D1A86878210170A868401CB6
:1018D000A86002E07820696888470098401C009062
:1018E00001262B4600AA41465046FFF7A4FEC246F9
:1018F00032E0F80730D4F80648BF0AF1020A2B4656
:1019000000AA41465046FFF7B3FEF80624D52868E2
:10191000012808D0022809D1A86830210170A868E0
:10192000401CA86002E03020696888470098401C8D
:1019300000902868012808D0022809D1A8687821D9
:101940000170A868401CA86002E078206968884798
:101950000098401C00900126F80656D5002E54D160
:101960002868012808D0022809D1A8683021017010
:10197000A868401CA86002E0302069688847009889
:10198000401C00902868012808D0022809D1A868C6
:1019900078210170A868401CA86002E0782069687E
:1019A00088470098401C00900AF1020A2DE05BF87D
:1019B000040B019008230DE05BF8040B0190022357
:1019C00008E05BF8040B0190102303E05BF8040BC4
:1019D00001900A23002201A903A8FFF7FAFD82461D
:1019E00003A80AEB0009380707D52B4600AA414691
:1019F0005046FFF720FEC24607E0F80705D42B4605
:101A000000AA41465046FFF733FE99F8000038B36C
:101A100019F801092A4600A9FFF7C6FDF5E75BF8AA
:101A2000040BC0B24AE65BF8049BB9F1000F3FF427
:101A300049AE484600F04CFB8246F8070CD42B46D2
:101A400000AA41465046FFF713FE05E019F8010BC6
:101A50002A4600A9FFF7A8FD99F800000028F5D153
:101A6000F8077FF52FAE2B4600AA41465046FFF7F8
:101A7000FFFD27E65BF8040B0099016022E6009861
:101A80000DB0BDE8F08F0EB400B584B00121009117
:101A900005AA04490191014600A8FFF706FE04B01B
:101AA0005DF810FB6928FF1F1CB54FF4E1310120E0
:101AB00000F058FA72B600F037FB00200190009059
:101AC0006423494C28222821201D00F0D1FB01234A
:101AD0001A460E21002000F08BFC01231A460F212C
:101AE000002000F085FC01231A461021002000F0A0
:101AF0007FFC01231A461121002000F079FC01230C
:101B00001A460A21002000F073FC0022012311462E
:101B1000032000F06DFC012300221946032000F091
:101B200067FC012300220221032000F061FC032155
:101B300001230022084600F05BFC0123002204215F
:101B4000032000F055FC012300220521032000F0B2
:101B50004FFC012300220621032000F049FC012351
:101B600000220721032000F043FC00F012FB0022BA
:101B70001146084600F00FFC00220121104600F03B
:101B80000AFC09220021042000F07CFC09220A2121
:101B9000032000F077FC5B2000F079F85A2000F079
:101BA000A5F8124862B6016821F480410160012362
:101BB000016821F4004101601A460821002000F06C
:101BC00017FC20780128FCD10020019000906423AC
:101BD00028222821201D00F04BFB5B2000F057F845
:101BE00000202070EDE700BF9828FF1F00F00F4095
:101BF00062B38B0708D0521E11F8013B00F8013B7D
:101C000000F024808B07F6D1830740F0208000BFCE
:101C1000103A07D330B4B1E83810103AA0E83810C1
:101C2000F9D230BC530724BFB1E80810A0E808106F
:101C300044BF51F8043B40F8043BD20724BF31F8BD
:101C4000022B20F8022B44BF0B7803707047083A30
:101C500007D3B1E80810083A40F8043B40F804CB39
:101C6000F7D25307E4E750F8041B61B150F8042B96
:101C7000D30744BFA9F101039A18002342F8043B9B
:101C8000091FFAD1EFE770472D490860704710B57A
:101C900004465C2CA4BF0FF2B800FFF7F4FE20113D
:101CA00004EBD060401103D0022815D00AD310BD38
:101CB0000121A4EB401001FA00F0224908602249FA
:101CC000086010BD0121A4EB401001FA00F01D498D
:101CD00048601D49486010BD0121A4EB401001FA85
:101CE00000F0184988601849886010BD10B5044696
:101CF0005C2CA4BF0FF29000FFF7C5FE201104EB8F
:101D0000D060401103D0022811D008D310BD0121AA
:101D1000A4EB401001FA00F00C49086010BD01214D
:101D2000A4EB401001FA00F00849486010BD012101
:101D3000A4EB401001FA00F00449886010BD0000D7
:101D400008ED00E080E200E000E100E080E100E07A
:101D50000A4552522120496E76616C6964204952CD
:101D6000512076616C7565207061737365642074B1
:101D70006F20656E61626C65206972712066756E98
:101D80006374696F6E210A000A4552522120496E20
:101D900076616C6964204952512076616C756520CA
:101DA00070617373656420746F2064697361626C21
:101DB00065206972712066756E6374696F6E210AA1
:101DC00000000000002200F085BB000070B5002874
:101DD0007BD030281ED0322826D0602827D0642817
:101DE00049D06E2826D0782827D07D2828D0822870
:101DF00029D08C282AD096282BD0A0282CD0AA28ED
:101E00002CD0B4282DD0C8282ED0E1282ED0FA28E6
:101E10002ED02FE0182100224E4C2170627000213C
:101E2000A170652829DA2CE018210122F4E7182195
:101E30001822F1E718211F22EEE713211822EBE701
:101E400013211A22E8E713211C22E5E70E211222B2
:101E5000E2E70E211522DFE70E21EFE70E211B221C
:101E6000DAE70E211E22D7E70C21EDE70B21F9E777
:101E70000A21E0E764201821E3E7C928B4BF012163
:101E80000221E1701F28E1782171B8BF00201BDB1F
:101E90003D28B8BF012017DB5B28B8BF022013DB49
:101EA0007928B8BF03200FDB9728B8BF04200BDBCD
:101EB000B528B8BF052007DBD328B8BF062003DB51
:101EC000F128B4BF0720082060713221214C224E36
:101ED0006078183080B248432178491C89B290FB61
:101EE000F1F5002070701D48016841F080510160DB
:101EF0001B48017841F08001017098203070B07962
:101F0000C006FCD4B079C0F381000228FAD1207851
:101F100000F01F0030710020707163792279E17840
:101F2000A07801F0FFF8607800F01F0040F040005A
:101F30007071B0798006FCD5B0794006FCD5307858
:101F400000F03F003070B079C0F381000328FAD16F
:101F5000E8B270BDDC2EFF1F004006403480044014
:101F600008C00740F8B505460C46052846D8DFE806
:101F700000F003121C26313B0FF22C1633213046A1
:101F800000F0D8FA3E21304600F0D4FA3F48C1684C
:101F900041F480611CE03E484FF4407101604160B3
:101FA0003A48C16841F4006112E03A484FF4407188
:101FB000416001603548C16841F4805108E034480F
:101FC0004FF44071416381633048C16841F400516E
:101FD000C16013E030484FF44071416401642B4804
:101FE000016841F4806108E02B484FF44071416082
:101FF00001602648016841F40061016027492846D4
:1020000051F82020D37803F0F303D370002351F864
:10201000202093706A1E9241012808BF01234FF4CB
:102020007A7553EAD27214BF1D4A1E4A12686A4377
:1020300051F820502E782301B2FBF3F427043F0E11
:1020400006F0E00607F01F073E432E70520151F8DC
:1020500020506C70B2FBF3F251F82040A57A05F0E5
:10206000E00502F01F022A43A27251F82000C17855
:1020700041F00C01C170F1BD084A52F8203093F8CC
:1020800004C05FEA0C6CFAD5D9717047288004400F
:102090000CB0044008C0044020D004400C31FF1FA5
:1020A0006031FF1F6831FF1F483A5C666972655FE7
:1020B0004B696E657469735C7372635C6472697694
:1020C0006572735C756172745C756172742E630005
:1020D000002108B97047491C10F8012B002AFAD1D9
:1020E00008467047704780B5012301220421022071
:1020F00000F07EF901231A460621022000F078F94B
:1021000001231A460821022000F072F901231A4621
:102110000A21022000F06CF9BDE8005001231A46A4
:102120000C21022000F064B910B5FFF7DCFF4E4C23
:10213000206820F480502060206840F480502060A7
:10214000206820F480602060206840F48060206077
:10215000FFF7C8FF0021212000F05FF80021C02018
:1021600000F05BF80021072000F057F80021132051
:1021700000F053F80021202000F04FF800F009F89B
:1021800000210C2000F049F8206820F480602060D5
:1021900010BD10B500210C2000F03FF80021802078
:1021A00000F03BF84FF4FC740121002000F035F8FA
:1021B000641EF9D1BDE810400021002010B504468E
:1021C0000846002140F0400000F027F844F080006D
:1021D000BDE81040002120E0203810B5C0B200EB6F
:1021E00040014800214A8418805C012100F015F864
:1021F0006078012100F011F8A078012100F00DF8BD
:10220000E078012100F009F82079012100F005F8BB
:102210006079BDE810400121FFE70029124A1368E8
:1022200023F48063136011680CBF21F4807141F4C2
:10223000807111600821030613684CBF43F040030E
:1022400023F0400313604000136823F01003136071
:10225000491E136843F010031360ECD1106840F47A
:10226000806010607047000080F00F40E42EFF1F78
:102270002DE9F74F82B0C80800279A460090012840
:1022800059DBDDF808800F9C9DF81090004D01E0AF
:1022900080F00F404FF0010B9DF83800E1B2FFF7DE
:1022A0008DFF9DF81000002100283DD042460020FF
:1022B000134693F800E00BFA00FCF24534BF26EA1F
:1022C0000C064CEA0606401CF6B24B440828F0DB2C
:1022D0002B6823F480632B6030462B6843F48073B3
:1022E0002B6008235FEA006CD5F800C04CBF4CF0AF
:1022F000400C2CF0400CC5F800C04000D5F800C0E0
:102300002CF0100CC5F800C05B1ED5F800C04CF0D6
:10231000100CC5F800C0E5D1286840F48060491C65
:10232000521C28604945C2DB00987F1C641C08EBE6
:10233000C9088742B0DB9DF80C00072108421CBF8A
:102340009DF81000002823D005460299F80005FBEF
:1023500000189DF80C002C4600F007074FF0010B09
:1023600000204146012F0BDB0B780BFA00F29A4557
:1023700034BF96431643401CF6B22944B842F3DBFF
:102380000121F0B2FFF749FF08F10108641EE7D10F
:1023900005B0BDE8F08F1CB51446FFF70FFF002015
:1023A0000A2194FBF1F101EB8103A4EB43024342C8
:1023B00000AC1B193032401C5A710C460628EFDB6A
:1023C0009DF8000000ACFFF707FF6078FFF704FFFF
:1023D0009DF80200FFF700FF9DF80300FFF7FCFEE9
:1023E0009DF80400FFF7F8FE6079FFF7F5FE13BDD6
:1023F000F8B50D46074616461C46202D38BF022C60
:1024000004D324210FF2540000F094F8124800EB9A
:1024100087014FF48072496941F82520F10703D5FF
:10242000032E18BF132E07D150F82700416901224F
:10243000AA4091434161F1BD012150F82700426952
:10244000A9400A434261012C02680CBF114322EAF1
:1024500001010160F1BD00007028FF1F483A5C6671
:102460006972655F4B696E657469735C7372635CF6
:10247000647269766572735C6770696F5C677069B6
:102480006F2E63003CB4104B1C684FF40075854000
:102490002C431C6014040D4B53F8203004F47024BA
:1024A00044EAD21242F4817243F821200124084AFE
:1024B00052F82020536904FA01F123EA0101516125
:1024C000573036BCFFF7E3BB388004408428FF1F39
:1024D0007028FF1F401810F0030308D0C91A1FD33B
:1024E000DB0748BF00F8012D28BF20F8022D13009C
:1024F00030B414461546103928BF20E93C00FAD8FC
:10250000490728BF20E90C0048BF40F8042D890086
:1025100028BF20F8022D48BF00F8012D30BC7047BD
:10252000C91818BF00F8012DCB0728BF00F8012DEE
:102530007047000070B504460D4600F031F80FF208
:1025400014062A4621463046FFF79DFA00F043F86C
:10255000F7E70000B6CFD1D4B7A2C9FAD4DA257311
:10256000CEC4BCFEB5C4B5DA2564D0D0A3A10AB6EA
:10257000CFD1D4CCF5BCFEB2BBB3C9C1A2A3ACC70A
:10258000EBBCECB2E2B4EDCEF3D4ADD2F2A1A30930
:10259000A1AAA1AA20627920D2B0BBF00A0A000049
:1025A00080B5012301220E210020FFF721FF012326
:1025B0001A460F210020FFF71BFF01231A461021A6
:1025C0000020FFF715FFBDE8005001231A46112136
:1025D0000020FFF70DBF2DE9F041012301220E215C
:1025E0000020FFF705FF01231A460F210020FFF707
:1025F000FFFE01231A4610210020FFF7F9FE0123F8
:102600001A4611210020FFF7F3FE0E244FF00008B8
:102610000C4E012000FA04F730680168FD432940A0
:1026200008FA04F211430160642000F00DF83068EC
:10263000016829403943641C0160122CE9DBBDE8C4
:10264000F08100007028FF1F38B10449096811B1FA
:1026500000BF491EFCD1401EF7D170476831FF1FF3
:102660001920162100BF491EFCD1401EF9D1704728
:1026700010B52B48016841F480610160FFF7F0FF5D
:1026800028488178C8292CDA052291FBF2F202EB66
:102690008202891A21D1002242700921027802EBBC
:1026A0008203214A02EBC302204B1C6802F8014B53
:1026B0001C6802F8014B1C6802F8014B1C6802F808
:1026C000014B4478241D4470E4B2282CEDDB491EF4
:1026D00000BFFCD10178491C01708178491C8170D0
:1026E00005E05A20FFF702FB012111480170BDE807
:1026F000104000F027B880B50E48016841F08071A5
:1027000001605B20FFF7F2FA5A20FFF7C0FA054894
:10271000002101708170BDE8014000F00DB800009B
:10272000A0C004406C31FF1F9C28FF1FD0F00F4059
:102730009828FF1F00D004400548016841F480310B
:10274000016070470248016841F400310160704740
:102750000CF00F4080B5FFF723FFFFF73CFF044864
:1027600001780FF21000BDE80440FFF78CB90000BB
:1027700004ED00E00A2A2A2A2A64656661756C74F1
:102780005F69737220656E7465726564206F6E2078
:10279000766563746F722025642A2A2A2A2A0D0A14
:1027A0000A00000070B4090601F0706141EA00708F
:1027B000094C25682668110501F4700108431904C5
:1027C00001F47021084346F47F060449266008603E
:1027D000256070BC704700BF00F001404480044099
:1027E00010B5074979441831064C7C44163404E08E
:1027F0000A68081D511888470146A142F8D110BD4A
:1028000008000000140000005FF4FFFF100000004B
:102810006031FF1F0000000000F00BF8002801D01D
:10282000FFF7DEFF0020C046C046FFF73DF900F08D
:1028300002F80120704700F001B800000746384652
:1028400000F002F8FBE7000080B5C046C046024A2F
:1028500011001820ABBEFBE726000200C046C046B0
:10286000C046C046FFF7D8FF01460120FFF704BC71
:040000051FFF285D54
:00000001FF
