:020000041FFFDC
:10000000F8FF00201104FF1FA145FF1FA145FF1F9E
:10001000A145FF1FA145FF1FA145FF1FA145FF1FD0
:10002000A145FF1FA145FF1FA145FF1FA145FF1FC0
:10003000A145FF1FA145FF1FA145FF1FA145FF1FB0
:10004000A145FF1FA145FF1FA145FF1FA145FF1FA0
:10040000FFFFFFFFFFFFFFFFFFFFFFFFFEFFFFFFFD
:1004100062B64FF000004FF000014FF000024FF0C5
:1004200000034FF000044FF000054FF000064FF0BE
:1004300000074FF000084FF000094FF0000A4FF09E
:10044000000B4FF0000C02F0BBFFFEE730B40300DE
:100450000C0015006A1E002D04D025781D70641C48
:100460005B1CF6E730BC704710B403001400621E3A
:10047000002C02D019705B1CF8E710BC704770B4F8
:1004800003001C000D0000201600721E002E06D076
:1004900020782E78801B6D1C641C0028F4D070BC62
:1004A00070470278002A04D002788A4201D0401CAA
:1004B000F7E70078704770B504002079002822D053
:1004C000E06A050001232A0014F13001607801F090
:1004D0001BFE002801D0012016E000202071206AB8
:1004E000281AA16988420ED2E0780600022E0AD3AB
:1004F000A069451901232A0014F13001607801F048
:1005000003FE761EF2E7002070BD38B504000D0032
:10051000E06A854212D02000FFF7CDFF002801D00D
:1005200001200CE001232A0014F13001607801F071
:1005300050FD002801D0012001E0E562002032BD1D
:1005400038B504002000FFF7B6FF0500EDB2002D1E
:100550005FD12078032853D16079012850D14FF41E
:100560000072002114F13000FFF77EFF552084F85F
:100570002E02AA2084F82F02522084F83000522044
:1005800084F83100612084F83200412084F833007F
:10059000722084F81402722084F81502412084F835
:1005A0001602612084F81702206984F81802206975
:1005B00080B2000A84F819022069000C84F81A023B
:1005C0002069000E84F81B02E06884F81C02E068D1
:1005D00080B2000A84F81D02E068000C84F81E0254
:1005E000E068000E84F81F02E069401CE06201230D
:1005F000E26A14F13001607801F086FD002060713C
:1006000000220021607801F013FE002801D00120B3
:1006100005002800C0B232BD0200891E5069801E4C
:10062000814201D3002003E09078926A00FB012010
:1006300070472DE9F04104000D00022D02D36069DE
:10064000854201D3012071E02078012804D06BD3CA
:1006500003284AD031D367E0A84618EB5808206A2F
:1006600010EB58212000FFF750FF00285CD14FF419
:100670000070B8FBF0F101FB1081081990F8300010
:10068000060018F10108206A10EB58212000FFF73E
:100690003CFF002848D14FF40070B8FBF0F101FB9B
:1006A0001081081990F8300056EA0026E80701D5B5
:1006B000300901E03005000D38E0206A10EB15210B
:1006C0002000FFF722FF00282ED168004FF40071B0
:1006D000B0FBF1F202FB11021019303007007878FC
:1006E000397851EA002080B220E0206A10EBD51161
:1006F0002000FFF70AFF002816D1A8004FF4007170
:10070000B0FBF1F202FB1102101930300700F8784B
:10071000B978090451EA0060797850EA0120397803
:1007200008430001000901E05FF0FF30BDE8F081FF
:100730002DE9F84304000D001600022D02D3606974
:10074000854202D302208146A0E02078012805D00E
:10075000C0F0988003286BD04CD393E02F0017EBA8
:100760005707206A10EB57212000FFF7CEFE814685
:100770005FFA89F9B9F1000F40F086804FF40070FC
:10078000B7FBF0F101FB1071081930308046E80723
:1007900006D598F8000010F00F0050EA061000E0AF
:1007A000300088F800007F1C01202071206A10EBC7
:1007B00057212000FFF7A9FE81465FFA89F9B9F1B8
:1007C000000F61D14FF40070B7FBF0F101FB107125
:1007D000081930308046E80701D5300907E098F85D
:1007E000000010F0F000310A11F00F01084388F802
:1007F000000049E0206A10EB15212000FFF785FE7C
:1008000081465FFA89F9B9F1000F3DD168004FF4D4
:100810000071B0FBF1F202FB11021019303080467A
:1008200088F80060300080B2000A88F801002BE0F0
:10083000206A10EBD5112000FFF767FE81465FFAB2
:1008400089F9B9F1000F1FD1A8004FF40071B0FB76
:10085000F1F202FB110210193030804698F80300C3
:10086000000610F07040064388F80060300080B247
:10087000000A88F80100300C88F80200300E88F871
:10088000030001E002208146012020714846C0B2E9
:10089000BDE8F283F8B504000D00022D02D36069B3
:1008A000854202D3022006002CE000200600606989
:1008B000854227D229002000FFF7BBFE0700002F4A
:1008C00020D0012F02D1022006001BE017F1010FFA
:1008D00002D10120060015E0002229002000FFF7C8
:1008E00027FF0600F6B2002E0CD1206910F1010F8F
:1008F00006D02069401C2061607950F001006071D1
:100900003D00D4E73000C0B2F2BD2DE9F843040049
:100910000D00002D0AD1E0688046B8F1000F02D02A
:100920006069804511D3012080460EE02900200037
:10093000FFF77FFE0600022E01D2012053E060691E
:10094000864201D230004EE0A84647467F1C6069CF
:10095000874205D302200700B84501D2002042E0BB
:1009600039002000FFF765FE0600002E0CD17FF055
:10097000704239002000FFF7DBFE81465FFA89F9FB
:10098000B9F1000F13D10AE016F1010F01D0012EC9
:1009900001D1300027E04745D8D1002023E0002DC9
:1009A00005D03A0029002000FFF7C2FE81465FFA19
:1009B00089F9B9F1000F0CD1E760206910F1010F3E
:1009C00010D02069401E2061607950F001006071F4
:1009D00008E05FFA89F9B9F1010F02D15FF0FF3742
:1009E00000E001273800BDE8F283F8B504000D00EF
:1009F000E580A0680600012E03D020684069864289
:100A000001D302204BE0002E06D120680078032895
:100A100002D12068406A0600002E0ED1E6602068F0
:100A20000089ADB2854201D3022038E02068406AD7
:100A3000ADB210EB1510206125E02068807880B2FF
:100A400000010700ADB2BFB2BD4213D33100206830
:100A5000FFF7EFFD060016F1010F01D101201EE0A6
:100A6000022E03D320684069864201D3022016E09B
:100A7000ED1BE7E7E66031002068FFF7CDFDADB282
:100A800010EB15102061ADB21020B5FBF0F101FBA9
:100A90001051206810EB4110303060610020F2BD31
:100AA0002DE9F04104000D00E088401C0700BFB2B2
:100AB000002F02D02069002801D104208CE0BFB2B1
:100AC0001020B7FBF0F101FB1071002977D12069EC
:100AD000401C2061E068002806D120680089BFB270
:100AE00087426CD3042077E0BFB220688078401E34
:100AF00010EA171F63D1E1682068FFF79AFD06002E
:100B0000022E01D2022067E016F1010F01D101206F
:100B100062E02068406986424BD3002D01D1042059
:100B20005AE0E1682068FFF7F0FE0600002E01D1D0
:100B3000072051E0012E01D102204DE016F1010FF6
:100B400001D1012048E02068FFF7B5FC002801D062
:100B5000012041E04FF40072002120683030FFF79F
:100B600083FC31002068FFF757FD2168C862002030
:100B70008046206880785FFA88F8804511D2206826
:100B8000012101712068FFF796FC002801D00120A7
:100B900022E02068C06A401C2168C86218F1010880
:100BA000E7E72068C06A5FFA88F8B0EB08002168C0
:100BB000C862E66031002068FFF72EFD2061E78003
:100BC000BFB21020B7FBF0F101FB1071206810EBF1
:100BD0004110303060610020BDE8F081F8B50400BC
:100BE0000D0000212000FFF700FF0600F6B2002EE6
:100BF0001FD10020070021692068FFF786FC06004E
:100C0000F6B2002E15D160690078E52803D060693E
:100C10000078002803D17F1CAF4202D109E00020F8
:100C2000070001212000FFF73BFF0600F6B2002E6F
:100C3000E1D0F6B2042E01D1072006003000C0B288
:100C4000F2BD10B40200CB7E8C7E54EA03239BB22B
:100C500018001378032B06D14B7D0C7D54EA032337
:100C60009BB250EA034010BC704781760A0092B2F2
:100C7000120AC2760A0C02750A0C92B2120A427566
:100C80007047F8B5040000212000FFF7AEFE070012
:100C9000FFB2002F02D03800C0B225E021692068E1
:100CA000FFF733FC0700FFB2002F1BD1606906007D
:100CB00030780500EDB2002D02D10420070011E0CC
:100CC000F07A000706D40B22A1693000FFF7D7FBAA
:100CD000002807D000212000FFF7E2FE0700FFB246
:100CE000002FDBD03800C0B2F2BD38B504000121BE
:100CF0002000FFF773FF0500EDB2002D14D121692C
:100D00002068FFF702FC0500EDB2002D0CD1202277
:100D100000216069FFF7A8FB0B22A1696069FFF75A
:100D200095FB2068012101712800C0B232BD2DE978
:100D3000F34F81B00298006883469BF800002F288B
:100D400003D09BF800005C2802D11BF1010BF4E7F3
:100D50000198806907000B2220213800FFF784FBEF
:100D600000200400C0B2824681460820804619F85F
:100D70000B00050019F10109EDB2212D05DBEDB2E3
:100D80002F2D02D0EDB25C2D07D119EB0B0002998B
:100D90000860EDB2212D61DA5EE0EDB22E2D01D0BA
:100DA000C2450DD3B8F1080F02D1EDB22E2D01D0FE
:100DB000062072E0082082460B208046A400D6E779
:100DC000EDB2802D01DB54F00304EDB2812D22DB66
:100DD000EDB2FF2D1FD019F80B00060019F1010923
:100DE000F6B2402E02DBF6B27F2E05DBF6B2802E85
:100DF00006DBF6B2FF2E03D0B8F10100824501D325
:100E000006204AE00AF807501AF1010A0AF80760BA
:100E10001AF1010AABE7EDB22900DFF89C06FFF7F3
:100E200040FB002801D0062037E0EDB2412D05DB64
:100E3000EDB25B2D02DA54F0020408E0EDB2612D50
:100E400005DBEDB27B2D02DA54F00104203D0AF8F7
:100E500007501AF1010A8AE7042500E00025BAF1DB
:100E6000000F01D1062018E03878E52801D10520CF
:100E70003870B8F1080F00D1A400E4B214F00300F8
:100E8000012801D155F01005E4B214F00C0004283B
:100E900001D155F00805FD720020BDE8FE8F01006C
:100EA0005FF0FF300A68002A14D00A681278303ADE
:100EB000100009280CD20A6852783A2A08D10A6828
:100EC000921C0A60012805DB5FF0FF32100001E090
:100ED000002210007047F2B50400009800782F2817
:100EE00003D0009800785C2802D10098401C009044
:100EF0000020A06000980078202807D20021200060
:100F0000FFF773FD05000020606129E000A92000C3
:100F1000FFF70DFF0500EDB2002D21D12000FFF7F6
:100F2000B0FE0500A069C07A0700EDB2002D07D021
:100F3000EDB2042D03D1780701D4052005000FE0A0
:100F400078070DD460690600F07AC00602D4052047
:100F5000050005E031002068FFF773FEA060D5E7CB
:100F60002800C0B2F2BD38B504000D000020207189
:100F70005FF0FF30E06229002000FFF7C6FA00288A
:100F800001D003202DE094F82F0294F82E1251EA9C
:100F9000002080B24AF65521884201D0022020E08C
:100FA00094F8680094F86710090251EA004094F838
:100FB00066100843DFF80415884201D1002010E0D4
:100FC00094F8840094F88310090251EA004094F8E0
:100FD00082100843DFF8E414884201D1002000E0C9
:100FE000012032BD2DE9F74F88B00898002101603B
:100FF0000998FFF754FF03900398002801D50B20B0
:101000000AE20398DFF8B81451F820008146B9F1DC
:10101000000F01D10C20FFE10898C0F8009099F86A
:101020000000002810D099F8010001F05EF90400DA
:10103000E00709D49DF82800002803D0600701D5F7
:101040000A20E9E10020E7E1002089F80000039888
:1010500089F8010099F8010000F008FE0400E0079B
:1010600001D50320D8E19DF82800002803D06007AF
:1010700001D50A20D0E10020050029004846FFF7ED
:1010800072FF82465FFA8AFABAF1010F3BD1002063
:101090008346BBF1040F18D219EB0B1000F2EE10CF
:1010A000017900290AD0C17A827A120452EA0161D8
:1010B000427A51EA0221007A084300E0002004A9A4
:1010C00041F82B001BF1010BE3E700208346BBF145
:1010D000000F01D0BBF1010B04A850F82B00050054
:1010E000002D04D029004846FFF73DFF00E0022014
:1010F00082465FFA8AFABAF1000F04D01BF1010BA5
:10110000BBF1040FE8D35FFA8AFABAF1030F01D1F9
:10111000012081E15FFA8AFABAF1000F01D00D20B7
:101120007AE199F83C0099F83B1051EA002080B22E
:10113000B0F5007F01D00D206EE199F8470099F8D5
:10114000461051EA002080B20600002E0ED199F818
:10115000570099F85610090451EA006099F85510A3
:1011600050EA012099F8541008430600C9F81860A5
:1011700099F8400089F8030099F80300012805D088
:1011800099F80300022801D00D2045E199F80300E9
:10119000464399F83D0089F8020099F802000028BA
:1011A00006D099F8020099F80210491E084201D0B1
:1011B0000D2031E199F8420099F8411051EA0020E0
:1011C000A9F80800B9F808001021B0FBF1F202FB01
:1011D0001102002A01D00D201EE199F8440099F86F
:1011E000431051EA002080B20090009800280ED1F0
:1011F00099F8530099F85210090451EA006099F8DF
:10120000511050EA012099F850100843009099F8C5
:101210003F0099F83E1051EA0020ADF80400BDF8F7
:101220000400002801D10D20F6E0BDF8040016FAF4
:1012300080F0B9F8081010EB111002900098029994
:10124000884201D20D20E7E000980299401A99F8EF
:101250000210B0FBF1F00700002F01D10D20DBE000
:101260000120824640F6F670874201D30220824672
:101270004FF6F670874201D303208246B81CC9F8A6
:101280001400C9F81C50BDF8040015FA80F0C9F824
:10129000200002984019C9F828005FFA8AFABAF1CA
:1012A000030F1AD1B9F80800002801D00D20B3E0CF
:1012B00099F85F0099F85E10090451EA006099F806
:1012C0005D1050EA012099F85C100843C9F8240029
:1012D000D9F81400800080461EE0B9F80800002804
:1012E00001D10D2098E0D9F820003018C9F8240069
:1012F0005FFA8AFABAF1020F04D1D9F814005FEA52
:10130000400809E0D9F814000321484399F8141063
:1013100011F0010111EB5008D9F8180008F2FF1183
:10132000B0EB512F01D20D2076E05FF0FF30C9F80D
:101330001000C9F80C00802089F805005FFA8AFACD
:10134000BAF1030F5ED199F8610099F8601051EA83
:10135000002080B2012855D1691C4846FFF7D5F816
:1013600000284FD1002089F8050099F82F0299F83C
:101370002E1251EA002080B24AF65521884241D10E
:1013800099F8330099F83210090451EA006099F88D
:10139000311050EA012099F8301008434949884239
:1013A00030D199F8170299F81612090451EA006031
:1013B00099F8151250EA012099F81412084342498D
:1013C00088421FD199F81B0299F81A12090451EAB0
:1013D000006099F8191250EA012099F81812084390
:1013E000C9F8100099F81F0299F81E12090451EA71
:1013F000006099F81D1250EA012099F81C12084368
:10140000C9F80C0089F800A030480088401C2F491A
:101410000880A9F8060000200BB0BDE8F08F38B5B1
:1014200004002500002D0BD02868002808D028686B
:101430000078002804D02868C088A988884201D094
:10144000092008E02868407800F04FFFC00701D568
:10145000032000E0002032BDF3B581B0140002A8E3
:10146000FFF71DFD0600002E01D50B2021E01448DA
:1014700050F826000500002D01D0002028700198AA
:10148000002802D00198002101700D48019940F810
:1014900026100198002802D0E4B2012C01D00020CF
:1014A00007E0002202A901A8FFF79CFD0700380011
:1014B000C0B2FEBD00000000B847FF1F4641540007
:1014C000F849FF1F52526141727241612C4CFF1F5B
:1014D0002DE9F2438AB004001700002C01D1092045
:1014E000B9E00020206017F01F0717F0FE020AA9DC
:1014F00000A8FFF777FD0500EDB2002D40F0A980B0
:1015000007A806900A9900A8FFF7E5FC05000598D2
:101510000600EDB2002D03D1002E01D106200500FA
:101520001C2007425BD0EDB2002D0BD0EDB2042D94
:1015300003D100A8FFF7D9FB050057F0080705986D
:1015400006000AE0F07A1121084202D007200500C7
:1015500003E0780701D508200500EDB2002D4ED13B
:1015600038074CD500F0E0FE804686F80E804046F5
:1015700080B2000AF0735FEA184030745FEA1860C6
:1015800070740020F0720020307700207077002007
:10159000B0770020F07731000098FFF752FB8146CA
:1015A00000213000FFF761FB009801210171B9F1C2
:1015B000000F24D00098C06A804649460098FFF783
:1015C00069F90500EDB2002D19D10098B9F10101BA
:1015D000C16041460098FEF798FF05000FE0EDB2AC
:1015E000002D0CD1F07AC00602D50420050006E0DB
:1015F000B80704D5F07AC00701D507200500EDB281
:10160000002D07D1380701D557F020070098C06A90
:10161000E0612662EDB2002D1BD1A7710020E071C0
:1016200031000098FFF70DFB2061F07FB17F0904C6
:1016300051EA0060717F50EA0120317F0843E06089
:101640000020A0600020A061009820602068C08871
:10165000A0802800C0B20BB0BDE8F0832DE9FB4F9D
:1016600004001500DDF804B002980021016020009C
:10167000FFF7D5FE8DF800009DF80000002802D08D
:101680009DF80000F6E0E079002801D0E079F1E073
:10169000A079800701D40720ECE0A0682818A16891
:1016A000884201D200200500002D00F0D880A068FB
:1016B0004FF40071B0FBF1F202FB1102002A40F07E
:1016C0009680A068400A21688978491E08408246B1
:1016D0005FFA8AFABAF1000F23D1A06800280AD174
:1016E00020690600002E0BD100212068FFF70DF9BC
:1016F0000600206104E061692068FFF706F9060032
:10170000002E00F0AC80012E03D10220E0710220F7
:10171000B0E016F1010F03D10120E0710120A9E032
:1017200066612068C06AA169884208D12068FEF716
:10173000C2FE002803D00120E07101209AE0616917
:101740002068FEF769FF0700002F03D10220E07137
:1017500002208FE057FA8AF7680A8146B9F1000F34
:1017600035D02068807859FA8AF1884206D22068FC
:1017700080785FFA8AFAB0EB0A0081464B46DBB20A
:101780003A0059462068407800F0BEFC002803D09B
:101790000120E07101206DE02068C06AC01B48454F
:1017A0000FD24FF400722068C06AC01B4FF4007162
:1017B00001FB00B120683030FEF748FE20680021B0
:1017C00001714FF4007000FB09F0804638E0A0681A
:1017D000E16888420AD32068FEF76DFE002803D036
:1017E0000120E071012045E02068C762A761A06880
:1017F0004FF40071B0FBF1F202FB1102D2F5007060
:101800008046454500D2A846A1692068FEF77DFEC6
:10181000002803D00120E07101202BE04246594608
:10182000A0684FF40073B0FBF3FC0CFB130C2068B2
:101830001CEB00003030FEF709FE20680121017129
:1018400018EB0B0BA06818EB0000A0600298006872
:1018500018EB000002990860B5EB080524E7E06882
:10186000A168884201D2A068E060A07950F0200011
:10187000A0710020BDE8FE8FF8B504002000FFF73E
:10188000CEFD0500EDB2002D3BD1A079800638D504
:10189000E1692068FEF739FE0500EDB2002D30D178
:1018A000206A0700F87A50F02000F872E068387774
:1018B000E06880B2000A7877E068000CB877E068EA
:1018C000000EF87721693800FFF7CFF900F02CFD02
:1018D0000600BE75300080B2000AF875300C38760C
:1018E000300E78760020B8740020F874A07910F0DB
:1018F000DF00A0712068012101712068FEF720FE41
:1019000005002800C0B2F2BD38B504002000FFF782
:10191000B3FF0500EDB2002D01D1002020602800AA
:10192000C0B232BD70B582B004000D00EDB20A2D18
:1019300003D10D212000FFF7F5FF60680600002E9F
:1019400016D430190573761C3D2E0DDB00AB32002A
:1019500014F10C012068FFF781FE0098B04201D11C
:10196000002601E05FF0FF366660A068401CA060C2
:1019700073BD0DB42DE9F04F9AB0884623980390BB
:1019800000200490059024A8824698F800008DF865
:10199000000018F101089DF80000002800F03D81CA
:1019A0009DF80000252805D09DF8001003A8FFF73A
:1019B000B9FFEAE700200700C0B2060098F800006F
:1019C0008DF8000018F101089DF80000302808D1BA
:1019D0000120070098F800008DF8000018F10108B8
:1019E0000BE09DF800002D2807D10220070098F891
:1019F00000008DF8000018F101089DF80000302863
:101A000011DB9DF800003A280DDA0A209DF800103D
:101A100000FB0610B0F1300698F800008DF80000C9
:101A200018F10108E9E79DF800006C2803D09DF843
:101A300000004C2807D157F0040798F800008DF8F3
:101A4000000018F101089DF80000002800F0E58072
:101A50009DF8000081465FFA89F9B9F1610F06DB54
:101A60005FFA89F9B9F17B0F01DAB9F120095FFA60
:101A700089F94846422848D043283DD044284CD0D4
:101A80004F2846D0532804D0552846D0582848D04F
:101A90004BE0DAF8000001901AF1040A00208346B6
:101AA00001981BF80000002802D01BF1010BF7E79A
:101AB000B80709D4584610F1010BB04204D22021D6
:101AC00003A8FFF72FFFF5E701980078002808D05A
:101AD0000198017803A8FFF725FF0198401C0190A9
:101AE000F2E7584610F1010BB04204D2202103A8BE
:101AF000FFF718FFF5E748E7504610F1040A0168C0
:101B0000C9B203A8FFF70EFF3FE702208DF80100DE
:101B100011E008208DF801000DE00A208DF8010089
:101B200009E010208DF8010005E09DF8001003A8E1
:101B3000FFF7F8FE29E7780704D5DAF800501AF124
:101B4000040A0DE05FFA89F9B9F1440F04D1DAF81B
:101B500000501AF1040A03E0DAF800501AF1040AFE
:101B60005FFA89F9B9F1440F04D1002D02D56D4215
:101B700057F00807002004009DF80100B5FBF0F1C4
:101B800000FB115081469DF80100B5FBF0F55FFAAE
:101B900089F9B9F10A0F08DB9DF80000782801D116
:101BA000272000E0072010EB090916A819F13001E1
:101BB0002154641C002D01D0102CDDD3380703D52F
:101BC00016A82D212154641CA346F80702D55FF006
:101BD000300901E05FF02009B8070AD4584610F137
:101BE000010BB04205D24946C9B203A8FFF79AFEDD
:101BF000F2E7641E16A8215C03A8FFF793FE002CF1
:101C0000F7D1584610F1010BB042BFF4BEAE4946C1
:101C1000C9B203A8FFF786FEF3E7049800280DD4A5
:101C200002AB049A06A90398FFF718FD002805D116
:101C300004980299884201D1059801E05FF0FF30D5
:101C40001AB0BDE8F00F5DF810FB50F8041B61B14D
:101C500050F8042BD30744BFA9F101039A180023BD
:101C600042F8043B091FFAD1EFE770472DE9F04332
:101C700089B00400DFF88476DFF88486DFF8840614
:101C8000C8F80000E4B2002C01D0012050E1DFF8D8
:101C900078060078800703D5DFF86C06007847E106
:101CA000DFF8640600780321084201D100203FE1FB
:101CB000B8F1000F03D0D8F80000002801D10020AF
:101CC00036E1DFF848063860012078600020C8F867
:101CD00004000020C8F808000020C8F81000002008
:101CE00088F80C00002088F80D00DFF82406006852
:101CF00050F40030DFF818160860002141F201307E
:101D000000F0CFFC002801D0002011E1002000905D
:101D100000A941F2033000F0C4FC002801D00020EB
:101D200006E10098022808D00098032805D0009802
:101D3000052802D0009806281DD10098032802D05B
:101D40000098062802D1012088F80C0002208DF8A6
:101D5000040000208DF805000020029000208DF87E
:101D60000C000020049001A941F2023000F099FC1F
:101D7000002802D103E00020DAE00020D8E00320B0
:101D80008DF8040000208DF805000020029000204E
:101D90008DF80C000020049001A941F2023000F0FF
:101DA00080FC002801D00020C2E00598000C00044F
:101DB000C8F8100009208DF8040000208DF80500F7
:101DC000D8F81000029000208DF80C00002004903C
:101DD00001A941F2023000F064FC002801D000208B
:101DE000A6E0089810F4400F1ED10798C0F3032016
:101DF00006009DF81C0010F0030081460698800D37
:101E000050EA89290698C0F3C210050019F10100B3
:101E10000121AA1C9140484301213200093A914016
:101E20004843C8F808000BE0012088F80D00069828
:101E3000C0F31520814619F101008002C8F808009E
:101E400007208DF8040000208DF80500D8F8100058
:101E5000029000208DF80C000020049001A941F2AE
:101E6000023000F01EFC002801D0002060E01020AD
:101E70008DF8040000208DF805004FF400700290EA
:101E800000208DF80C000020049001A941F20230DE
:101E900000F007FC002801D0002049E0D8F800003D
:101EA0000068012837D137208DF8040000208DF814
:101EB0000500D8F81000029000208DF80C000020DA
:101EC000049001A941F2023000F0EBFB002801D0A0
:101ED00000202DE046208DF8040000208DF805003C
:101EE0000220029000208DF80C000020049001A92F
:101EF00041F2023000F0D5FB002801D0002017E0AD
:101F00000120009000A941F2073000F0CAFB002830
:101F100001D000200CE0DFF8F003007810F0FE00A4
:101F2000DFF8E4130870DFF8E003007810F0030036
:101F300009B0BDE8F083F0B402001600DFF8D40366
:101F40000700002F01D1002041E03868022808D0A6
:101F50003868032805D03868072802D03868082870
:101F600004D1DFF8B40300684007FAD40B00002B5B
:101F70002CD0B3F5007F02D94FF4007400E01C00B0
:101F8000E01C80080500002D1ED0DFF890030068DB
:101F900010F4E00F0CD0DFF88403006840F4E00098
:101FA00050F02000DFF874C3CCF8000000200EE0F1
:101FB000DFF8640300680005FAD5DFF86403006801
:101FC0003060361D6D1EDEE71B1BD0E70120F0BC24
:101FD00070472DE9F04188B004000D0090461E00C6
:101FE000C74FE4B2002C02D1F6B2002E01D104207A
:101FF00058E0C5480078C00701D5032052E0002D05
:1020000001D104204EE0387B002803D14FF400704A
:1020100000FB08F8F6B2012E1DD111208DF800004A
:1020200000208DF80100CDF8048001208DF8080013
:10203000F6B2039600A941F2023000F032FB00280C
:1020400029D14FF400712800FFF775FF002822D036
:10205000002006001FE012208DF8000000208DF8FF
:102060000100CDF8048001208DF80800F6B2039637
:1020700000A941F2023000F014FB00280BD1F6B2A7
:102080004FF4007000FB06F12800FFF754FF002812
:1020900001D000200600F6B2002E01D0012000E0A1
:1020A0000020C0B208B0BDE8F08170B40200130097
:1020B0000C00002C25D0B4F5007F02D94FF4007538
:1020C00000E02500641BE81C8508002DF1D0934832
:1020D000006810F4E00F0AD09048006840F4E00077
:1020E00050F010008D4E30605FF0FF300AE08A48FB
:1020F00000684005FBD58A481E6806601B1D6D1EE2
:10210000E3E7012070BC70472DE9F04188B004007E
:102110000D0090461E007A4FE4B2002C02D1F6B2B8
:10212000002E01D1042080E077480078C00701D557
:1021300003207AE074480078400701D5022074E05B
:10214000002D01D1042070E0387B002803D14FF42A
:10215000007000FB08F8F6B2012E1DD118208DF892
:10216000000000208DF80100CDF8048000208DF8DB
:102170000800F6B2039600A941F2023000F091FA8D
:10218000002829D14FF400712800FFF78EFF0028A6
:1021900022D0002006001FE019208DF8000000204A
:1021A0008DF80100CDF8048000208DF80800F6B20B
:1021B000039600A941F2023000F073FA00280BD117
:1021C000F6B24FF4007000FB06F12800FFF76DFF38
:1021D000002801D0002006000D208DF8000000200E
:1021E0008DF801003869019000208DF8080000206A
:1021F000039000A941F2023000F053FA002801D008
:10220000012012E004984749084201D001200CE067
:10221000049810F4F850B0F5106FDDD1F6B2002E2E
:1022200001D0012000E00020C0B208B0BDE8F0817C
:102230002DE9F04188B004000D001600DFF8C080E1
:10224000E4B2002C01D004204CE0012007002E480D
:102250000078C00701D5032044E0EDB2002D05D081
:10226000022D0CD005D3032D0FD037E0002007003E
:1022700036E0D8F8080030600020070030E04FF466
:1022800000703080002007002AE009208DF800004F
:1022900000208DF80100D8F81000019000208DF882
:1022A00008000020039000A941F2023000F0F9F983
:1022B000002801D0012015E0079810F4400F0AD142
:1022C0000698C0F38640401C0799090A11F00301E3
:1022D000491E884030600020070001E0042007000C
:1022E0003800C0B208B0BDE8F0810100C9B20029D1
:1022F00001D0012001E0044800787047184CFF1F0E
:10230000FC49FF1F104AFF1FAC49FF1F1449FF1F64
:1023100030800440144AFF1F24100B4030100B4043
:1023200020100B400880D9FF00207047F0B58023B3
:102330000F245FF0FF3C62465FF0020C6746B7F582
:10234000807F16D85FF0010C6646112E0FD206FB77
:1023500007FC01FB0CFCBCEB000C6546002D04D413
:10236000954202D22A003B003400761CEDE77F0044
:10237000E5E7DFF808CADCF800C03CF0080CDFF83D
:10238000FCE9CEF800C0DFF8F4C9DCF800C06FF358
:10239000131C66465FEAC31C1CF47F4C5CEA060C07
:1023A000B4F1010E5FEA0E1E1EF0F00E5EEA0C0C98
:1023B0005CF4602CDFF8C4E9CEF800C0DFF8C0C9D7
:1023C000DCF800C05FEA0C7CF8D5DFF8B0C9DCF8B7
:1023D00000C05CF0080CDFF8A4E9CEF800C0DFF81C
:1023E000A4C9DCF800C05CF4801CDFF898E9CEF8E2
:1023F00000C0F0BD38B504000D0000202060DFF8FB
:102400007C09DFF884190160DFF870090068C001F9
:10241000FAD4DFF8780900210160DFF874095FF46D
:1024200081310160DFF86C0928210160DFF868095B
:102430005FF001110160DFF86419DFF864090068DA
:102440004FF47A725043FFF771FFDFF834090068E8
:1024500010F0030FF9D1DFF84C0940F2434101605D
:10246000DFF8440940F243410160DFF840094FF4CE
:1024700088610160DFF8380940F243410160DFF80C
:10248000340940F243410160DFF82C0940F2434136
:102490000160DFF82809006850F40030DFF81C19EB
:1024A0000860DFF8E0084FF6FF710160DFF81009FF
:1024B000DFF810190160DFF8C408006850F0006010
:1024C000DFF8B8180860DFF8B40800680001FAD433
:1024D000DFF8AC080068C00301D501202060DFF8F8
:1024E000A408006850F08000DFF898180860002009
:1024F00032BDDFF88C08006840F20731084201D095
:10250000012000E00020C0B270470100DFF874280D
:1025100012680A4010000028F8D0704738B504004F
:10252000207810F03F00DFF8A01851F820000500D7
:10253000002D04D12078002801D00120B0E0DFF880
:102540004408006850F08000DFF838180860DFF8B1
:1025500030080068C007FAD46068DFF870180860B7
:1025600035F440056078800510F44000054360783C
:10257000022801D155F40015607804280DD115F416
:102580004030B0F5003F04D135F4403555F44035C6
:1025900003E035F4403555F40035DFF8F407006802
:1025A00080B2DFF8EC170860E06800281FD015F44F
:1025B0004030B0F5403F01D055F40015207A002896
:1025C00001D055F01005E068022801D355F0200530
:1025D000E06810F1010F0AD0DFF8B4070068E16885
:1025E00050EA0140DFF8A817086055F00205DFF84F
:1025F000E00700210160DFF8DC070560DFF8D8079D
:10260000FFF783FF01280BD0DFF87807006840F45C
:10261000702050F00100DFF86C17086001203FE0E7
:10262000DFF860070068000609D5DFF85807006882
:1026300050F00110DFF84C170860012030E0DFF89F
:1026400044070068C0030AD5DFF83807006850F077
:102650000110DFF8301708605FF0FF3020E015F45C
:10266000403F14D0DFF874070068206115F4403053
:10267000B0F5803F0BD1DFF8680700686061DFF8D4
:1026800064070068A061DFF860070068E061DFF8B8
:10269000F406006850F00100DFF8E816086000203A
:1026A00032BD2DE9F34F8BB05FF00009DDF830A0AB
:1026B000DFF838070400002C02D140F601205AE36D
:1026C000DFF82C070A900A98002802D140F60B2068
:1026D00051E30A98006809900998002802D140F651
:1026E0000B2048E30B98C01E00F02A83801F00F0E7
:1026F0001C8341F2F821401A18D0401E00F0D88106
:10270000401E00F0E682401E00F0E181401E00F015
:10271000FB81401E00F07A82401E00F09A82401E2B
:1027200000F04182401E00F04B8220E3DFF8C41627
:102730002000FFF75FFE8146B9F1000F40F01A83D9
:1027400000200500002006000020070000208DF872
:1027500001000020804600208DF8000000208DF848
:10276000040000208DF805000020029000208DF864
:102770000C000020049001A8FFF7D0FE002802D032
:1027800001208146F6E240F24C4000F037FB082081
:102790008DF8040000208DF805004FF4D5700290EC
:1027A00000208DF80C000020049001A8FFF7B6FE71
:1027B0008346BBF1000F08D105980299884202D0E8
:1027C00001208146D6E20120804601208DF80000DC
:1027D0009DF80000002800F0F98037208DF80400F3
:1027E00000208DF805000020029000208DF80C00DC
:1027F0000020049001A8FFF791FE8346BBF1010F72
:1028000002DB01208146B5E2BBF1000F6CD5002050
:102810000600002005000020804601208DF80400FD
:1028200000208DF80500DFF8D005029000208DF81B
:102830000C000020049001A8FFF770FE002802D0D1
:102840000120814696E2059810F0C040B0F1005F8B
:1028500001D1012080460120070027208DF80400C7
:1028600000208DF805004FF44060029000208DF8A4
:102870000C000020049001A8FFF750FE002802D0B1
:102880000120814676E20598000ACE2801D1012078
:1028900000E00020C0B2002800F0988027208DF8CA
:1028A000040000208DF805004FF4506002900020D5
:1028B0008DF80C000020049001A8FFF72FFE0028DF
:1028C00002D00120814655E20598000AAA2801D1CC
:1028D000012000E00020C0B2002877D000200700CF
:1028E00001208DF8010071E069208DF804000020BE
:1028F0008DF805000020029000208DF80C000020CB
:10290000049001A8FFF70AFE002802D001208146AA
:1029100030E2059810F4401F58D0002083460A206A
:1029200000F06CFA1BF1010B37208DF80400002039
:102930008DF805000020029000208DF80C0000208A
:10294000049001A8FFF7EAFD002802D0012081468B
:1029500024E069208DF8040000208DF805005FFA5E
:1029600088F8B8F1000F03D0DFF88C04029002E081
:102970005FF44010029000208DF80C0000200490BD
:1029800001A8FFF7CBFD002802D00120814605E019
:102990000598002802D4BBF1640FC0DBB9F1000F29
:1029A00040F0E881BBF1640F02DB002080460DE0BF
:1029B000012005005FFA88F8B8F1000F06D000206A
:1029C00080460598400001D501208046FFB2002FC7
:1029D00001D0072020609DF80100002801D00820C8
:1029E0002060F6B2002E01D004202060EDB2002D50
:1029F00008D0022020605FFA88F8B8F1000F01D0FB
:102A000003202060F6B2002E0BD0EDB2002D08D0CE
:102A1000052020605FFA88F8B8F1000F01D0062089
:102A20002060DFF8800300210160DFF87C030021D3
:102A30000160DFF8780300210160DFF874030021F2
:102A40000160DFF8700300210160DFF86C030021F2
:102A5000016009984168DFF8480300684FF47A7212
:102A60005043FFF763FCDFF83C0340F24341016051
:102A7000DFF8340340F243410160DFF830034FF4E4
:102A800088610160DFF8280340F243410160DFF80C
:102A9000240340F243410160DFF81C0340F243414C
:102AA0000160C648006850F40030C449086061E124
:102AB0005046FFF733FD8346BBF1010F01DB0220D7
:102AC0008146BBF1000F01D50320814652E1BAF1E6
:102AD000000F02D10C20814615E0A8480068C0090B
:102AE00010F4FF708346A5480068C0F30310401C33
:102AF00000FB0BFBAA4800684FF47A714843B0FB17
:102B0000FBF0CAF8000035E1BAF1000F02D10C2049
:102B1000814647E0DAF80000002802D10C20814607
:102B200040E0FFF7E6FC002839D19E480021016013
:102B30009D48002101609D48002101609C480021C2
:102B400001609C48002101609B4800210160DAF887
:102B50000010934800684FF47A725043FFF7E6FB89
:102B6000904840F2434101608F4840F24341016088
:102B70008E484FF4886101608D4840F24341016006
:102B80008C4840F2434101608B4840F24341016070
:102B90008A48006850F400308849086002E040F636
:102BA0000A208146E6E0BAF1000F02D10C208146EE
:102BB00005E077480068C004C00CCAF80000D9E0FE
:102BC000BAF1000F02D10C2081461EE0FFF791FC04
:102BD000002817D1DAF80000B0F5805F02D30C208E
:102BE000814612E06A480068400B4003684908606B
:102BF00067480068DAF80010C904C90C0843644942
:102C0000086002E040F60A208146B3E0BAF1000F06
:102C100002D10C2081461BE05E480068C0F34100F1
:102C20008346BBF1000F03D10020CAF800000FE07B
:102C3000BBF1010F03D10120CAF8000008E0BBF18D
:102C4000100F03D10220CAF8000001E005208146E0
:102C500090E0BAF1000F02D10C20814638E0FFF776
:102C600048FC002831D1DAF8000000280AD1494890
:102C7000006830F006004749086046484549096841
:102C8000016025E0DAF8000001280CD14148006815
:102C900030F006003F4908603E48006850F00200EE
:102CA0003C49086014E0DAF8000002280AD13948EB
:102CB000006830F006003749086036483549096831
:102CC000016005E00520814602E040F60A208146C9
:102CD00050E0BAF1000F02D10C20814624E02748D1
:102CE000006850F000602549086024480068000131
:102CF000FBD424480068000607D52248006850F03D
:102D0000800020490860002020601D480068C00342
:102D100005D52068002804D10120206001E00020B2
:102D200020602068CAF8000024E01C20CAF80000D7
:102D30000420CAF804004FF41E70CAF8080019E015
:102D40000220FFF7E2FB0F48006810F4E00F07D005
:102D50000C48006850F4E0000A49086004208146ED
:102D60000848006850F032000649086002E040F66A
:102D70000920814648460DB0BDE8F08F2C100B406D
:102D800024100B4030100B4000800001C0100B409D
:102D900004100B4028100B4044100B4060CC050081
:102DA000204CFF1F00D0044004D0044008D0044051
:102DB0000CD0044010D0044014D0044030800440B3
:102DC00034100B40B3007F005C41FF1F08100B4024
:102DD00000100B400C100B4001000E0010100B40B7
:102DE00014100B4018100B401C100B40144AFF1F0E
:102DF000184CFF1F1449FF1F000030400D4909689F
:102E000051F001010B4A11600B4908600B49052282
:102E10000A600B49096851F00101094A116008492B
:102E200009680906FBD50649096849084900044AAA
:102E300011607047388004400800044004000440DA
:102E40000000044070B504000D0016003068012831
:102E500002D0022805D00AE02000C0B2716888477D
:102E600005E0B0680470B068401CB060FFE72868F7
:102E7000401C286070BD2DE9F04704005FF0000A97
:102E80005046A1465FF0000A89F800A019F1010937
:102E9000002A1FD0D1F800A05546002D05D15FF0C3
:102EA000300A89F800A0401C38E0002D36D095FB90
:102EB000F3FA564603FB165A5746002F02D5FF4336
:102EC000313700E03037350089F8007019F1010919
:102ED000401CEAE7D1F800A0D446BCF1000F05D1B0
:102EE0005FF0300A89F800A0401C17E0BCF1000F29
:102EF00014D0BCFBF3FAD64603FB1ECAD046B8F189
:102F00000A0F02D218F1300801E018F13708F44630
:102F100089F8008019F10109401CE7E7BDE8F08756
:102F20002DE9F04104000D0016001F00A046A84541
:102F300007DA3A0031003020FFF784FF18F101086A
:102F4000F5E7BDE8F0812DE9F04104000D00160021
:102F50001F00A046A84507DA3A0031002020FFF7FD
:102F600071FF18F10108F5E7BDE8F0812DE9F24F96
:102F700092B00400150000200090129883469BF840
:102F800000000590002800F0F2810598252813D054
:102F900005980A2805D0220000A90598FFF752FFDE
:102FA00009E0220000A90D20FFF74CFF220000A934
:102FB0000A20FFF747FFD7E1002081460020039059
:102FC0000398002822D11BF1010B9BF80000202858
:102FD0000ED0232812D02B2807D02D2802D030283D
:102FE00009D00EE059F00109EAE759F00209E7E7D4
:102FF00059F00409E4E759F00809E1E759F010092C
:10300000DEE7BBF1010B01200390D9E700208246E7
:10301000002003900398002813D11BF1010B9BF8AB
:10302000000005903038092806D80A20059900FBD1
:103030000A10B0F1300AEDE7BBF1010B012003905B
:10304000E8E71BF1010B9BF800002E2811D10020AE
:103050000390039800280ED11BF1010B9BF8000090
:103060003038092800D8F4E7BBF1010B01200390A8
:10307000EFE7BBF1010B1BF1010B9BF800004C28A3
:1030800006D0682802D06C2801D002E003E002E0FC
:1030900001E0BBF1010B1BF1010B9BF80000059057
:1030A000582875D0622800F0D580632800F01D8173
:1030B000642813D0692811D06E2800F049816F2848
:1030C00000F0BD80702800F0D080732800F01681D9
:1030D000752800F0D58078285AD040E128680690FD
:1030E0002D1D0A23012206A909A8FFF7C4FE070027
:1030F00009A8381806000698002803D52D2002904C
:103100007F1C0FE05FEA897003D52B2002907F1CA3
:1031100008E05FEA497003D5202002907F1C01E09F
:1031200000200290002004905FEA097011D50298F7
:10313000002804D0220000A90298FFF783FE012096
:103140000490230000AA51463800FFF7E9FE5746D5
:1031500012E05FEAC9700FD4230000AA514638007C
:10316000FFF7F1FE0298002804D0220000A902987F
:10317000FFF768FE012004900498002807D1029808
:10318000002804D0220000A90298FFF75BFE98E017
:10319000286801902D1D1023002201A909A8FFF71E
:1031A0006AFE070009A838180600002004905FEAAC
:1031B000097016D55FEAC9600BD5220000A930203E
:1031C000FFF740FE220000A97820FFF73BFE012018
:1031D0000490230000AA51463800FFF7A1FE57468D
:1031E0001BE05FEAC97018D45FEAC96000D5BF1C54
:1031F000230000AA51463800FFF7A5FE5FEAC96028
:103200000BD5220000A93020FFF71CFE220000A9E8
:103210007820FFF717FE012004905FEAC9600DD502
:10322000049800280AD1220000A93020FFF70AFEE6
:10323000220000A97820FFF705FEBF1C41E02868A6
:1032400001902D1D0823002201A909A8FFF713FEF4
:1032500007001FE0286801902D1D0223002201A90C
:1032600009A8FFF708FE070014E0286801902D1D4B
:103270001023002201A909A8FFF7FDFD070009E0BE
:10328000286801902D1D0A23002201A909A8FFF733
:10329000F2FD070009A8381806005FEA097007D593
:1032A000230000AA51463800FFF73AFE574608E0CF
:1032B0005FEAC97005D4230000AA51463800FFF721
:1032C00042FE3078002806D0220000A93078FFF7AF
:1032D000B9FD761EF5E75FEAC97005D5230000AA9F
:1032E00051463800FFF72FFE3EE0287807902D1D4D
:1032F000220000A90798FFF7A5FD35E02868804661
:103300002D1DB8F1000F22D0404600F049F807000B
:103310005FEAC97005D4230000AA51463800FFF7C0
:1033200012FE98F80000002808D0220000A998F8A2
:103330000000FFF787FD18F10108F2E75FEAC970A6
:1033400005D5230000AA51463800FFF7FCFD0BE02D
:10335000286808902D1D08980099016004E022005B
:1033600000A90598FFF76EFD1BF1010B07E6009819
:1033700013B0BDE8F08F0EB47EB5040001200090BC
:103380000648019007A805002A00210000A8FFF7C1
:10339000EDFD060030007EBC5DF810FBA948FF1F64
:1033A00001000A000023002A01D1002007E01000DC
:1033B000421C0078002801D05B1CF8E71800704719
:1033C00080B500F08DFA00F0A7FA00F005FBDFF8F9
:1033D000E803FFF7D0FFDFF8E4030068DFF8E0134D
:1033E0004979491CB0FBF1F00090DFF8D003006888
:1033F000DFF8CC130979491CB0FBF1F3DFF8BC030B
:103400000068DFF8BC13C978491CB0FBF1F2DFF8A3
:10341000AC030168DFF8AC03FFF7ADFFDFF8A803EA
:103420000078400703D5DFF8A403FFF7A4FFDFF817
:1034300098030078800703D5DFF89403FFF79BFF1C
:10344000DFF884030078C00703D5DFF88803FFF7AF
:1034500092FFDFF884030078000603D5DFF87C03D1
:10346000FFF789FFDFF870030078400603D5DFF827
:103470007003FFF780FFDFF860030078800603D554
:10348000DFF86003FFF777FFDFF84C0300784007B1
:1034900003D5DFF85403FFF76EFFDFF83C03007835
:1034A000800703D5DFF84403FFF765FFDFF8280343
:1034B0000078C00703D5DFF83803FFF75CFFDFF8BB
:1034C0003403FFF758FFDFF83003DFF8301388428A
:1034D00004D0DFF82C03FFF74EFF03E0DFF82403EE
:1034E000FFF749FF00F003F800F0C6FAFEE780B5E9
:1034F000DFF814030068000910F0070000280BD063
:10350000022813D00DD3042819D014D306281ED0B6
:1035100019D307281FD022E0DFF8F002FFF72BFFB6
:1035200020E0DFF8EC02FFF726FF1BE0DFF8E40203
:10353000FFF721FF16E0B848FFF71DFF12E0B7487C
:10354000FFF719FF0EE0B648FFF715FF0AE0B54890
:10355000FFF711FF06E0B448FFF70DFF02E0B348A4
:10356000FFF709FFA848006810F00F00022812D0EA
:10357000042814D0052816D0062818D007281AD0F9
:1035800008281CD009281ED00A2820D00C2822D0B8
:103590000E2824D027E0A648FFF7EDFE26E0A54838
:1035A000FFF7E9FE22E0A448FFF7E5FE1EE0A3488E
:1035B000FFF7E1FE1AE0A248FFF7DDFE16E0A148A2
:1035C000FFF7D9FE12E0A048FFF7D5FE0EE09F48B6
:1035D000FFF7D1FE0AE09E48FFF7CDFE06E09D48CA
:1035E000FFF7C9FE02E09C48FFF7C5FE8648006869
:1035F000000B10F00F00002803D0022809D004D3DC
:103600000BE09648FFF7B7FE0AE09548FFF7B3FED8
:1036100006E09448FFF7AFFE02E09348FFF7ABFEE9
:1036200000F06AF891480068000E10F00F000728BB
:1036300006D0092808D00B280AD00F280CD00FE09C
:103640008B48FFF798FE0EE08A48FFF794FE0AE0E9
:103650008948FFF790FE06E08748FFF78CFE02E0FE
:103660008648FFF788FE86480068000203D5854833
:10367000FFF781FE1EE07D480068000F002806D09D
:10368000072808D009280AD00F280CD00FE07E4860
:10369000FFF771FE0EE07D48FFF76DFE0AE07C4803
:1036A000FFF769FE06E07A48FFF765FE02E0794819
:1036B000FFF761FE78480068000B10F00F00052846
:1036C00006D0072808D008280AD009280CD00FE017
:1036D0007248FFF750FE0EE07148FFF74CFE0AE01B
:1036E0007048FFF748FE06E06F48FFF744FE02E02F
:1036F0006E48FFF740FE01BDF8B56D48032101702B
:103700006C48002101706C48002101706B48002159
:1037100001706B48012101706A488021017069487D
:1037200000780006FBD568480078040067480078F8
:103730000500674800780600664800780700FFB279
:103740000097F6B23300EDB22A00E4B221006248DD
:10375000FFF711FE56480321017056480021017001
:103760005548002101705548042101705448012139
:103770000170544880210170524800780006FBD542
:1037800051480078040051480078050050480078FE
:103790000600504800780700FFB20097F6B23300E9
:1037A000EDB22A00E4B221004C48FFF7E4FD4548A1
:1037B000FF210170F1BD00000045FF1F244CFF1FD9
:1037C000D849FF1F4443FF1F00E00740D847FF1FB1
:1037D000C045FF1FD048FF1F01E00740E847FF1F1B
:1037E0001847FF1F5846FF1F7046FF1FDC45FF1F8D
:1037F000DC48FF1F2045FF1F0000FF1F0000FF1FC8
:10380000E848FF1FF448FF1F248004401C49FF1FA5
:103810002449FF1F2C49FF1F3449FF1F3C49FF1F4C
:103820004449FF1F4C49FF1F5449FF1F5044FF1FCD
:10383000F847FF1F0848FF1F1848FF1F2848FF1FB1
:103840003848FF1F4848FF1F5848FF1F6848FF1FA0
:103850007848FF1F8848FF1FFC43FF1F2C47FF1FAE
:103860004047FF1F5447FF1F8C43FF1F4C800440FD
:103870008846FF1FA046FF1FB846FF1F4045FF1F99
:10388000508004409848FF1FD046FF1FE846FF1FA6
:103890000047FF1F6045FF1F007004406847FF1F7F
:1038A0007C47FF1F9047FF1FA447FF1FF845FF1FDE
:1038B00007000240060002400500024004000240EA
:1038C0000F000240000002400B0002400A000240CC
:1038D00009000240080002407844FF1F8045FF1F96
:1038E00080B500F009F80A4800884FF6FE710840DC
:1038F0000749088001BD000072B606484CF220510D
:10390000018004484DF62811018062B6704700001E
:10391000002005400E2005402DE9F84324482549A4
:1039200088420DD000208046B8F5826F08D220482A
:10393000204951F8281040F8281018F10108F3E741
:103940001B4800F0BFF81C4807001C4806001C4834
:103950000400A01B80464046B0F10108002804D0B6
:1039600030783870761C7F1CF5E71648814616487B
:103970000500B5EB090080464046B0F1010800287B
:1039800005D0002089F8000019F10109F4E70F487B
:103990000F49104A531A98464346B3F10108002BC9
:1039A00004D00B780370491C401CF5E7BDE8F18397
:1039B0000000FF1F0000FF1FAC49FF1FF842FF1F60
:1039C0004443FF1FF849FF1F2E4CFF1F5C49FF1F98
:1039D0005C42FF1FAC42FF1F80B51E48006850F4D8
:1039E00078501C490860C82000F072F81A49086035
:1039F000194800684FF47A7148431849086017481D
:103A0000006817490968C1F30361491CB0FBF1F074
:103A10001449086000F008F800F011F85FF4E13193
:103A2000012000F0B3F901BD0F48006850F4805048
:103A30000D4908600D484FF4E061016070470C4883
:103A4000006850F001000A4908600A484FF4A0617C
:103A50000160704738800440244CFF1F204CFF1F3A
:103A600044800440284CFF1F048004401890044008
:103A7000408004400CB0044030B5ADF5157D0D4DCF
:103A80002800FFF778FC0122002100A8FDF7E4FCE4
:103A9000122209498CA8FDF71BFD040007498CA8D8
:103AA000FDF767FF8CA8FDF72FFF0548FFF763FCC4
:103AB000FBE700BFB848FF1FC847FF1FC448FF1FF0
:103AC0000C49FF1F014908607047000008ED00E045
:103AD00038B50400E4B2002C00F0EA80E4B2200023
:103AE00030281ED0322823D0602828D064282DD03A
:103AF0006E2832D0782837D07D283CD0822841D01B
:103B00008C2846D096284BD0A02850D0AA2855D033
:103B1000B4285AD0C8285FD0E12864D0FA2869D0E8
:103B20006FE09248182101709048002141706CE0CC
:103B30008E48182101708D480121417065E08B4845
:103B4000182101708948182141705EE087481821CA
:103B5000017086481A21417057E08448182101708D
:103B600082481F21417050E08048132101707F4836
:103B70001821417049E07D48132101707B481A21CA
:103B8000417042E079481321017078481C2141704E
:103B90003BE076480E21017074481221417034E0F8
:103BA00072480E2101707148152141702DE06F4857
:103BB0000E2101706D481821417026E06B480E21DE
:103BC00001706A481B2141701FE068480E21017096
:103BD00066481E21417018E064480C21017063485A
:103BE0001C21417011E061480B2101705F481E21CA
:103BF00041700AE05D480A2101705C481F21417054
:103C000003E06420FFF764FFAEE0584800218170B4
:103C1000E4B2652C03DA55480021C17009E0E4B232
:103C2000C92C03DA51480121C17002E04F4802213A
:103C3000C1704E484D49C9780171E4B21F2C03DAB6
:103C40004A480021417133E0E4B23D2C03DA474891
:103C5000012141712CE0E4B25B2C03DA43480221DC
:103C6000417125E0E4B2792C03DA40480321417127
:103C70001EE0E4B2972C03DA3C480421417117E0BE
:103C8000E4B2B52C03DA39480521417110E0E4B201
:103C9000D32C03DA35480621417109E0E4B2F12C56
:103CA00003DA32480721417102E0304808214171AE
:103CB0002E484078183080B2322148432B49097889
:103CC000491C89B290FBF1F00500294800210170E0
:103CD0002848006850F0805026490860264800783F
:103CE00050F080002449087024489821017024482D
:103CF0000078C006FBD422480078C0F38100C0B22F
:103D00000228F8D11948007810F01F001D490870EA
:103D10001D48002101701548437914480279134861
:103D2000C1781248807800F019FE1048407810F0F1
:103D30001F0050F0400014490870114800788006B8
:103D4000FBD50F4800784006FBD50C48007810F0F2
:103D50003F000A4908700A480078C0F38100C0B2E9
:103D60000328F8D12800C0B232BD00BFD849FF1FD8
:103D7000014006403480044008C00740004006402F
:103D80000640064004400640054006402DE9F84341
:103D900004000D00E4B2002C08D0022C24D014D36F
:103DA000042C3FD02FD3052C4BD059E033216D4844
:103DB00000F0F8F83E216B4800F0F4F86A4800681B
:103DC00050F48060684908604AE068484FF44071E8
:103DD000016067484FF4407101606348006850F427
:103DE0000060614908603BE062484FF44071016047
:103DF00061484FF4407101605B48006850F48050A6
:103E0000594908602CE05D484FF4407101605C48FE
:103E10004FF4407101605448006850F4005052491A
:103E200008601DE057484FF44071016056484FF458
:103E3000407101605548006850F480605349086043
:103E40000EE053484FF44071016052484FF4407106
:103E500001604E48006850F400604C490860FFE77C
:103E6000E4B24D4850F82400C07810F0F300E4B2FA
:103E7000494951F82410C870E4B2474850F824006A
:103E800000218170E4B2002C01D1012000E000206B
:103E9000E4B2012C01D1012100E00021C0B2C9B27D
:103EA0000843002806D03D4800684FF47A71484323
:103EB000814605E03A4800684FF47A7148438146EC
:103EC0002801B9FBF0F00600E4B2334850F82400B2
:103ED000007810F0E0008046B6B2300A10F01F0003
:103EE00050EA0800E4B22C4951F824100870E4B2FA
:103EF000294850F8240046705FEA49102901B0FBB8
:103F0000F1F0B6B2B0EB46100700E4B2224850F828
:103F10002400807A10F0E0008046E4B21E4850F899
:103F2000240017F01F0151EA08018172E4B21A4817
:103F300050F82400C07850F00C00E4B2164951F853
:103F40002410C870BDE8F183C0B2134A52F8202093
:103F500012791206F8D5C0B20F4A52F82020D1715A
:103F600070470000A044FF1F348004400CB00440A0
:103F700010B004400CC0044008C0044040B00440ED
:103F800044B0044064D0044060D004402880044021
:103F900024D0044020D00440E049FF1F204CFF1FE4
:103FA000284CFF1F38B504000D0000F00BF82A0064
:103FB00021000348FFF7DFF900F02DF8F7E700BF15
:103FC000AC42FF1F80B5012301220E21002000F02A
:103FD00053F8012301220F21002000F04DF80123A6
:103FE00001221021002000F047F8012301221121B5
:103FF000002000F041F801BD1E4A1268126801233A
:1040000083409A43C9B211F0010383401A43194B0C
:104010001B681A60704710B5012301220E21002091
:1040200000F02AF8012301220F21002000F024F8DB
:10403000012301221021002000F01EF8012301229B
:104040001121002000F018F80E200400E4B2122C18
:104050000EDA00212000C0B2FFF7CEFF642000F08E
:104060006BF801212000C0B2FFF7C6FF641CEDE72A
:1040700010BD0000B049FF1FF8B504000D00160088
:104080001F00EDB2202D02D2FFB2022F03D3242154
:104090002648FFF787FFEDB2E4B2254850F8240028
:1040A0004FF4807140F82510F00705D5F6B2032EC5
:1040B00002D0F6B2132E0DD1E4B21E4850F82400FF
:1040C00040690121A9408843E4B21A4951F82410FB
:1040D00048612AE0E4B2174850F824004069012101
:1040E000A9400843E4B2134951F824104861FFB2D3
:1040F000012F0DD1E4B20F4850F8240000680121CF
:10410000A9400843E4B20B4951F8241008600CE0C0
:10411000E4B2084850F8240000680121A94088430F
:10412000E4B2044951F824100860F1BD2844FF1F8F
:10413000C449FF1FB049FF1F00231900814209D263
:10414000054B1B681A00002A02D000BF521EFAE776
:10415000491CF3E770470000284CFF1F00000000D7
:10416000000000010000090200001A030000000422
:104170000000020500001A0600001B0700001A08D4
:10418000000009090000090A00001A0B0000DB0CFE
:1041900000001A0D000000000000000F00001A10BF
:1041A00000001A1100001A120000000000001A148A
:1041B0000000000000001A1600001A1700001A186C
:1041C00000001A1900001A1A00001A1B00001B1C1C
:1041D00000001B1D00001A1E0000000000001A2035
:1041E00000001A2100001A2200001A2300001A24DD
:1041F00000001A2500001B260000022700001A28D4
:104200000000022900001B2A00000000000000003E
:10421000000000000000000000000000000000009E
:10422000000000000000000000001A3300001A34F3
:1042300000001A350000000000001A3700001B388B
:1042400000000000000000000000000000001B3C17
:1042500000001B3D0000000000000000F0B4114E03
:10426000366834000F4E366856F47F060D4F3E60B8
:104270000E0616F0706656EA0076170517F47007FA
:104280003E431F0417F470273E43074F3E6000264D
:104290003500EDB29D4201D26D1CFAE7014E34604B
:1042A000F0BC704700F0014044800440B6CFD1D448
:1042B000B7A2C9FAD4DA2573CEC4BCFEB5C4B5DA48
:1042C0002564D0D0A3A10AB6CFD1D4CCF5BCFEB220
:1042D000BBB3C9C1A2A3ACC7EBBCECB2E2B4EDCE98
:1042E000F3D4ADD2F2A1A309A1AAA1AA2062792098
:1042F000D2B0BBF00A0A00000100000000F00F403D
:1043000040F00F4080F00F40C0F00F4000F10F4030
:104310000090044000A0044000B0044000C00440ED
:1043200000D004400B1F00000009000000A0064060
:1043300000B0064000C0064000D0064000A00E407D
:1043400000B00E40C4DABACBC6B5C2CAA3BA25645F
:104350004D487A09D7DCCFDFC6B5C2CA20A3BA253B
:10436000644D487A0A666C6578C6B5C2CAA3BA2598
:10437000644D487A2009666C617368C6B5C2CAA3E9
:10438000BA25644D487A0A0A000000000A54686998
:10439000732076657273696F6E206F6620736F6627
:1043A000747761726520646F65736E27742072651F
:1043B000636F676E697A65207468652072657669D7
:1043C00073696F6E20636F64652E00000A2A2A2AC3
:1043D0002A64656661756C745F69737220656E74BA
:1043E00065726564206F6E20766563746F72202538
:1043F000642A2A2A2A2A0D0A0A0000000A556E7227
:1044000065636F676E697A6564204B696E65746970
:1044100073207061636B61676520636F64652E2034
:104420002020202020000000483A5C666972655F09
:104430004B696E657469735C7372635C64726976F0
:104440006572735C6770696F5C6770696F2E63007B
:104450000A556E7265636F676E697A6564204B6991
:104460006E657469732066616D696C792064657628
:104470006963652E0A000000466C617368207061F4
:1044800072616D657465722076657273696F6E20F6
:1044900025642E25642E25642E25640A0000000064
:1044A000483A5C666972655F4B696E657469735CF6
:1044B0007372635C647269766572735C7561727441
:1044C0005C756172742E630010B507497944183128
:1044D000064C7C44163404E00A68081D51188847CD
:1044E0000146A142F8D110BD0800000014000000F0
:1044F0005BD7FFFF38020000F849FF1F00000000F3
:104500000A0A0909D2B0BBF06B696E65746973BAA7
:10451000CBD0C4B0E5B2E2CAD4B3CCD0F20A00002A
:104520000AD2B0BBF04B696E65746973BFAAB7A2BB
:10453000B0E5C6F4B6AFB7BDCABDA3BA000000006F
:10454000455252212120556E646566696E6564206E
:10455000502D666C6173682073697A650A000000EB
:10456000455252212120556E646566696E6564204E
:10457000466C65784E564D2073697A650A000000D6
:10458000466C6173682076657273696F6E2049446A
:104590002025642E25642E25642E25640A00000043
:1045A00080B5FFF70FFDFFF736FD03480178C9B26C
:1045B0000248FEF7E0FE01BD04ED00E0CC43FF1F22
:1045C000436F7265204C6F636B7570204576656E26
:1045D000742052657365740A000000004C6F772DDB
:1045E000766F6C74616765204465746563742052EE
:1045F000657365740A000000455252212120556EF2
:10460000646566696E65642052414D2073697A6500
:104610000A0A000000F00BF8002801D0FFF754FF51
:104620000020C046C046FFF727FA00F002F801203C
:10463000704700F001B800000746384600F002F865
:10464000FBE7000080B5C046C046024A11001820B2
:10465000ABBEFBE7260002005761746368646F67B6
:1046600028434F50292052657365740A00000000EA
:104670004C6F7373206F6620436C6F636B205265C1
:104680007365740A00000000313238206B4279747F
:104690006573206F6620502D666C61736809000099
:1046A000323536206B4279746573206F6620502D49
:1046B000666C617368090000353132206B42797491
:1046C0006573206F6620502D666C61736809000069
:1046D00030206B4279746573206F6620466C657874
:1046E0004E564D0A00000000313238206B4279747A
:1046F0006573206F6620466C65784E564D0A000043
:10470000323536206B4279746573206F6620466CB3
:1047100065784E564D0A000045787465726E616C7E
:104720002050696E2052657365740A0053696C6984
:10473000636F6E2072657620312E302020200A00B3
:1047400053696C69636F6E2072657620312E31205B
:10475000200A000053696C69636F6E2072657620D1
:10476000312E3220200A00003332206B42797465EA
:1047700073206F662052414D0A0A00003634206BC8
:104780004279746573206F662052414D0A0A000019
:104790003936206B4279746573206F662052414D23
:1047A0000A0A0000313238206B4279746573206F39
:1047B000662052414D0A0A00222A2B2C3A3B3C3DEE
:1047C0003E3F5B5D7C7F0000303A2F646174613155
:1047D0002E74787400000000536F66747761726500
:1047E0002052657365740A00506F7765722D6F6E85
:1047F0002052657365740A00333270696E20202080
:104800002020202000000000343870696E20202015
:104810002020202000000000363470696E20202007
:104820002020202000000000383070696E202020F9
:104830002020202000000000383170696E202020E8
:10484000202020200000000031303070696E2020D0
:10485000202020200000000031303470696E2020BC
:10486000202020200000000031343470696E2020A8
:10487000202020200000000031393670696E202091
:10488000202020200000000032353670696E202084
:104890002020202000000000502D666C61736820ED
:1048A0006F6E6C790A00000010B504002100C9B2D7
:1048B0000120FFF749FB10BDCED2CAC7D5C5CAA299
:1048C000C6BD0A007375636365640AB9FEB9FE006C
:1048D0004A5441472052657365740A004C4C575541
:1048E0002052657365740A00666C617368C6F4B61D
:1048F000AF0A00005352414DC6F4B6AF0A000000A3
:10490000C046C046C046C046FFF784FE656E640AD6
:10491000000000000000000040787D010A4B3130AB
:104920002D0000000A4B32302D0000000A4B3330BE
:104930002D0000000A4B34302D0000000A4B3630A9
:104940002D0000000A4B37302D0000000A4B353097
:0C4950002D0000000A4B35332D00000044
:040000051FFF49018F
:00000001FF
